{
	"_format": "hh-sol-artifact-1",
	"contractName": "BSCExchange",
	"sourceName": "contracts/bsc-spc/BSCExchange.sol",
	"abi": [
		{
			"inputs": [],
			"stateMutability": "nonpayable",
			"type": "constructor"
		},
		{
			"anonymous": false,
			"inputs": [
				{
					"indexed": true,
					"internalType": "address",
					"name": "operator",
					"type": "address"
				}
			],
			"name": "AddOperatorEvent",
			"type": "event"
		},
		{
			"anonymous": false,
			"inputs": [
				{
					"indexed": true,
					"internalType": "address",
					"name": "oldOwner",
					"type": "address"
				},
				{
					"indexed": true,
					"internalType": "address",
					"name": "newOwner",
					"type": "address"
				}
			],
			"name": "ChangeOwnerEvent",
			"type": "event"
		},
		{
			"anonymous": false,
			"inputs": [
				{
					"indexed": true,
					"internalType": "bytes32",
					"name": "txnId",
					"type": "bytes32"
				},
				{
					"indexed": true,
					"internalType": "address",
					"name": "sender",
					"type": "address"
				}
			],
			"name": "DepositTokenEvent",
			"type": "event"
		},
		{
			"anonymous": false,
			"inputs": [
				{
					"indexed": false,
					"internalType": "address",
					"name": "operator",
					"type": "address"
				}
			],
			"name": "RemoveOperatorEvent",
			"type": "event"
		},
		{
			"anonymous": false,
			"inputs": [
				{
					"indexed": true,
					"internalType": "bytes32",
					"name": "txnId",
					"type": "bytes32"
				},
				{
					"indexed": true,
					"internalType": "address",
					"name": "sender",
					"type": "address"
				}
			],
			"name": "RevertTransactionEvent",
			"type": "event"
		},
		{
			"anonymous": false,
			"inputs": [
				{
					"indexed": true,
					"internalType": "bytes32",
					"name": "txnId",
					"type": "bytes32"
				},
				{
					"indexed": true,
					"internalType": "address",
					"name": "sender",
					"type": "address"
				}
			],
			"name": "WithdrawTokenEvent",
			"type": "event"
		},
		{
			"inputs": [],
			"name": "_status",
			"outputs": [
				{
					"internalType": "enum ExchangeBase.ContractStatus",
					"name": "",
					"type": "uint8"
				}
			],
			"stateMutability": "view",
			"type": "function"
		},
		{
			"inputs": [
				{
					"internalType": "address",
					"name": "op",
					"type": "address"
				}
			],
			"name": "addOperator",
			"outputs": [],
			"stateMutability": "nonpayable",
			"type": "function"
		},
		{
			"inputs": [
				{
					"internalType": "address",
					"name": "token",
					"type": "address"
				}
			],
			"name": "addWhitelistToken",
			"outputs": [],
			"stateMutability": "nonpayable",
			"type": "function"
		},
		{
			"inputs": [
				{
					"internalType": "address",
					"name": "newOwner",
					"type": "address"
				}
			],
			"name": "changeOwner",
			"outputs": [],
			"stateMutability": "nonpayable",
			"type": "function"
		},
		{
			"inputs": [],
			"name": "depositBNB",
			"outputs": [],
			"stateMutability": "payable",
			"type": "function"
		},
		{
			"inputs": [
				{
					"internalType": "address",
					"name": "tokenAddress",
					"type": "address"
				},
				{
					"internalType": "uint256",
					"name": "amount",
					"type": "uint256"
				}
			],
			"name": "depositToken",
			"outputs": [],
			"stateMutability": "payable",
			"type": "function"
		},
		{
			"inputs": [],
			"name": "getInternalUsers",
			"outputs": [
				{
					"internalType": "address[]",
					"name": "",
					"type": "address[]"
				}
			],
			"stateMutability": "view",
			"type": "function"
		},
		{
			"inputs": [],
			"name": "getMetadata",
			"outputs": [
				{
					"internalType": "enum ExchangeBase.ContractStatus",
					"name": "status",
					"type": "uint8"
				},
				{
					"internalType": "enum ExchangeBase.ChainId",
					"name": "chainId",
					"type": "uint8"
				},
				{
					"internalType": "uint256",
					"name": "fee",
					"type": "uint256"
				},
				{
					"internalType": "address",
					"name": "feeAddress",
					"type": "address"
				},
				{
					"internalType": "address[]",
					"name": "whitelist",
					"type": "address[]"
				}
			],
			"stateMutability": "view",
			"type": "function"
		},
		{
			"inputs": [
				{
					"internalType": "address",
					"name": "user",
					"type": "address"
				}
			],
			"name": "getPendingTransactionByUser",
			"outputs": [
				{
					"internalType": "bytes32[]",
					"name": "",
					"type": "bytes32[]"
				}
			],
			"stateMutability": "view",
			"type": "function"
		},
		{
			"inputs": [
				{
					"internalType": "address",
					"name": "user",
					"type": "address"
				}
			],
			"name": "getRoleByUser",
			"outputs": [
				{
					"internalType": "enum ExchangeBase.Role",
					"name": "",
					"type": "uint8"
				}
			],
			"stateMutability": "view",
			"type": "function"
		},
		{
			"inputs": [
				{
					"internalType": "uint256",
					"name": "amount",
					"type": "uint256"
				}
			],
			"name": "getSPCReturns",
			"outputs": [
				{
					"internalType": "uint256",
					"name": "",
					"type": "uint256"
				}
			],
			"stateMutability": "view",
			"type": "function"
		},
		{
			"inputs": [
				{
					"internalType": "address",
					"name": "ethTokenAddress",
					"type": "address"
				},
				{
					"internalType": "uint256",
					"name": "amount",
					"type": "uint256"
				}
			],
			"name": "getSPCReturnsByToken",
			"outputs": [
				{
					"internalType": "uint256",
					"name": "",
					"type": "uint256"
				}
			],
			"stateMutability": "view",
			"type": "function"
		},
		{
			"inputs": [],
			"name": "getSecretAddress",
			"outputs": [
				{
					"internalType": "address",
					"name": "",
					"type": "address"
				}
			],
			"stateMutability": "view",
			"type": "function"
		},
		{
			"inputs": [
				{
					"internalType": "address",
					"name": "user",
					"type": "address"
				},
				{
					"internalType": "bytes32",
					"name": "transactionId",
					"type": "bytes32"
				}
			],
			"name": "getTransactionInfo",
			"outputs": [
				{
					"components": [
						{
							"internalType": "bytes32",
							"name": "txnId",
							"type": "bytes32"
						},
						{
							"internalType": "address",
							"name": "sender",
							"type": "address"
						},
						{
							"internalType": "address",
							"name": "tokenAddress",
							"type": "address"
						},
						{
							"internalType": "uint256",
							"name": "tokenAmount",
							"type": "uint256"
						},
						{
							"internalType": "uint256",
							"name": "outputAmount",
							"type": "uint256"
						},
						{
							"internalType": "uint256",
							"name": "actionTime",
							"type": "uint256"
						},
						{
							"internalType": "enum ExchangeBase.TxnStatus",
							"name": "status",
							"type": "uint8"
						}
					],
					"internalType": "struct ExchangeBase.Transaction",
					"name": "",
					"type": "tuple"
				}
			],
			"stateMutability": "view",
			"type": "function"
		},
		{
			"inputs": [
				{
					"internalType": "address",
					"name": "secret",
					"type": "address"
				},
				{
					"internalType": "address",
					"name": "feeAddress",
					"type": "address"
				}
			],
			"name": "initialize",
			"outputs": [],
			"stateMutability": "nonpayable",
			"type": "function"
		},
		{
			"inputs": [
				{
					"internalType": "address",
					"name": "sender",
					"type": "address"
				},
				{
					"internalType": "bytes32",
					"name": "transId",
					"type": "bytes32"
				}
			],
			"name": "markCompleteTransaction",
			"outputs": [],
			"stateMutability": "nonpayable",
			"type": "function"
		},
		{
			"inputs": [
				{
					"internalType": "address",
					"name": "op",
					"type": "address"
				}
			],
			"name": "removeOperator",
			"outputs": [],
			"stateMutability": "nonpayable",
			"type": "function"
		},
		{
			"inputs": [
				{
					"internalType": "address",
					"name": "sender",
					"type": "address"
				},
				{
					"internalType": "bytes32",
					"name": "transId",
					"type": "bytes32"
				}
			],
			"name": "revertTransaction",
			"outputs": [],
			"stateMutability": "nonpayable",
			"type": "function"
		},
		{
			"inputs": [
				{
					"internalType": "uint256",
					"name": "adminFee",
					"type": "uint256"
				}
			],
			"name": "setAdminFee",
			"outputs": [],
			"stateMutability": "nonpayable",
			"type": "function"
		},
		{
			"inputs": [
				{
					"internalType": "address",
					"name": "adminFeeAddress",
					"type": "address"
				}
			],
			"name": "setAdminFeeAddress",
			"outputs": [],
			"stateMutability": "nonpayable",
			"type": "function"
		},
		{
			"inputs": [
				{
					"internalType": "uint256",
					"name": "price",
					"type": "uint256"
				}
			],
			"name": "setNativeTokenPrice",
			"outputs": [],
			"stateMutability": "nonpayable",
			"type": "function"
		},
		{
			"inputs": [
				{
					"internalType": "address",
					"name": "ethTokenAddress",
					"type": "address"
				},
				{
					"internalType": "uint256",
					"name": "price",
					"type": "uint256"
				}
			],
			"name": "setTokenPrice",
			"outputs": [],
			"stateMutability": "nonpayable",
			"type": "function"
		},
		{
			"inputs": [
				{
					"internalType": "enum ExchangeBase.ContractStatus",
					"name": "newStatus",
					"type": "uint8"
				}
			],
			"name": "updateContractStatus",
			"outputs": [],
			"stateMutability": "nonpayable",
			"type": "function"
		},
		{
			"inputs": [
				{
					"internalType": "bytes32",
					"name": "txnId",
					"type": "bytes32"
				},
				{
					"internalType": "address",
					"name": "sender",
					"type": "address"
				},
				{
					"internalType": "address",
					"name": "tokenAddress",
					"type": "address"
				},
				{
					"internalType": "uint256",
					"name": "amount",
					"type": "uint256"
				},
				{
					"internalType": "uint256",
					"name": "outputAmount",
					"type": "uint256"
				},
				{
					"internalType": "uint256",
					"name": "actionTime",
					"type": "uint256"
				}
			],
			"name": "withdrawBNBOrToken",
			"outputs": [],
			"stateMutability": "payable",
			"type": "function"
		},
		{
			"inputs": [
				{
					"internalType": "address",
					"name": "tokenAddress",
					"type": "address"
				},
				{
					"internalType": "uint256",
					"name": "amount",
					"type": "uint256"
				}
			],
			"name": "withdrawTokenFromContract",
			"outputs": [],
			"stateMutability": "nonpayable",
			"type": "function"
		},
		{
			"stateMutability": "payable",
			"type": "receive"
		}
	],
	"bytecode": "0x60806040526000805460ff19168155620f4240600855633b9aca00600a55600b55612710600c5534801561003257600080fd5b506004805460ff19166002179055612d5c8061004f6000396000f3fe60806040526004361061016a5760003560e01c80638beb60b6116100d1578063afef04261161008a578063ca6f225f11610064578063ca6f225f14610433578063d88c520a14610460578063e0351a2f14610480578063e99914b5146104a057600080fd5b8063afef0426146103c5578063b66659bf146103e5578063bc8022ac1461041357600080fd5b80638beb60b6146102f85780639168083c146103185780639870d7fe146103385780639c832bf514610358578063a6f9dae114610385578063ac8a584a146103a557600080fd5b8063431f63c911610123578063431f63c914610223578063441835dd14610243578063485cc9551461027057806358ed4ba3146102905780636f4d96ca146102b05780637a5b4f59146102d257600080fd5b80630ec32ce8146101765780630fb3844c146101985780631c090a5c146101c85780632dc0873c146101db578063338b5dea1461020857806342220f341461021b57600080fd5b3661017157005b600080fd5b34801561018257600080fd5b506101966101913660046128e8565b6104c0565b005b3480156101a457600080fd5b506000546101b29060ff1681565b6040516101bf9190612a8d565b60405180910390f35b6101966101d6366004612931565b6106d7565b3480156101e757600080fd5b506101f0610802565b6040516001600160a01b0390911681526020016101bf565b6101966102163660046128e8565b6108ae565b610196610944565b34801561022f57600080fd5b5061019661023e3660046128e8565b6109d9565b34801561024f57600080fd5b5061026361025e36600461289c565b610ac6565b6040516101bf9190612a49565b34801561027c57600080fd5b5061019661028b3660046128b6565b610b77565b34801561029c57600080fd5b506101966102ab3660046128e8565b610c40565b3480156102bc57600080fd5b506102c5610d59565b6040516101bf9190612a36565b3480156102de57600080fd5b506102e7610dff565b6040516101bf959493929190612aa0565b34801561030457600080fd5b506101966103133660046129a7565b610ed7565b34801561032457600080fd5b5061019661033336600461289c565b610fad565b34801561034457600080fd5b5061019661035336600461289c565b611098565b34801561036457600080fd5b5061037861037336600461289c565b611151565b6040516101bf9190612ae5565b34801561039157600080fd5b506101966103a036600461289c565b6111b6565b3480156103b157600080fd5b506101966103c036600461289c565b611268565b3480156103d157600080fd5b506101966103e036600461289c565b6113a5565b3480156103f157600080fd5b506104056104003660046128e8565b61145c565b6040519081526020016101bf565b34801561041f57600080fd5b5061019661042e3660046128e8565b6114df565b34801561043f57600080fd5b5061045361044e3660046128e8565b611754565b6040516101bf9190612bd6565b34801561046c57600080fd5b5061019661047b366004612988565b6118d7565b34801561048c57600080fd5b5061040561049b3660046129a7565b6119a1565b3480156104ac57600080fd5b506101966104bb3660046129a7565b611a02565b6000805460ff1660028111156104e657634e487b7160e01b600052602160045260246000fd5b141561050d5760405162461bcd60e51b815260040161050490612b5c565b60405180910390fd5b600160005460ff16600281111561053457634e487b7160e01b600052602160045260246000fd5b146105515760405162461bcd60e51b815260040161050490612b25565b60033360009081526001602052604090205460ff16600381111561058557634e487b7160e01b600052602160045260246000fd5b14806105c2575060023360009081526001602052604090205460ff1660038111156105c057634e487b7160e01b600052602160045260246000fd5b145b6105de5760405162461bcd60e51b815260040161050490612b82565b6001600160a01b0382166000908152600560209081526040808320848452909152812090600682015460ff16600381111561062957634e487b7160e01b600052602160045260246000fd5b141561066f5760405162461bcd60e51b8152602060048201526015602482015274151c985b9cd858dd1a5bdb88139bdd08119bdd5b99605a1b6044820152606401610504565b506001600160a01b0390911660009081526005602081815260408084209484529390529181208181556001810180546001600160a01b03199081169091556002820180549091169055600381018290556004810182905591820155600601805460ff19169055565b60033360009081526001602052604090205460ff16600381111561070b57634e487b7160e01b600052602160045260246000fd5b1480610748575060023360009081526001602052604090205460ff16600381111561074657634e487b7160e01b600052602160045260246000fd5b145b6107645760405162461bcd60e51b815260040161050490612b82565b6000805460ff16600281111561078a57634e487b7160e01b600052602160045260246000fd5b14156107a85760405162461bcd60e51b815260040161050490612b5c565b600160005460ff1660028111156107cf57634e487b7160e01b600052602160045260246000fd5b146107ec5760405162461bcd60e51b815260040161050490612b25565b6107fa868686868686611ad8565b505050505050565b60008060005460ff16600281111561082a57634e487b7160e01b600052602160045260246000fd5b14156108485760405162461bcd60e51b815260040161050490612b5c565b60033360009081526001602052604090205460ff16600381111561087c57634e487b7160e01b600052602160045260246000fd5b146108995760405162461bcd60e51b815260040161050490612bb2565b5060045461010090046001600160a01b031690565b6000805460ff1660028111156108d457634e487b7160e01b600052602160045260246000fd5b14156108f25760405162461bcd60e51b815260040161050490612b5c565b600160005460ff16600281111561091957634e487b7160e01b600052602160045260246000fd5b146109365760405162461bcd60e51b815260040161050490612b25565b6109408282611e28565b5050565b6000805460ff16600281111561096a57634e487b7160e01b600052602160045260246000fd5b14156109885760405162461bcd60e51b815260040161050490612b5c565b600160005460ff1660028111156109af57634e487b7160e01b600052602160045260246000fd5b146109cc5760405162461bcd60e51b815260040161050490612b25565b6109d7600034611e28565b565b6000805460ff1660028111156109ff57634e487b7160e01b600052602160045260246000fd5b1415610a1d5760405162461bcd60e51b815260040161050490612b5c565b60033360009081526001602052604090205460ff166003811115610a5157634e487b7160e01b600052602160045260246000fd5b1480610a8e575060023360009081526001602052604090205460ff166003811115610a8c57634e487b7160e01b600052602160045260246000fd5b145b610aaa5760405162461bcd60e51b815260040161050490612b82565b6001600160a01b03909116600090815260096020526040902055565b60606000805460ff166002811115610aee57634e487b7160e01b600052602160045260246000fd5b1415610b0c5760405162461bcd60e51b815260040161050490612b5c565b6001600160a01b03821660009081526006602090815260409182902080548351818402810184019094528084529091830182828015610b6a57602002820191906000526020600020905b815481526020019060010190808311610b56575b505050505090505b919050565b6000805460ff166002811115610b9d57634e487b7160e01b600052602160045260246000fd5b14610be05760405162461bcd60e51b8152602060048201526013602482015272105b1c9958591e481a5b9a5d1a585b1a5e9959606a1b6044820152606401610504565b33600090815260016020819052604082208054600360ff199182161790915582541617815560048054610100600160a81b0319166101006001600160a01b0395861602179055600b55600d80546001600160a01b03191691909216179055565b60033360009081526001602052604090205460ff166003811115610c7457634e487b7160e01b600052602160045260246000fd5b14610c915760405162461bcd60e51b815260040161050490612bb2565b6001600160a01b038216610cd4576040513390819083156108fc029084906000818181858888f19350505050158015610cce573d6000803e3d6000fd5b50505050565b60405163a9059cbb60e01b8152336004820152602481018290526001600160a01b0383169063a9059cbb90604401602060405180830381600087803b158015610d1c57600080fd5b505af1158015610d30573d6000803e3d6000fd5b505050506040513d601f19601f82011682018060405250810190610d549190612911565b505050565b60606000805460ff166002811115610d8157634e487b7160e01b600052602160045260246000fd5b1415610d9f5760405162461bcd60e51b815260040161050490612b5c565b60033360009081526001602052604090205460ff166003811115610dd357634e487b7160e01b600052602160045260246000fd5b14610df05760405162461bcd60e51b815260040161050490612bb2565b610dfa60026120f1565b905090565b600080808060608160005460ff166002811115610e2c57634e487b7160e01b600052602160045260246000fd5b1415610e4a5760405162461bcd60e51b815260040161050490612b5c565b600054600454600b54600d54600780546040805160208084028201810190925282815260ff97881697909616956001600160a01b0390941693918391830182828015610ebf57602002820191906000526020600020905b81546001600160a01b03168152600190910190602001808311610ea1575b50505050509050945094509450945094509091929394565b60033360009081526001602052604090205460ff166003811115610f0b57634e487b7160e01b600052602160045260246000fd5b1480610f48575060023360009081526001602052604090205460ff166003811115610f4657634e487b7160e01b600052602160045260246000fd5b145b610f645760405162461bcd60e51b815260040161050490612b82565b6000805460ff166002811115610f8a57634e487b7160e01b600052602160045260246000fd5b1415610fa85760405162461bcd60e51b815260040161050490612b5c565b600b55565b60033360009081526001602052604090205460ff166003811115610fe157634e487b7160e01b600052602160045260246000fd5b148061101e575060023360009081526001602052604090205460ff16600381111561101c57634e487b7160e01b600052602160045260246000fd5b145b61103a5760405162461bcd60e51b815260040161050490612b82565b6001600160a01b0381161561109557600780546001810182556000919091527fa66cc928b5edb82af9bd49922954155ab7b0942694bea4ce44661d9a8736c6880180546001600160a01b0319166001600160a01b0383161790555b50565b60033360009081526001602052604090205460ff1660038111156110cc57634e487b7160e01b600052602160045260246000fd5b146110e95760405162461bcd60e51b815260040161050490612bb2565b6001600160a01b0381166000908152600160205260409020805460ff191660029081179091556111199082612105565b506040516001600160a01b038216907fa9a7c7349a30f65af7f87f8a23d0da181d3893dbefd512dec8ffc6e7790c464190600090a250565b60008060005460ff16600281111561117957634e487b7160e01b600052602160045260246000fd5b14156111975760405162461bcd60e51b815260040161050490612b5c565b506001600160a01b031660009081526001602052604090205460ff1690565b60033360009081526001602052604090205460ff1660038111156111ea57634e487b7160e01b600052602160045260246000fd5b146112075760405162461bcd60e51b815260040161050490612bb2565b33600081815260016020526040808220805460ff199081169091556001600160a01b038516808452828420805490921660031790915590519092917f1c3c3d32752a939db9ac720da757226033136f4b2c9878c337e09f5c85b108da91a350565b60033360009081526001602052604090205460ff16600381111561129c57634e487b7160e01b600052602160045260246000fd5b146112b95760405162461bcd60e51b815260040161050490612bb2565b60036001600160a01b03821660009081526001602052604090205460ff1660038111156112f657634e487b7160e01b600052602160045260246000fd5b141561133a5760405162461bcd60e51b815260206004820152601360248201527221b0b73737ba103932b6b7bb329027bbb732b960691b6044820152606401610504565b6001600160a01b0381166000908152600160205260409020805460ff1916905561136560028261211a565b506040516001600160a01b03821681527fcd3f95f831cb2c97a6ed5610a14d1e4ee42e401df748e978264bc6e040c3a8d79060200160405180910390a150565b60033360009081526001602052604090205460ff1660038111156113d957634e487b7160e01b600052602160045260246000fd5b146113f65760405162461bcd60e51b815260040161050490612bb2565b6000805460ff16600281111561141c57634e487b7160e01b600052602160045260246000fd5b141561143a5760405162461bcd60e51b815260040161050490612b5c565b600d80546001600160a01b0319166001600160a01b0392909216919091179055565b60008060005460ff16600281111561148457634e487b7160e01b600052602160045260246000fd5b14156114a25760405162461bcd60e51b815260040161050490612b5c565b6001600160a01b038316600090815260096020526040902054600a546114d59082906114cf90869061212f565b9061213b565b9150505b92915050565b6000805460ff16600281111561150557634e487b7160e01b600052602160045260246000fd5b14156115235760405162461bcd60e51b815260040161050490612b5c565b60033360009081526001602052604090205460ff16600381111561155757634e487b7160e01b600052602160045260246000fd5b1480611594575060023360009081526001602052604090205460ff16600381111561159257634e487b7160e01b600052602160045260246000fd5b145b6115b05760405162461bcd60e51b815260040161050490612b82565b600160005460ff1660028111156115d757634e487b7160e01b600052602160045260246000fd5b146115f45760405162461bcd60e51b815260040161050490612b25565b6001600160a01b038216600090815260056020908152604080832084845290915290206002600682015460ff16600381111561164057634e487b7160e01b600052602160045260246000fd5b141561168e5760405162461bcd60e51b815260206004820152601b60248201527f5472616e73616374696f6e20416c72656164792048616e646c656400000000006044820152606401610504565b600181015460028201546001600160a01b0391821691166116e85760038201546040516001600160a01b0383169180156108fc02916000818181858888f193505050501580156116e2573d6000803e3d6000fd5b50611709565b60038201546002830154611709916001600160a01b03909116908390612147565b60068201805460ff191660031790556040516001600160a01b0385169084907f58bbc8111a9e18236108fd18563b636e036818ce561ad042c64765acaf27208990600090a350505050565b61175c61284b565b6000805460ff16600281111561178257634e487b7160e01b600052602160045260246000fd5b14156117a05760405162461bcd60e51b815260040161050490612b5c565b6001600160a01b0383166000908152600560209081526040808320858452909152812090600682015460ff1660038111156117eb57634e487b7160e01b600052602160045260246000fd5b14156118315760405162461bcd60e51b8152602060048201526015602482015274151c985b9cd858dd1a5bdb88139bdd08119bdd5b99605a1b6044820152606401610504565b6040805160e0810182528254815260018301546001600160a01b03908116602083015260028401541691810191909152600380830154606083015260048301546080830152600583015460a08301526006830154839160c084019160ff16908111156118ad57634e487b7160e01b600052602160045260246000fd5b60038111156118cc57634e487b7160e01b600052602160045260246000fd5b905250949350505050565b6000805460ff1660028111156118fd57634e487b7160e01b600052602160045260246000fd5b141561191b5760405162461bcd60e51b815260040161050490612b5c565b60033360009081526001602052604090205460ff16600381111561194f57634e487b7160e01b600052602160045260246000fd5b1461196c5760405162461bcd60e51b815260040161050490612bb2565b6000805482919060ff1916600183600281111561199957634e487b7160e01b600052602160045260246000fd5b021790555050565b60008060005460ff1660028111156119c957634e487b7160e01b600052602160045260246000fd5b14156119e75760405162461bcd60e51b815260040161050490612b5c565b6114d96008546114cf600a548561212f90919063ffffffff16565b6000805460ff166002811115611a2857634e487b7160e01b600052602160045260246000fd5b1415611a465760405162461bcd60e51b815260040161050490612b5c565b60033360009081526001602052604090205460ff166003811115611a7a57634e487b7160e01b600052602160045260246000fd5b1480611ab7575060023360009081526001602052604090205460ff166003811115611ab557634e487b7160e01b600052602160045260246000fd5b145b611ad35760405162461bcd60e51b815260040161050490612b82565b600855565b6000611afd8686868686600460019054906101000a90046001600160a01b03166121aa565b9050808714611b465760405162461bcd60e51b8152602060048201526015602482015274151c985b9cd858dd1a5bdb881b9bdd08199bdd5b99605a1b6044820152606401610504565b60026001600160a01b03871660009081526005602090815260408083208b845290915290206006015460ff166003811115611b9157634e487b7160e01b600052602160045260246000fd5b1415611bdf5760405162461bcd60e51b815260206004820152601b60248201527f5472616e73616374696f6e20416c72656164792048616e646c656400000000006044820152606401610504565b611be761284b565b4260a08201526001600160a01b0387166020820152600260c08201818152505084816060018181525050838160800181815250508581604001906001600160a01b031690816001600160a01b031681525050878160000181815250508060056000896001600160a01b03166001600160a01b0316815260200190815260200160002060008a81526020019081526020016000206000820151816000015560208201518160010160006101000a8154816001600160a01b0302191690836001600160a01b0316021790555060408201518160020160006101000a8154816001600160a01b0302191690836001600160a01b03160217905550606082015181600301556080820151816004015560a0820151816005015560c08201518160060160006101000a81548160ff02191690836003811115611d3457634e487b7160e01b600052602160045260246000fd5b021790555050506001600160a01b038716600090815260066020908152604082208054600181018255908352912001889055868415611de15760408201516001600160a01b0316611dbb576040516001600160a01b0382169086156108fc029087906000818181858888f19350505050158015611db5573d6000803e3d6000fd5b50611de1565b611de181836060015184604001516001600160a01b03166121479092919063ffffffff16565b602082015182516040516001600160a01b03909216917f35c75649ae52e42b058a659eca870f6cafed044a1ea633ad3bad0755684e620790600090a3505050505050505050565b6001600160a01b03821615611e5557611e4082612217565b611e556001600160a01b0383163330846122ca565b611e5d61284b565b4260a0820152336020820152600160c082015260608101829052600c54600b54600091611e8f916114cf90869061212f565b90506000611e9d8483612302565b90508115611f47576001600160a01b038516611ef657600d546040516001600160a01b0390911690819084156108fc029085906000818181858888f19350505050158015611eef573d6000803e3d6000fd5b5050611f47565b600d54611f12906001600160a01b03878116911660001961230e565b600d54611f2c906001600160a01b03878116911684612147565b600d54611f47906001600160a01b038781169116600061230e565b6008546001600160a01b03861615611f7457506001600160a01b0385166000908152600960205260409020545b611f8d816114cf600a548561212f90919063ffffffff16565b608085018190526001600160a01b0380881660408701819052606087015160a0880151600454611fc79533959092916101009004166121aa565b8452336000908152600560208181526040808420885185528252928390208751815590870151600180830180546001600160a01b039384166001600160a01b0319918216179091559489015160028401805491909316951694909417905560608701516003808301919091556080880151600483015560a08801519282019290925560c0870151600682018054899593949293919260ff199091169190849081111561208357634e487b7160e01b600052602160045260246000fd5b021790555050336000908152600660209081526040808320885181546001810183559185528385209091015590870151875191516001600160a01b03909116935090917f1c853578f92a74725f8c21cf78fffb46696e0a5035aeff076962a76a7a2c85fa91a3505050505050565b606060006120fe83612432565b9392505050565b60006120fe836001600160a01b03841661248c565b60006120fe836001600160a01b0384166124db565b60006120fe8284612c5d565b60006120fe8284612c3d565b6040516001600160a01b038316602482015260448101829052610d5490849063a9059cbb60e01b906064015b60408051601f198184030181529190526020810180516001600160e01b03166001600160e01b0319909316929092179091526125f8565b6040516bffffffffffffffffffffffff19606088811b8216602084015287811b8216603484015260488301879052606883018690526088830185905283901b1660a882015260009060bc016040516020818303038152906040528051906020012090509695505050505050565b6000805b60075481101561227c576007818154811061224657634e487b7160e01b600052603260045260246000fd5b6000918252602090912001546001600160a01b038481169116141561226a57505050565b8061227481612cbf565b91505061221b565b50806109405760405162461bcd60e51b815260206004820152601960248201527f546f6b656e206973206e6f7420696e2077686974656c697374000000000000006044820152606401610504565b6040516001600160a01b0380851660248301528316604482015260648101829052610cce9085906323b872dd60e01b90608401612173565b60006120fe8284612c7c565b8015806123975750604051636eb1769f60e11b81523060048201526001600160a01b03838116602483015284169063dd62ed3e9060440160206040518083038186803b15801561235d57600080fd5b505afa158015612371573d6000803e3d6000fd5b505050506040513d601f19601f8201168201806040525081019061239591906129bf565b155b6124025760405162461bcd60e51b815260206004820152603660248201527f5361666545524332303a20617070726f76652066726f6d206e6f6e2d7a65726f60448201527520746f206e6f6e2d7a65726f20616c6c6f77616e636560501b6064820152608401610504565b6040516001600160a01b038316602482015260448101829052610d5490849063095ea7b360e01b90606401612173565b606081600001805480602002602001604051908101604052809291908181526020018280548015610b6a5760200282019190600052602060002090815481526020019060010190808311610b565750505050509050919050565b60008181526001830160205260408120546124d3575081546001818101845560008481526020808220909301849055845484825282860190935260409020919091556114d9565b5060006114d9565b600081815260018301602052604081205480156125ee5760006124ff600183612c7c565b855490915060009061251390600190612c7c565b905081811461259457600086600001828154811061254157634e487b7160e01b600052603260045260246000fd5b906000526020600020015490508087600001848154811061257257634e487b7160e01b600052603260045260246000fd5b6000918252602080832090910192909255918252600188019052604090208390555b85548690806125b357634e487b7160e01b600052603160045260246000fd5b6001900381819060005260206000200160009055905585600101600086815260200190815260200160002060009055600193505050506114d9565b60009150506114d9565b600061264d826040518060400160405280602081526020017f5361666545524332303a206c6f772d6c6576656c2063616c6c206661696c6564815250856001600160a01b03166126ca9092919063ffffffff16565b805190915015610d54578080602001905181019061266b9190612911565b610d545760405162461bcd60e51b815260206004820152602a60248201527f5361666545524332303a204552433230206f7065726174696f6e20646964206e6044820152691bdd081cdd58d8d9595960b21b6064820152608401610504565b60606126d984846000856126e1565b949350505050565b6060824710156127425760405162461bcd60e51b815260206004820152602660248201527f416464726573733a20696e73756666696369656e742062616c616e636520666f6044820152651c8818d85b1b60d21b6064820152608401610504565b6001600160a01b0385163b6127995760405162461bcd60e51b815260206004820152601d60248201527f416464726573733a2063616c6c20746f206e6f6e2d636f6e74726163740000006044820152606401610504565b600080866001600160a01b031685876040516127b59190612a1a565b60006040518083038185875af1925050503d80600081146127f2576040519150601f19603f3d011682016040523d82523d6000602084013e6127f7565b606091505b5091509150612807828286612812565b979650505050505050565b606083156128215750816120fe565b8251156128315782518084602001fd5b8160405162461bcd60e51b81526004016105049190612af2565b6040805160e081018252600080825260208201819052918101829052606081018290526080810182905260a081018290529060c082015290565b80356001600160a01b0381168114610b7257600080fd5b6000602082840312156128ad578081fd5b6120fe82612885565b600080604083850312156128c8578081fd5b6128d183612885565b91506128df60208401612885565b90509250929050565b600080604083850312156128fa578182fd5b61290383612885565b946020939093013593505050565b600060208284031215612922578081fd5b815180151581146120fe578182fd5b60008060008060008060c08789031215612949578182fd5b8635955061295960208801612885565b945061296760408801612885565b9350606087013592506080870135915060a087013590509295509295509295565b600060208284031215612999578081fd5b8135600381106120fe578182fd5b6000602082840312156129b8578081fd5b5035919050565b6000602082840312156129d0578081fd5b5051919050565b6000815180845260208085019450808401835b83811015612a0f5781516001600160a01b0316875295820195908201906001016129ea565b509495945050505050565b60008251612a2c818460208701612c93565b9190910192915050565b6020815260006120fe60208301846129d7565b6020808252825182820181905260009190848201906040850190845b81811015612a8157835183529284019291840191600101612a65565b50909695505050505050565b60208101612a9a83612d06565b91905290565b612aa986612d06565b858152612ab585612d06565b84602082015283604082015260018060a01b038316606082015260a06080820152600061280760a08301846129d7565b60208101612a9a83612d16565b6020815260008251806020840152612b11816040850160208701612c93565b601f01601f19169190910160400192915050565b60208082526017908201527f436f6e7472616374206973206e6f742072756e6e696e67000000000000000000604082015260600190565b6020808252600c908201526b139bdd081a5b9a5d081e595d60a21b604082015260600190565b60208082526016908201527527b7363c9027bbb732b91037b91027b832b930ba37b960511b604082015260600190565b6020808252600a908201526927b7363c9027bbb732b960b11b604082015260600190565b600060e08201905082518252602083015160018060a01b0380821660208501528060408601511660408501525050606083015160608301526080830151608083015260a083015160a083015260c0830151612c3081612d16565b8060c08401525092915050565b600082612c5857634e487b7160e01b81526012600452602481fd5b500490565b6000816000190483118215151615612c7757612c77612cda565b500290565b600082821015612c8e57612c8e612cda565b500390565b60005b83811015612cae578181015183820152602001612c96565b83811115610cce5750506000910152565b6000600019821415612cd357612cd3612cda565b5060010190565b634e487b7160e01b600052601160045260246000fd5b634e487b7160e01b600052602160045260246000fd5b6003811061109557611095612cf0565b6004811061109557611095612cf056fea26469706673582212204b31b44c488dfb9f1d8e4227e1806f5a329900b810433aecefde80c2039c4ea464736f6c63430008040033",
	"linkReferences": {},
	"deployedLinkReferences": {}
}