{
  "_format": "hh-sol-artifact-1",
  "contractName": "ETHExchangeSPC",
  "sourceName": "contracts/eth-spc/ETHExchangeSPC.sol",
  "abi": [
    {
      "type": "event",
      "name": "AddOperatorEvent",
      "inputs": [
        {
          "type": "address",
          "name": "operator",
          "internalType": "address",
          "indexed": true
        }
      ],
      "anonymous": false
    },
    {
      "type": "event",
      "name": "ChangeOwnerEvent",
      "inputs": [
        {
          "type": "address",
          "name": "oldOwner",
          "internalType": "address",
          "indexed": true
        },
        {
          "type": "address",
          "name": "newOwner",
          "internalType": "address",
          "indexed": true
        }
      ],
      "anonymous": false
    },
    {
      "type": "event",
      "name": "DepositTokenEvent",
      "inputs": [
        {
          "type": "bytes32",
          "name": "txnId",
          "internalType": "bytes32",
          "indexed": true
        },
        {
          "type": "address",
          "name": "sender",
          "internalType": "address",
          "indexed": true
        }
      ],
      "anonymous": false
    },
    {
      "type": "event",
      "name": "RemoveOperatorEvent",
      "inputs": [
        {
          "type": "address",
          "name": "operator",
          "internalType": "address",
          "indexed": false
        }
      ],
      "anonymous": false
    },
    {
      "type": "event",
      "name": "RevertTransactionEvent",
      "inputs": [
        {
          "type": "bytes32",
          "name": "txnId",
          "internalType": "bytes32",
          "indexed": true
        },
        {
          "type": "address",
          "name": "sender",
          "internalType": "address",
          "indexed": true
        }
      ],
      "anonymous": false
    },
    {
      "type": "event",
      "name": "SPC2OtherEvent",
      "inputs": [
        {
          "type": "bytes32",
          "name": "txnId",
          "internalType": "bytes32",
          "indexed": true
        },
        {
          "type": "address",
          "name": "sender",
          "internalType": "address",
          "indexed": true
        }
      ],
      "anonymous": false
    },
    {
      "type": "event",
      "name": "SPC2TokenEvent",
      "inputs": [
        {
          "type": "bytes32",
          "name": "txnId",
          "internalType": "bytes32",
          "indexed": true
        },
        {
          "type": "address",
          "name": "sender",
          "internalType": "address",
          "indexed": true
        }
      ],
      "anonymous": false
    },
    {
      "type": "event",
      "name": "WithdrawTokenEvent",
      "inputs": [
        {
          "type": "bytes32",
          "name": "txnId",
          "internalType": "bytes32",
          "indexed": true
        },
        {
          "type": "address",
          "name": "sender",
          "internalType": "address",
          "indexed": true
        }
      ],
      "anonymous": false
    },
    {
      "type": "function",
      "stateMutability": "payable",
      "outputs": [],
      "name": "SPCToOther",
      "inputs": []
    },
    {
      "type": "function",
      "stateMutability": "payable",
      "outputs": [],
      "name": "SPCToToken",
      "inputs": [
        {
          "type": "address",
          "name": "ethTokenAddress",
          "internalType": "address"
        }
      ]
    },
    {
      "type": "function",
      "stateMutability": "view",
      "outputs": [
        {
          "type": "uint8",
          "name": "",
          "internalType": "enum ExchangeBase.ContractStatus"
        }
      ],
      "name": "_status",
      "inputs": []
    },
    {
      "type": "function",
      "stateMutability": "nonpayable",
      "outputs": [],
      "name": "addOperator",
      "inputs": [
        {
          "type": "address",
          "name": "op",
          "internalType": "address"
        }
      ]
    },
    {
      "type": "function",
      "stateMutability": "nonpayable",
      "outputs": [],
      "name": "addWhitelistToken",
      "inputs": [
        {
          "type": "address",
          "name": "token",
          "internalType": "address"
        }
      ]
    },
    {
      "type": "function",
      "stateMutability": "nonpayable",
      "outputs": [],
      "name": "changeOwner",
      "inputs": [
        {
          "type": "address",
          "name": "newOwner",
          "internalType": "address"
        }
      ]
    },
    {
      "type": "function",
      "stateMutability": "view",
      "outputs": [
        {
          "type": "address[]",
          "name": "",
          "internalType": "address[]"
        }
      ],
      "name": "getInternalUsers",
      "inputs": []
    },
    {
      "type": "function",
      "stateMutability": "view",
      "outputs": [
        {
          "type": "uint8",
          "name": "status",
          "internalType": "enum ExchangeBase.ContractStatus"
        },
        {
          "type": "uint8",
          "name": "chainId",
          "internalType": "enum ExchangeBase.ChainId"
        },
        {
          "type": "uint256",
          "name": "fee",
          "internalType": "uint256"
        },
        {
          "type": "address",
          "name": "feeAddress",
          "internalType": "address"
        },
        {
          "type": "address[]",
          "name": "whitelist",
          "internalType": "address[]"
        },
        {
          "type": "address[]",
          "name": "operator",
          "internalType": "address[]"
        }
      ],
      "name": "getMetadata",
      "inputs": []
    },
    {
      "type": "function",
      "stateMutability": "view",
      "outputs": [
        {
          "type": "uint256",
          "name": "",
          "internalType": "uint256"
        }
      ],
      "name": "getNativePrice",
      "inputs": []
    },
    {
      "type": "function",
      "stateMutability": "view",
      "outputs": [
        {
          "type": "uint256",
          "name": "",
          "internalType": "uint256"
        }
      ],
      "name": "getNativeTokenReturns",
      "inputs": [
        {
          "type": "uint256",
          "name": "amount",
          "internalType": "uint256"
        }
      ]
    },
    {
      "type": "function",
      "stateMutability": "view",
      "outputs": [
        {
          "type": "bytes32[]",
          "name": "",
          "internalType": "bytes32[]"
        }
      ],
      "name": "getPendingTransactionByUser",
      "inputs": [
        {
          "type": "address",
          "name": "user",
          "internalType": "address"
        }
      ]
    },
    {
      "type": "function",
      "stateMutability": "view",
      "outputs": [
        {
          "type": "uint8",
          "name": "",
          "internalType": "enum ExchangeBase.Role"
        }
      ],
      "name": "getRoleByUser",
      "inputs": [
        {
          "type": "address",
          "name": "user",
          "internalType": "address"
        }
      ]
    },
    {
      "type": "function",
      "stateMutability": "view",
      "outputs": [
        {
          "type": "address",
          "name": "",
          "internalType": "address"
        }
      ],
      "name": "getSecretAddress",
      "inputs": []
    },
    {
      "type": "function",
      "stateMutability": "view",
      "outputs": [
        {
          "type": "uint256",
          "name": "",
          "internalType": "uint256"
        }
      ],
      "name": "getTokenPrice",
      "inputs": [
        {
          "type": "address",
          "name": "tokenAddress",
          "internalType": "address"
        }
      ]
    },
    {
      "type": "function",
      "stateMutability": "view",
      "outputs": [
        {
          "type": "uint256",
          "name": "",
          "internalType": "uint256"
        }
      ],
      "name": "getTokenReturnsBySPC",
      "inputs": [
        {
          "type": "address",
          "name": "ethTokenAddress",
          "internalType": "address"
        },
        {
          "type": "uint256",
          "name": "amount",
          "internalType": "uint256"
        }
      ]
    },
    {
      "type": "function",
      "stateMutability": "view",
      "outputs": [
        {
          "type": "tuple",
          "name": "",
          "internalType": "struct ExchangeBase.Transaction",
          "components": [
            {
              "type": "bytes32",
              "name": "txnId",
              "internalType": "bytes32"
            },
            {
              "type": "address",
              "name": "sender",
              "internalType": "address"
            },
            {
              "type": "address",
              "name": "tokenAddress",
              "internalType": "address"
            },
            {
              "type": "uint256",
              "name": "tokenAmount",
              "internalType": "uint256"
            },
            {
              "type": "uint256",
              "name": "outputAmount",
              "internalType": "uint256"
            },
            {
              "type": "uint256",
              "name": "actionTime",
              "internalType": "uint256"
            },
            {
              "type": "uint8",
              "name": "status",
              "internalType": "enum ExchangeBase.TxnStatus"
            }
          ]
        }
      ],
      "name": "getTransactionInfo",
      "inputs": [
        {
          "type": "address",
          "name": "user",
          "internalType": "address"
        },
        {
          "type": "bytes32",
          "name": "transactionId",
          "internalType": "bytes32"
        }
      ]
    },
    {
      "type": "function",
      "stateMutability": "nonpayable",
      "outputs": [],
      "name": "initialize",
      "inputs": [
        {
          "type": "address",
          "name": "secret",
          "internalType": "address"
        },
        {
          "type": "address",
          "name": "feeAddress",
          "internalType": "address"
        }
      ]
    },
    {
      "type": "function",
      "stateMutability": "nonpayable",
      "outputs": [],
      "name": "markCompleteTransaction",
      "inputs": [
        {
          "type": "address",
          "name": "sender",
          "internalType": "address"
        },
        {
          "type": "bytes32",
          "name": "transId",
          "internalType": "bytes32"
        }
      ]
    },
    {
      "type": "function",
      "stateMutability": "nonpayable",
      "outputs": [],
      "name": "removeOperator",
      "inputs": [
        {
          "type": "address",
          "name": "op",
          "internalType": "address"
        }
      ]
    },
    {
      "type": "function",
      "stateMutability": "nonpayable",
      "outputs": [],
      "name": "removeTokenInWhitelist",
      "inputs": [
        {
          "type": "address",
          "name": "tokenAddress",
          "internalType": "address"
        }
      ]
    },
    {
      "type": "function",
      "stateMutability": "nonpayable",
      "outputs": [],
      "name": "setAdminFee",
      "inputs": [
        {
          "type": "uint256",
          "name": "adminFee",
          "internalType": "uint256"
        }
      ]
    },
    {
      "type": "function",
      "stateMutability": "nonpayable",
      "outputs": [],
      "name": "setAdminFeeAddress",
      "inputs": [
        {
          "type": "address",
          "name": "adminFeeAddress",
          "internalType": "address"
        }
      ]
    },
    {
      "type": "function",
      "stateMutability": "nonpayable",
      "outputs": [],
      "name": "setNativeTokenPrice",
      "inputs": [
        {
          "type": "uint256",
          "name": "price",
          "internalType": "uint256"
        }
      ]
    },
    {
      "type": "function",
      "stateMutability": "nonpayable",
      "outputs": [],
      "name": "setTokenPrice",
      "inputs": [
        {
          "type": "address",
          "name": "ethTokenAddress",
          "internalType": "address"
        },
        {
          "type": "uint256",
          "name": "price",
          "internalType": "uint256"
        }
      ]
    },
    {
      "type": "function",
      "stateMutability": "nonpayable",
      "outputs": [],
      "name": "updateContractStatus",
      "inputs": [
        {
          "type": "uint8",
          "name": "newStatus",
          "internalType": "enum ExchangeBase.ContractStatus"
        }
      ]
    },
    {
      "type": "function",
      "stateMutability": "payable",
      "outputs": [
        {
          "type": "bool",
          "name": "",
          "internalType": "bool"
        }
      ],
      "name": "withdrawSPC",
      "inputs": [
        {
          "type": "bytes32",
          "name": "txnId",
          "internalType": "bytes32"
        },
        {
          "type": "address",
          "name": "sender",
          "internalType": "address"
        },
        {
          "type": "address",
          "name": "tokenAddress",
          "internalType": "address"
        },
        {
          "type": "uint256",
          "name": "amount",
          "internalType": "uint256"
        },
        {
          "type": "uint256",
          "name": "outputAmount",
          "internalType": "uint256"
        },
        {
          "type": "uint256",
          "name": "actionTime",
          "internalType": "uint256"
        }
      ]
    },
    {
      "type": "function",
      "stateMutability": "nonpayable",
      "outputs": [],
      "name": "withdrawTokenFromContract",
      "inputs": [
        {
          "type": "address",
          "name": "tokenAddress",
          "internalType": "address"
        },
        {
          "type": "uint256",
          "name": "amount",
          "internalType": "uint256"
        }
      ]
    },
    {
      "type": "receive",
      "stateMutability": "payable"
    }
  ],
  "bytecode": "0x60806040526000805460ff19168155620f4240600855633b9aca00600a55600b55612710600c5534801561003257600080fd5b506004805460ff1916905561271d8061004c6000396000f3fe60806040526004361061014f5760003560e01c80639168083c116100b6578063aefa8b8c1161006f578063aefa8b8c146103ed578063afef042614610400578063b7e1338514610420578063ca6f225f14610428578063d88c520a14610455578063e99914b51461047557600080fd5b80639168083c146103205780639571eae8146103405780639870d7fe146103605780639c832bf514610380578063a6f9dae1146103ad578063ac8a584a146103cd57600080fd5b8063485cc95511610108578063485cc9551461025557806358ed4ba3146102755780636f4d96ca146102955780637a5b4f59146102b75780637c87f2e3146102dd5780638beb60b61461030057600080fd5b80630ec32ce81461015b5780630fb3844c1461017d5780632c1294dd146101ad5780632dc0873c146101db578063431f63c914610208578063441835dd1461022857600080fd5b3661015657005b600080fd5b34801561016757600080fd5b5061017b610176366004612331565b610495565b005b34801561018957600080fd5b506000546101979060ff1681565b6040516101a491906124a2565b60405180910390f35b3480156101b957600080fd5b506101cd6101c83660046123f0565b6106ac565b6040519081526020016101a4565b3480156101e757600080fd5b506101f061071b565b6040516001600160a01b0390911681526020016101a4565b34801561021457600080fd5b5061017b610223366004612331565b6107c7565b34801561023457600080fd5b506102486102433660046122e5565b6108b4565b6040516101a4919061245e565b34801561026157600080fd5b5061017b6102703660046122ff565b610964565b34801561028157600080fd5b5061017b610290366004612331565b610a2d565b3480156102a157600080fd5b506102aa610b47565b6040516101a4919061244b565b3480156102c357600080fd5b506102cc610bed565b6040516101a49594939291906124b5565b6102f06102eb36600461237a565b610cc5565b60405190151581526020016101a4565b34801561030c57600080fd5b5061017b61031b3660046123f0565b6110f5565b34801561032c57600080fd5b5061017b61033b3660046122e5565b6111cb565b34801561034c57600080fd5b506101cd61035b366004612331565b6112b6565b34801561036c57600080fd5b5061017b61037b3660046122e5565b611330565b34801561038c57600080fd5b506103a061039b3660046122e5565b6113e9565b6040516101a49190612505565b3480156103b957600080fd5b5061017b6103c83660046122e5565b61144e565b3480156103d957600080fd5b5061017b6103e83660046122e5565b611500565b61017b6103fb3660046122e5565b61163d565b34801561040c57600080fd5b5061017b61041b3660046122e5565b6118e3565b61017b61199a565b34801561043457600080fd5b50610448610443366004612331565b611c29565b6040516101a491906125c3565b34801561046157600080fd5b5061017b6104703660046123d1565b611dac565b34801561048157600080fd5b5061017b6104903660046123f0565b611e76565b6000805460ff1660028111156104bb57634e487b7160e01b600052602160045260246000fd5b14156104e25760405162461bcd60e51b81526004016104d990612549565b60405180910390fd5b600160005460ff16600281111561050957634e487b7160e01b600052602160045260246000fd5b146105265760405162461bcd60e51b81526004016104d990612512565b60033360009081526001602052604090205460ff16600381111561055a57634e487b7160e01b600052602160045260246000fd5b1480610597575060023360009081526001602052604090205460ff16600381111561059557634e487b7160e01b600052602160045260246000fd5b145b6105b35760405162461bcd60e51b81526004016104d99061256f565b6001600160a01b0382166000908152600560209081526040808320848452909152812090600682015460ff1660038111156105fe57634e487b7160e01b600052602160045260246000fd5b14156106445760405162461bcd60e51b8152602060048201526015602482015274151c985b9cd858dd1a5bdb88139bdd08119bdd5b99605a1b60448201526064016104d9565b506001600160a01b0390911660009081526005602081815260408084209484529390529181208181556001810180546001600160a01b03199081169091556002820180549091169055600381018290556004810182905591820155600601805460ff19169055565b60008060005460ff1660028111156106d457634e487b7160e01b600052602160045260246000fd5b14156106f25760405162461bcd60e51b81526004016104d990612549565b610713600a5461070d60085485611f4c90919063ffffffff16565b90611f5f565b90505b919050565b60008060005460ff16600281111561074357634e487b7160e01b600052602160045260246000fd5b14156107615760405162461bcd60e51b81526004016104d990612549565b60033360009081526001602052604090205460ff16600381111561079557634e487b7160e01b600052602160045260246000fd5b146107b25760405162461bcd60e51b81526004016104d99061259f565b5060045461010090046001600160a01b031690565b6000805460ff1660028111156107ed57634e487b7160e01b600052602160045260246000fd5b141561080b5760405162461bcd60e51b81526004016104d990612549565b60033360009081526001602052604090205460ff16600381111561083f57634e487b7160e01b600052602160045260246000fd5b148061087c575060023360009081526001602052604090205460ff16600381111561087a57634e487b7160e01b600052602160045260246000fd5b145b6108985760405162461bcd60e51b81526004016104d99061256f565b6001600160a01b03909116600090815260096020526040902055565b60606000805460ff1660028111156108dc57634e487b7160e01b600052602160045260246000fd5b14156108fa5760405162461bcd60e51b81526004016104d990612549565b6001600160a01b0382166000908152600660209081526040918290208054835181840281018401909452808452909183018282801561095857602002820191906000526020600020905b815481526020019060010190808311610944575b50505050509050919050565b6000805460ff16600281111561098a57634e487b7160e01b600052602160045260246000fd5b146109cd5760405162461bcd60e51b8152602060048201526013602482015272105b1c9958591e481a5b9a5d1a585b1a5e9959606a1b60448201526064016104d9565b33600090815260016020819052604082208054600360ff199182161790915582541617815560048054610100600160a81b0319166101006001600160a01b0395861602179055600b55600d80546001600160a01b03191691909216179055565b60033360009081526001602052604090205460ff166003811115610a6157634e487b7160e01b600052602160045260246000fd5b14610a7e5760405162461bcd60e51b81526004016104d99061259f565b6001600160a01b038216610ac1576040513390819083156108fc029084906000818181858888f19350505050158015610abb573d6000803e3d6000fd5b50505050565b60405163a9059cbb60e01b8152336004820152602481018290526001600160a01b0383169063a9059cbb90604401602060405180830381600087803b158015610b0957600080fd5b505af1158015610b1d573d6000803e3d6000fd5b505050506040513d601f19601f82011682018060405250810190610b41919061235a565b505b5050565b60606000805460ff166002811115610b6f57634e487b7160e01b600052602160045260246000fd5b1415610b8d5760405162461bcd60e51b81526004016104d990612549565b60033360009081526001602052604090205460ff166003811115610bc157634e487b7160e01b600052602160045260246000fd5b14610bde5760405162461bcd60e51b81526004016104d99061259f565b610be86002611f6b565b905090565b600080808060608160005460ff166002811115610c1a57634e487b7160e01b600052602160045260246000fd5b1415610c385760405162461bcd60e51b81526004016104d990612549565b600054600454600b54600d54600780546040805160208084028201810190925282815260ff97881697909616956001600160a01b0390941693918391830182828015610cad57602002820191906000526020600020905b81546001600160a01b03168152600190910190602001808311610c8f575b50505050509050945094509450945094509091929394565b600060033360009081526001602052604090205460ff166003811115610cfb57634e487b7160e01b600052602160045260246000fd5b1480610d38575060023360009081526001602052604090205460ff166003811115610d3657634e487b7160e01b600052602160045260246000fd5b145b610d545760405162461bcd60e51b81526004016104d99061256f565b6000805460ff166002811115610d7a57634e487b7160e01b600052602160045260246000fd5b1415610d985760405162461bcd60e51b81526004016104d990612549565b600160005460ff166002811115610dbf57634e487b7160e01b600052602160045260246000fd5b14610ddc5760405162461bcd60e51b81526004016104d990612512565b6000610e018787878787600460019054906101000a90046001600160a01b0316611f78565b9050808814610e4a5760405162461bcd60e51b8152602060048201526015602482015274151c985b9cd858dd1a5bdb881b9bdd08199bdd5b99605a1b60448201526064016104d9565b60026001600160a01b03881660009081526005602090815260408083208c845290915290206006015460ff166003811115610e9557634e487b7160e01b600052602160045260246000fd5b1415610ee35760405162461bcd60e51b815260206004820152601b60248201527f5472616e73616374696f6e20416c72656164792048616e646c6564000000000060448201526064016104d9565b610eeb612294565b4260a08201526001600160a01b0388166020820152600260c08201818152505085816060018181525050848160800181815250508681604001906001600160a01b031690816001600160a01b0316815250508881600001818152505080600560008a6001600160a01b03166001600160a01b0316815260200190815260200160002060008b81526020019081526020016000206000820151816000015560208201518160010160006101000a8154816001600160a01b0302191690836001600160a01b0316021790555060408201518160020160006101000a8154816001600160a01b0302191690836001600160a01b03160217905550606082015181600301556080820151816004015560a0820151816005015560c08201518160060160006101000a81548160ff0219169083600381111561103857634e487b7160e01b600052602160045260246000fd5b021790555050506001600160a01b0388166000908152600660209081526040822080546001810182559083529120018990558785156110a9576040516001600160a01b0382169087156108fc029088906000818181858888f193505050501580156110a7573d6000803e3d6000fd5b505b602082015182516040516001600160a01b03909216917f35c75649ae52e42b058a659eca870f6cafed044a1ea633ad3bad0755684e620790600090a35060019998505050505050505050565b60033360009081526001602052604090205460ff16600381111561112957634e487b7160e01b600052602160045260246000fd5b1480611166575060023360009081526001602052604090205460ff16600381111561116457634e487b7160e01b600052602160045260246000fd5b145b6111825760405162461bcd60e51b81526004016104d99061256f565b6000805460ff1660028111156111a857634e487b7160e01b600052602160045260246000fd5b14156111c65760405162461bcd60e51b81526004016104d990612549565b600b55565b60033360009081526001602052604090205460ff1660038111156111ff57634e487b7160e01b600052602160045260246000fd5b148061123c575060023360009081526001602052604090205460ff16600381111561123a57634e487b7160e01b600052602160045260246000fd5b145b6112585760405162461bcd60e51b81526004016104d99061256f565b6001600160a01b038116156112b357600780546001810182556000919091527fa66cc928b5edb82af9bd49922954155ab7b0942694bea4ce44661d9a8736c6880180546001600160a01b0319166001600160a01b0383161790555b50565b60008060005460ff1660028111156112de57634e487b7160e01b600052602160045260246000fd5b14156112fc5760405162461bcd60e51b81526004016104d990612549565b6001600160a01b038316600090815260096020526040902054600a546113269061070d8584611f4c565b9150505b92915050565b60033360009081526001602052604090205460ff16600381111561136457634e487b7160e01b600052602160045260246000fd5b146113815760405162461bcd60e51b81526004016104d99061259f565b6001600160a01b0381166000908152600160205260409020805460ff191660029081179091556113b19082611fe5565b506040516001600160a01b038216907fa9a7c7349a30f65af7f87f8a23d0da181d3893dbefd512dec8ffc6e7790c464190600090a250565b60008060005460ff16600281111561141157634e487b7160e01b600052602160045260246000fd5b141561142f5760405162461bcd60e51b81526004016104d990612549565b506001600160a01b031660009081526001602052604090205460ff1690565b60033360009081526001602052604090205460ff16600381111561148257634e487b7160e01b600052602160045260246000fd5b1461149f5760405162461bcd60e51b81526004016104d99061259f565b33600081815260016020526040808220805460ff199081169091556001600160a01b038516808452828420805490921660031790915590519092917f1c3c3d32752a939db9ac720da757226033136f4b2c9878c337e09f5c85b108da91a350565b60033360009081526001602052604090205460ff16600381111561153457634e487b7160e01b600052602160045260246000fd5b146115515760405162461bcd60e51b81526004016104d99061259f565b60036001600160a01b03821660009081526001602052604090205460ff16600381111561158e57634e487b7160e01b600052602160045260246000fd5b14156115d25760405162461bcd60e51b815260206004820152601360248201527221b0b73737ba103932b6b7bb329027bbb732b960691b60448201526064016104d9565b6001600160a01b0381166000908152600160205260409020805460ff191690556115fd600282611ffa565b506040516001600160a01b03821681527fcd3f95f831cb2c97a6ed5610a14d1e4ee42e401df748e978264bc6e040c3a8d79060200160405180910390a150565b6000805460ff16600281111561166357634e487b7160e01b600052602160045260246000fd5b14156116815760405162461bcd60e51b81526004016104d990612549565b600160005460ff1660028111156116a857634e487b7160e01b600052602160045260246000fd5b146116c55760405162461bcd60e51b81526004016104d990612512565b6116ce8161200f565b6116d6612294565b4260a0820152336020820152600160c08201523460608201819052600c54600b54600092611709929161070d9190611f4c565b9050600061171734836120c2565b600d546040519192506001600160a01b031690819084156108fc029085906000818181858888f19350505050158015611754573d6000803e3d6000fd5b506001600160a01b038516600090815260096020526040902054600a5461177f9061070d8584611f4c565b608086018190526001600160a01b0380881660408801819052606088015160a08901516004546117b9953395909291610100900416611f78565b8552336000908152600560208181526040808420895185528252928390208851815590880151600180830180546001600160a01b039384166001600160a01b031991821617909155948a015160028401805491909316951694909417905560608801516003808301919091556080890151600483015560a08901519282019290925560c08801516006820180548a9593949293919260ff199091169190849081111561187557634e487b7160e01b600052602160045260246000fd5b021790555050336000908152600660209081526040808320895181546001810183559185528385209091015590880151885191516001600160a01b03909116935090917f6ed118bf29044e21eb7b2f4792b229d08882ef14904a4a020d75630c549e372991a3505050505050565b60033360009081526001602052604090205460ff16600381111561191757634e487b7160e01b600052602160045260246000fd5b146119345760405162461bcd60e51b81526004016104d99061259f565b6000805460ff16600281111561195a57634e487b7160e01b600052602160045260246000fd5b14156119785760405162461bcd60e51b81526004016104d990612549565b600d80546001600160a01b0319166001600160a01b0392909216919091179055565b6000805460ff1660028111156119c057634e487b7160e01b600052602160045260246000fd5b14156119de5760405162461bcd60e51b81526004016104d990612549565b600160005460ff166002811115611a0557634e487b7160e01b600052602160045260246000fd5b14611a225760405162461bcd60e51b81526004016104d990612512565b6000611a2c612294565b4260a0820152336020820152600160c08201523460608201819052600c54600b54600092611a5f929161070d9190611f4c565b90506000611a6d34836120c2565b600d546040519192506001600160a01b031690819084156108fc029085906000818181858888f19350505050158015611aaa573d6000803e3d6000fd5b50611ac6600a5461070d60085485611f4c90919063ffffffff16565b608085018190526001600160a01b0380871660408701819052606087015160a0880151600454611b00953395909291610100900416611f78565b8452336000908152600560208181526040808420885185528252928390208751815590870151600180830180546001600160a01b039384166001600160a01b0319918216179091559489015160028401805491909316951694909417905560608701516003808301919091556080880151600483015560a08801519282019290925560c0870151600682018054899593949293919260ff1990911691908490811115611bbc57634e487b7160e01b600052602160045260246000fd5b021790555050336000908152600660209081526040808320885181546001810183559185528385209091015590870151875191516001600160a01b03909116935090917f6ed118bf29044e21eb7b2f4792b229d08882ef14904a4a020d75630c549e372991a35050505050565b611c31612294565b6000805460ff166002811115611c5757634e487b7160e01b600052602160045260246000fd5b1415611c755760405162461bcd60e51b81526004016104d990612549565b6001600160a01b0383166000908152600560209081526040808320858452909152812090600682015460ff166003811115611cc057634e487b7160e01b600052602160045260246000fd5b1415611d065760405162461bcd60e51b8152602060048201526015602482015274151c985b9cd858dd1a5bdb88139bdd08119bdd5b99605a1b60448201526064016104d9565b6040805160e0810182528254815260018301546001600160a01b03908116602083015260028401541691810191909152600380830154606083015260048301546080830152600583015460a08301526006830154839160c084019160ff1690811115611d8257634e487b7160e01b600052602160045260246000fd5b6003811115611da157634e487b7160e01b600052602160045260246000fd5b905250949350505050565b6000805460ff166002811115611dd257634e487b7160e01b600052602160045260246000fd5b1415611df05760405162461bcd60e51b81526004016104d990612549565b60033360009081526001602052604090205460ff166003811115611e2457634e487b7160e01b600052602160045260246000fd5b14611e415760405162461bcd60e51b81526004016104d99061259f565b6000805482919060ff19166001836002811115611e6e57634e487b7160e01b600052602160045260246000fd5b021790555050565b6000805460ff166002811115611e9c57634e487b7160e01b600052602160045260246000fd5b1415611eba5760405162461bcd60e51b81526004016104d990612549565b60033360009081526001602052604090205460ff166003811115611eee57634e487b7160e01b600052602160045260246000fd5b1480611f2b575060023360009081526001602052604090205460ff166003811115611f2957634e487b7160e01b600052602160045260246000fd5b145b611f475760405162461bcd60e51b81526004016104d99061256f565b600855565b6000611f58828461264a565b9392505050565b6000611f58828461262a565b60606000611f58836120ce565b6040516bffffffffffffffffffffffff19606088811b8216602084015287811b8216603484015260488301879052606883018690526088830185905283901b1660a882015260009060bc016040516020818303038152906040528051906020012090509695505050505050565b6000611f58836001600160a01b038416612128565b6000611f58836001600160a01b038416612177565b6000805b600754811015612074576007818154811061203e57634e487b7160e01b600052603260045260246000fd5b6000918252602090912001546001600160a01b038481169116141561206257505050565b8061206c81612680565b915050612013565b5080610b435760405162461bcd60e51b815260206004820152601960248201527f546f6b656e206973206e6f7420696e2077686974656c6973740000000000000060448201526064016104d9565b6000611f588284612669565b60608160000180548060200260200160405190810160405280929190818152602001828054801561095857602002820191906000526020600020908154815260200190600101908083116109445750505050509050919050565b600081815260018301602052604081205461216f5750815460018181018455600084815260208082209093018490558454848252828601909352604090209190915561132a565b50600061132a565b6000818152600183016020526040812054801561228a57600061219b600183612669565b85549091506000906121af90600190612669565b90508181146122305760008660000182815481106121dd57634e487b7160e01b600052603260045260246000fd5b906000526020600020015490508087600001848154811061220e57634e487b7160e01b600052603260045260246000fd5b6000918252602080832090910192909255918252600188019052604090208390555b855486908061224f57634e487b7160e01b600052603160045260246000fd5b60019003818190600052602060002001600090559055856001016000868152602001908152602001600020600090556001935050505061132a565b600091505061132a565b6040805160e081018252600080825260208201819052918101829052606081018290526080810182905260a081018290529060c082015290565b80356001600160a01b038116811461071657600080fd5b6000602082840312156122f6578081fd5b611f58826122ce565b60008060408385031215612311578081fd5b61231a836122ce565b9150612328602084016122ce565b90509250929050565b60008060408385031215612343578182fd5b61234c836122ce565b946020939093013593505050565b60006020828403121561236b578081fd5b81518015158114611f58578182fd5b60008060008060008060c08789031215612392578182fd5b863595506123a2602088016122ce565b94506123b0604088016122ce565b9350606087013592506080870135915060a087013590509295509295509295565b6000602082840312156123e2578081fd5b813560038110611f58578182fd5b600060208284031215612401578081fd5b5035919050565b6000815180845260208085019450808401835b838110156124405781516001600160a01b03168752958201959082019060010161241b565b509495945050505050565b602081526000611f586020830184612408565b6020808252825182820181905260009190848201906040850190845b818110156124965783518352928401929184019160010161247a565b50909695505050505050565b602081016124af836126c7565b91905290565b6124be866126c7565b8581526124ca856126c7565b84602082015283604082015260018060a01b038316606082015260a0608082015260006124fa60a0830184612408565b979650505050505050565b602081016124af836126d7565b60208082526017908201527f436f6e7472616374206973206e6f742072756e6e696e67000000000000000000604082015260600190565b6020808252600c908201526b139bdd081a5b9a5d081e595d60a21b604082015260600190565b60208082526016908201527527b7363c9027bbb732b91037b91027b832b930ba37b960511b604082015260600190565b6020808252600a908201526927b7363c9027bbb732b960b11b604082015260600190565b600060e08201905082518252602083015160018060a01b0380821660208501528060408601511660408501525050606083015160608301526080830151608083015260a083015160a083015260c083015161261d816126d7565b8060c08401525092915050565b60008261264557634e487b7160e01b81526012600452602481fd5b500490565b60008160001904831182151516156126645761266461269b565b500290565b60008282101561267b5761267b61269b565b500390565b60006000198214156126945761269461269b565b5060010190565b634e487b7160e01b600052601160045260246000fd5b634e487b7160e01b600052602160045260246000fd5b600381106112b3576112b36126b1565b600481106112b3576112b36126b156fea26469706673582212206c1d7b3ff02c7921e008ac9b15cf02528878fd321702ddb3d0502843afb6dfc164736f6c63430008040033",
  "linkReferences": {},
  "deployedLinkReferences": {}
}