{
	"_format": "hh-sol-artifact-1",
	"contractName": "ETHExchange",
	"sourceName": "contracts/eth-spc/ETHExchange.sol",
	"abi": [
		{
			"inputs": [
				{
					"internalType": "string",
					"name": "name",
					"type": "string"
				},
				{
					"internalType": "string",
					"name": "symbol",
					"type": "string"
				},
				{
					"internalType": "uint8",
					"name": "decimals_",
					"type": "uint8"
				},
				{
					"internalType": "uint256",
					"name": "initialSupply",
					"type": "uint256"
				}
			],
			"stateMutability": "nonpayable",
			"type": "constructor"
		},
		{
			"anonymous": false,
			"inputs": [
				{
					"indexed": true,
					"internalType": "address",
					"name": "owner",
					"type": "address"
				},
				{
					"indexed": true,
					"internalType": "address",
					"name": "spender",
					"type": "address"
				},
				{
					"indexed": false,
					"internalType": "uint256",
					"name": "value",
					"type": "uint256"
				}
			],
			"name": "Approval",
			"type": "event"
		},
		{
			"anonymous": false,
			"inputs": [
				{
					"indexed": true,
					"internalType": "address",
					"name": "previousOwner",
					"type": "address"
				},
				{
					"indexed": true,
					"internalType": "address",
					"name": "newOwner",
					"type": "address"
				}
			],
			"name": "OwnershipTransferred",
			"type": "event"
		},
		{
			"anonymous": false,
			"inputs": [
				{
					"indexed": true,
					"internalType": "address",
					"name": "from",
					"type": "address"
				},
				{
					"indexed": true,
					"internalType": "address",
					"name": "to",
					"type": "address"
				},
				{
					"indexed": false,
					"internalType": "uint256",
					"name": "value",
					"type": "uint256"
				}
			],
			"name": "Transfer",
			"type": "event"
		},
		{
			"inputs": [
				{
					"internalType": "address",
					"name": "owner",
					"type": "address"
				},
				{
					"internalType": "address",
					"name": "spender",
					"type": "address"
				}
			],
			"name": "allowance",
			"outputs": [
				{
					"internalType": "uint256",
					"name": "",
					"type": "uint256"
				}
			],
			"stateMutability": "view",
			"type": "function"
		},
		{
			"inputs": [
				{
					"internalType": "address",
					"name": "spender",
					"type": "address"
				},
				{
					"internalType": "uint256",
					"name": "amount",
					"type": "uint256"
				}
			],
			"name": "approve",
			"outputs": [
				{
					"internalType": "bool",
					"name": "",
					"type": "bool"
				}
			],
			"stateMutability": "nonpayable",
			"type": "function"
		},
		{
			"inputs": [
				{
					"internalType": "address",
					"name": "account",
					"type": "address"
				}
			],
			"name": "balanceOf",
			"outputs": [
				{
					"internalType": "uint256",
					"name": "",
					"type": "uint256"
				}
			],
			"stateMutability": "view",
			"type": "function"
		},
		{
			"inputs": [
				{
					"internalType": "uint256",
					"name": "amount",
					"type": "uint256"
				}
			],
			"name": "burn",
			"outputs": [],
			"stateMutability": "nonpayable",
			"type": "function"
		},
		{
			"inputs": [],
			"name": "decimals",
			"outputs": [
				{
					"internalType": "uint8",
					"name": "",
					"type": "uint8"
				}
			],
			"stateMutability": "view",
			"type": "function"
		},
		{
			"inputs": [
				{
					"internalType": "address",
					"name": "spender",
					"type": "address"
				},
				{
					"internalType": "uint256",
					"name": "subtractedValue",
					"type": "uint256"
				}
			],
			"name": "decreaseAllowance",
			"outputs": [
				{
					"internalType": "bool",
					"name": "",
					"type": "bool"
				}
			],
			"stateMutability": "nonpayable",
			"type": "function"
		},
		{
			"inputs": [
				{
					"internalType": "address",
					"name": "spender",
					"type": "address"
				},
				{
					"internalType": "uint256",
					"name": "addedValue",
					"type": "uint256"
				}
			],
			"name": "increaseAllowance",
			"outputs": [
				{
					"internalType": "bool",
					"name": "",
					"type": "bool"
				}
			],
			"stateMutability": "nonpayable",
			"type": "function"
		},
		{
			"inputs": [],
			"name": "name",
			"outputs": [
				{
					"internalType": "string",
					"name": "",
					"type": "string"
				}
			],
			"stateMutability": "view",
			"type": "function"
		},
		{
			"inputs": [],
			"name": "owner",
			"outputs": [
				{
					"internalType": "address",
					"name": "",
					"type": "address"
				}
			],
			"stateMutability": "view",
			"type": "function"
		},
		{
			"inputs": [],
			"name": "renounceOwnership",
			"outputs": [],
			"stateMutability": "nonpayable",
			"type": "function"
		},
		{
			"inputs": [],
			"name": "symbol",
			"outputs": [
				{
					"internalType": "string",
					"name": "",
					"type": "string"
				}
			],
			"stateMutability": "view",
			"type": "function"
		},
		{
			"inputs": [],
			"name": "totalSupply",
			"outputs": [
				{
					"internalType": "uint256",
					"name": "",
					"type": "uint256"
				}
			],
			"stateMutability": "view",
			"type": "function"
		},
		{
			"inputs": [
				{
					"internalType": "address",
					"name": "to",
					"type": "address"
				},
				{
					"internalType": "uint256",
					"name": "amount",
					"type": "uint256"
				}
			],
			"name": "transfer",
			"outputs": [
				{
					"internalType": "bool",
					"name": "",
					"type": "bool"
				}
			],
			"stateMutability": "nonpayable",
			"type": "function"
		},
		{
			"inputs": [
				{
					"internalType": "address",
					"name": "from",
					"type": "address"
				},
				{
					"internalType": "address",
					"name": "to",
					"type": "address"
				},
				{
					"internalType": "uint256",
					"name": "amount",
					"type": "uint256"
				}
			],
			"name": "transferFrom",
			"outputs": [
				{
					"internalType": "bool",
					"name": "",
					"type": "bool"
				}
			],
			"stateMutability": "nonpayable",
			"type": "function"
		},
		{
			"inputs": [
				{
					"internalType": "address",
					"name": "newOwner",
					"type": "address"
				}
			],
			"name": "transferOwnership",
			"outputs": [],
			"stateMutability": "nonpayable",
			"type": "function"
		}
	],
	"bytecode": "0x60806040526000805460ff19168155620f4240600855633b9aca00600a55600b55612710600c5534801561003257600080fd5b506004805460ff19166001179055612d5c8061004f6000396000f3fe60806040526004361061016a5760003560e01c80639870d7fe116100d1578063b66659bf1161008a578063d88c520a11610064578063d88c520a14610458578063e0351a2f14610478578063e99914b514610498578063f6326fb3146104b857600080fd5b8063b66659bf146103dd578063bc8022ac1461040b578063ca6f225f1461042b57600080fd5b80639870d7fe1461031d5780639bd9dae21461033d5780639c832bf514610350578063a6f9dae11461037d578063ac8a584a1461039d578063afef0426146103bd57600080fd5b8063485cc95511610123578063485cc9551461025557806358ed4ba3146102755780636f4d96ca146102955780637a5b4f59146102b75780638beb60b6146102dd5780639168083c146102fd57600080fd5b80630ec32ce8146101765780630fb3844c146101985780632dc0873c146101c8578063338b5dea146101f5578063431f63c914610208578063441835dd1461022857600080fd5b3661017157005b600080fd5b34801561018257600080fd5b506101966101913660046128e8565b6104c0565b005b3480156101a457600080fd5b506000546101b29060ff1681565b6040516101bf9190612a8d565b60405180910390f35b3480156101d457600080fd5b506101dd6106d7565b6040516001600160a01b0390911681526020016101bf565b6101966102033660046128e8565b610783565b34801561021457600080fd5b506101966102233660046128e8565b610819565b34801561023457600080fd5b5061024861024336600461289c565b610906565b6040516101bf9190612a49565b34801561026157600080fd5b506101966102703660046128b6565b6109b7565b34801561028157600080fd5b506101966102903660046128e8565b610a80565b3480156102a157600080fd5b506102aa610b99565b6040516101bf9190612a36565b3480156102c357600080fd5b506102cc610c3f565b6040516101bf959493929190612aa0565b3480156102e957600080fd5b506101966102f83660046129a7565b610d17565b34801561030957600080fd5b5061019661031836600461289c565b610ded565b34801561032957600080fd5b5061019661033836600461289c565b610ed8565b61019661034b366004612931565b610f91565b34801561035c57600080fd5b5061037061036b36600461289c565b6110bc565b6040516101bf9190612ae5565b34801561038957600080fd5b5061019661039836600461289c565b611121565b3480156103a957600080fd5b506101966103b836600461289c565b6111d3565b3480156103c957600080fd5b506101966103d836600461289c565b611310565b3480156103e957600080fd5b506103fd6103f83660046128e8565b6113c7565b6040519081526020016101bf565b34801561041757600080fd5b506101966104263660046128e8565b61144a565b34801561043757600080fd5b5061044b6104463660046128e8565b6116bf565b6040516101bf9190612bd6565b34801561046457600080fd5b50610196610473366004612988565b611842565b34801561048457600080fd5b506103fd6104933660046129a7565b61190c565b3480156104a457600080fd5b506101966104b33660046129a7565b61196d565b610196611a43565b6000805460ff1660028111156104e657634e487b7160e01b600052602160045260246000fd5b141561050d5760405162461bcd60e51b815260040161050490612b5c565b60405180910390fd5b600160005460ff16600281111561053457634e487b7160e01b600052602160045260246000fd5b146105515760405162461bcd60e51b815260040161050490612b25565b60033360009081526001602052604090205460ff16600381111561058557634e487b7160e01b600052602160045260246000fd5b14806105c2575060023360009081526001602052604090205460ff1660038111156105c057634e487b7160e01b600052602160045260246000fd5b145b6105de5760405162461bcd60e51b815260040161050490612b82565b6001600160a01b0382166000908152600560209081526040808320848452909152812090600682015460ff16600381111561062957634e487b7160e01b600052602160045260246000fd5b141561066f5760405162461bcd60e51b8152602060048201526015602482015274151c985b9cd858dd1a5bdb88139bdd08119bdd5b99605a1b6044820152606401610504565b506001600160a01b0390911660009081526005602081815260408084209484529390529181208181556001810180546001600160a01b03199081169091556002820180549091169055600381018290556004810182905591820155600601805460ff19169055565b60008060005460ff1660028111156106ff57634e487b7160e01b600052602160045260246000fd5b141561071d5760405162461bcd60e51b815260040161050490612b5c565b60033360009081526001602052604090205460ff16600381111561075157634e487b7160e01b600052602160045260246000fd5b1461076e5760405162461bcd60e51b815260040161050490612bb2565b5060045461010090046001600160a01b031690565b6000805460ff1660028111156107a957634e487b7160e01b600052602160045260246000fd5b14156107c75760405162461bcd60e51b815260040161050490612b5c565b600160005460ff1660028111156107ee57634e487b7160e01b600052602160045260246000fd5b1461080b5760405162461bcd60e51b815260040161050490612b25565b6108158282611ad8565b5050565b6000805460ff16600281111561083f57634e487b7160e01b600052602160045260246000fd5b141561085d5760405162461bcd60e51b815260040161050490612b5c565b60033360009081526001602052604090205460ff16600381111561089157634e487b7160e01b600052602160045260246000fd5b14806108ce575060023360009081526001602052604090205460ff1660038111156108cc57634e487b7160e01b600052602160045260246000fd5b145b6108ea5760405162461bcd60e51b815260040161050490612b82565b6001600160a01b03909116600090815260096020526040902055565b60606000805460ff16600281111561092e57634e487b7160e01b600052602160045260246000fd5b141561094c5760405162461bcd60e51b815260040161050490612b5c565b6001600160a01b038216600090815260066020908152604091829020805483518184028101840190945280845290918301828280156109aa57602002820191906000526020600020905b815481526020019060010190808311610996575b505050505090505b919050565b6000805460ff1660028111156109dd57634e487b7160e01b600052602160045260246000fd5b14610a205760405162461bcd60e51b8152602060048201526013602482015272105b1c9958591e481a5b9a5d1a585b1a5e9959606a1b6044820152606401610504565b33600090815260016020819052604082208054600360ff199182161790915582541617815560048054610100600160a81b0319166101006001600160a01b0395861602179055600b55600d80546001600160a01b03191691909216179055565b60033360009081526001602052604090205460ff166003811115610ab457634e487b7160e01b600052602160045260246000fd5b14610ad15760405162461bcd60e51b815260040161050490612bb2565b6001600160a01b038216610b14576040513390819083156108fc029084906000818181858888f19350505050158015610b0e573d6000803e3d6000fd5b50505050565b60405163a9059cbb60e01b8152336004820152602481018290526001600160a01b0383169063a9059cbb90604401602060405180830381600087803b158015610b5c57600080fd5b505af1158015610b70573d6000803e3d6000fd5b505050506040513d601f19601f82011682018060405250810190610b949190612911565b505050565b60606000805460ff166002811115610bc157634e487b7160e01b600052602160045260246000fd5b1415610bdf5760405162461bcd60e51b815260040161050490612b5c565b60033360009081526001602052604090205460ff166003811115610c1357634e487b7160e01b600052602160045260246000fd5b14610c305760405162461bcd60e51b815260040161050490612bb2565b610c3a6002611da1565b905090565b600080808060608160005460ff166002811115610c6c57634e487b7160e01b600052602160045260246000fd5b1415610c8a5760405162461bcd60e51b815260040161050490612b5c565b600054600454600b54600d54600780546040805160208084028201810190925282815260ff97881697909616956001600160a01b0390941693918391830182828015610cff57602002820191906000526020600020905b81546001600160a01b03168152600190910190602001808311610ce1575b50505050509050945094509450945094509091929394565b60033360009081526001602052604090205460ff166003811115610d4b57634e487b7160e01b600052602160045260246000fd5b1480610d88575060023360009081526001602052604090205460ff166003811115610d8657634e487b7160e01b600052602160045260246000fd5b145b610da45760405162461bcd60e51b815260040161050490612b82565b6000805460ff166002811115610dca57634e487b7160e01b600052602160045260246000fd5b1415610de85760405162461bcd60e51b815260040161050490612b5c565b600b55565b60033360009081526001602052604090205460ff166003811115610e2157634e487b7160e01b600052602160045260246000fd5b1480610e5e575060023360009081526001602052604090205460ff166003811115610e5c57634e487b7160e01b600052602160045260246000fd5b145b610e7a5760405162461bcd60e51b815260040161050490612b82565b6001600160a01b03811615610ed557600780546001810182556000919091527fa66cc928b5edb82af9bd49922954155ab7b0942694bea4ce44661d9a8736c6880180546001600160a01b0319166001600160a01b0383161790555b50565b60033360009081526001602052604090205460ff166003811115610f0c57634e487b7160e01b600052602160045260246000fd5b14610f295760405162461bcd60e51b815260040161050490612bb2565b6001600160a01b0381166000908152600160205260409020805460ff19166002908117909155610f599082611db5565b506040516001600160a01b038216907fa9a7c7349a30f65af7f87f8a23d0da181d3893dbefd512dec8ffc6e7790c464190600090a250565b60033360009081526001602052604090205460ff166003811115610fc557634e487b7160e01b600052602160045260246000fd5b1480611002575060023360009081526001602052604090205460ff16600381111561100057634e487b7160e01b600052602160045260246000fd5b145b61101e5760405162461bcd60e51b815260040161050490612b82565b6000805460ff16600281111561104457634e487b7160e01b600052602160045260246000fd5b14156110625760405162461bcd60e51b815260040161050490612b5c565b600160005460ff16600281111561108957634e487b7160e01b600052602160045260246000fd5b146110a65760405162461bcd60e51b815260040161050490612b25565b6110b4868686868686611dca565b505050505050565b60008060005460ff1660028111156110e457634e487b7160e01b600052602160045260246000fd5b14156111025760405162461bcd60e51b815260040161050490612b5c565b506001600160a01b031660009081526001602052604090205460ff1690565b60033360009081526001602052604090205460ff16600381111561115557634e487b7160e01b600052602160045260246000fd5b146111725760405162461bcd60e51b815260040161050490612bb2565b33600081815260016020526040808220805460ff199081169091556001600160a01b038516808452828420805490921660031790915590519092917f1c3c3d32752a939db9ac720da757226033136f4b2c9878c337e09f5c85b108da91a350565b60033360009081526001602052604090205460ff16600381111561120757634e487b7160e01b600052602160045260246000fd5b146112245760405162461bcd60e51b815260040161050490612bb2565b60036001600160a01b03821660009081526001602052604090205460ff16600381111561126157634e487b7160e01b600052602160045260246000fd5b14156112a55760405162461bcd60e51b815260206004820152601360248201527221b0b73737ba103932b6b7bb329027bbb732b960691b6044820152606401610504565b6001600160a01b0381166000908152600160205260409020805460ff191690556112d060028261211a565b506040516001600160a01b03821681527fcd3f95f831cb2c97a6ed5610a14d1e4ee42e401df748e978264bc6e040c3a8d79060200160405180910390a150565b60033360009081526001602052604090205460ff16600381111561134457634e487b7160e01b600052602160045260246000fd5b146113615760405162461bcd60e51b815260040161050490612bb2565b6000805460ff16600281111561138757634e487b7160e01b600052602160045260246000fd5b14156113a55760405162461bcd60e51b815260040161050490612b5c565b600d80546001600160a01b0319166001600160a01b0392909216919091179055565b60008060005460ff1660028111156113ef57634e487b7160e01b600052602160045260246000fd5b141561140d5760405162461bcd60e51b815260040161050490612b5c565b6001600160a01b038316600090815260096020526040902054600a5461144090829061143a90869061212f565b9061213b565b9150505b92915050565b6000805460ff16600281111561147057634e487b7160e01b600052602160045260246000fd5b141561148e5760405162461bcd60e51b815260040161050490612b5c565b60033360009081526001602052604090205460ff1660038111156114c257634e487b7160e01b600052602160045260246000fd5b14806114ff575060023360009081526001602052604090205460ff1660038111156114fd57634e487b7160e01b600052602160045260246000fd5b145b61151b5760405162461bcd60e51b815260040161050490612b82565b600160005460ff16600281111561154257634e487b7160e01b600052602160045260246000fd5b1461155f5760405162461bcd60e51b815260040161050490612b25565b6001600160a01b038216600090815260056020908152604080832084845290915290206002600682015460ff1660038111156115ab57634e487b7160e01b600052602160045260246000fd5b14156115f95760405162461bcd60e51b815260206004820152601b60248201527f5472616e73616374696f6e20416c72656164792048616e646c656400000000006044820152606401610504565b600181015460028201546001600160a01b0391821691166116535760038201546040516001600160a01b0383169180156108fc02916000818181858888f1935050505015801561164d573d6000803e3d6000fd5b50611674565b60038201546002830154611674916001600160a01b03909116908390612147565b60068201805460ff191660031790556040516001600160a01b0385169084907f58bbc8111a9e18236108fd18563b636e036818ce561ad042c64765acaf27208990600090a350505050565b6116c761284b565b6000805460ff1660028111156116ed57634e487b7160e01b600052602160045260246000fd5b141561170b5760405162461bcd60e51b815260040161050490612b5c565b6001600160a01b0383166000908152600560209081526040808320858452909152812090600682015460ff16600381111561175657634e487b7160e01b600052602160045260246000fd5b141561179c5760405162461bcd60e51b8152602060048201526015602482015274151c985b9cd858dd1a5bdb88139bdd08119bdd5b99605a1b6044820152606401610504565b6040805160e0810182528254815260018301546001600160a01b03908116602083015260028401541691810191909152600380830154606083015260048301546080830152600583015460a08301526006830154839160c084019160ff169081111561181857634e487b7160e01b600052602160045260246000fd5b600381111561183757634e487b7160e01b600052602160045260246000fd5b905250949350505050565b6000805460ff16600281111561186857634e487b7160e01b600052602160045260246000fd5b14156118865760405162461bcd60e51b815260040161050490612b5c565b60033360009081526001602052604090205460ff1660038111156118ba57634e487b7160e01b600052602160045260246000fd5b146118d75760405162461bcd60e51b815260040161050490612bb2565b6000805482919060ff1916600183600281111561190457634e487b7160e01b600052602160045260246000fd5b021790555050565b60008060005460ff16600281111561193457634e487b7160e01b600052602160045260246000fd5b14156119525760405162461bcd60e51b815260040161050490612b5c565b61144460085461143a600a548561212f90919063ffffffff16565b6000805460ff16600281111561199357634e487b7160e01b600052602160045260246000fd5b14156119b15760405162461bcd60e51b815260040161050490612b5c565b60033360009081526001602052604090205460ff1660038111156119e557634e487b7160e01b600052602160045260246000fd5b1480611a22575060023360009081526001602052604090205460ff166003811115611a2057634e487b7160e01b600052602160045260246000fd5b145b611a3e5760405162461bcd60e51b815260040161050490612b82565b600855565b6000805460ff166002811115611a6957634e487b7160e01b600052602160045260246000fd5b1415611a875760405162461bcd60e51b815260040161050490612b5c565b600160005460ff166002811115611aae57634e487b7160e01b600052602160045260246000fd5b14611acb5760405162461bcd60e51b815260040161050490612b25565b611ad6600034611ad8565b565b6001600160a01b03821615611b0557611af0826121aa565b611b056001600160a01b03831633308461225d565b611b0d61284b565b4260a0820152336020820152600160c082015260608101829052600c54600b54600091611b3f9161143a90869061212f565b90506000611b4d8483612295565b90508115611bf7576001600160a01b038516611ba657600d546040516001600160a01b0390911690819084156108fc029085906000818181858888f19350505050158015611b9f573d6000803e3d6000fd5b5050611bf7565b600d54611bc2906001600160a01b0387811691166000196122a1565b600d54611bdc906001600160a01b03878116911684612147565b600d54611bf7906001600160a01b03878116911660006122a1565b6008546001600160a01b03861615611c2457506001600160a01b0385166000908152600960205260409020545b611c3d8161143a600a548561212f90919063ffffffff16565b608085018190526001600160a01b0380881660408701819052606087015160a0880151600454611c779533959092916101009004166123c5565b8452336000908152600560208181526040808420885185528252928390208751815590870151600180830180546001600160a01b039384166001600160a01b0319918216179091559489015160028401805491909316951694909417905560608701516003808301919091556080880151600483015560a08801519282019290925560c0870151600682018054899593949293919260ff1990911691908490811115611d3357634e487b7160e01b600052602160045260246000fd5b021790555050336000908152600660209081526040808320885181546001810183559185528385209091015590870151875191516001600160a01b03909116935090917f1c853578f92a74725f8c21cf78fffb46696e0a5035aeff076962a76a7a2c85fa91a3505050505050565b60606000611dae83612432565b9392505050565b6000611dae836001600160a01b03841661248c565b6000611def8686868686600460019054906101000a90046001600160a01b03166123c5565b9050808714611e385760405162461bcd60e51b8152602060048201526015602482015274151c985b9cd858dd1a5bdb881b9bdd08199bdd5b99605a1b6044820152606401610504565b60026001600160a01b03871660009081526005602090815260408083208b845290915290206006015460ff166003811115611e8357634e487b7160e01b600052602160045260246000fd5b1415611ed15760405162461bcd60e51b815260206004820152601b60248201527f5472616e73616374696f6e20416c72656164792048616e646c656400000000006044820152606401610504565b611ed961284b565b4260a08201526001600160a01b0387166020820152600260c08201818152505084816060018181525050838160800181815250508581604001906001600160a01b031690816001600160a01b031681525050878160000181815250508060056000896001600160a01b03166001600160a01b0316815260200190815260200160002060008a81526020019081526020016000206000820151816000015560208201518160010160006101000a8154816001600160a01b0302191690836001600160a01b0316021790555060408201518160020160006101000a8154816001600160a01b0302191690836001600160a01b03160217905550606082015181600301556080820151816004015560a0820151816005015560c08201518160060160006101000a81548160ff0219169083600381111561202657634e487b7160e01b600052602160045260246000fd5b021790555050506001600160a01b0387166000908152600660209081526040822080546001810182559083529120018890558684156120d35760408201516001600160a01b03166120ad576040516001600160a01b0382169086156108fc029087906000818181858888f193505050501580156120a7573d6000803e3d6000fd5b506120d3565b6120d381836060015184604001516001600160a01b03166121479092919063ffffffff16565b602082015182516040516001600160a01b03909216917f35c75649ae52e42b058a659eca870f6cafed044a1ea633ad3bad0755684e620790600090a3505050505050505050565b6000611dae836001600160a01b0384166124db565b6000611dae8284612c5d565b6000611dae8284612c3d565b6040516001600160a01b038316602482015260448101829052610b9490849063a9059cbb60e01b906064015b60408051601f198184030181529190526020810180516001600160e01b03166001600160e01b0319909316929092179091526125f8565b6000805b60075481101561220f57600781815481106121d957634e487b7160e01b600052603260045260246000fd5b6000918252602090912001546001600160a01b03848116911614156121fd57505050565b8061220781612cbf565b9150506121ae565b50806108155760405162461bcd60e51b815260206004820152601960248201527f546f6b656e206973206e6f7420696e2077686974656c697374000000000000006044820152606401610504565b6040516001600160a01b0380851660248301528316604482015260648101829052610b0e9085906323b872dd60e01b90608401612173565b6000611dae8284612c7c565b80158061232a5750604051636eb1769f60e11b81523060048201526001600160a01b03838116602483015284169063dd62ed3e9060440160206040518083038186803b1580156122f057600080fd5b505afa158015612304573d6000803e3d6000fd5b505050506040513d601f19601f8201168201806040525081019061232891906129bf565b155b6123955760405162461bcd60e51b815260206004820152603660248201527f5361666545524332303a20617070726f76652066726f6d206e6f6e2d7a65726f60448201527520746f206e6f6e2d7a65726f20616c6c6f77616e636560501b6064820152608401610504565b6040516001600160a01b038316602482015260448101829052610b9490849063095ea7b360e01b90606401612173565b6040516bffffffffffffffffffffffff19606088811b8216602084015287811b8216603484015260488301879052606883018690526088830185905283901b1660a882015260009060bc016040516020818303038152906040528051906020012090509695505050505050565b6060816000018054806020026020016040519081016040528092919081815260200182805480156109aa57602002820191906000526020600020908154815260200190600101908083116109965750505050509050919050565b60008181526001830160205260408120546124d357508154600181810184556000848152602080822090930184905584548482528286019093526040902091909155611444565b506000611444565b600081815260018301602052604081205480156125ee5760006124ff600183612c7c565b855490915060009061251390600190612c7c565b905081811461259457600086600001828154811061254157634e487b7160e01b600052603260045260246000fd5b906000526020600020015490508087600001848154811061257257634e487b7160e01b600052603260045260246000fd5b6000918252602080832090910192909255918252600188019052604090208390555b85548690806125b357634e487b7160e01b600052603160045260246000fd5b600190038181906000526020600020016000905590558560010160008681526020019081526020016000206000905560019350505050611444565b6000915050611444565b600061264d826040518060400160405280602081526020017f5361666545524332303a206c6f772d6c6576656c2063616c6c206661696c6564815250856001600160a01b03166126ca9092919063ffffffff16565b805190915015610b94578080602001905181019061266b9190612911565b610b945760405162461bcd60e51b815260206004820152602a60248201527f5361666545524332303a204552433230206f7065726174696f6e20646964206e6044820152691bdd081cdd58d8d9595960b21b6064820152608401610504565b60606126d984846000856126e1565b949350505050565b6060824710156127425760405162461bcd60e51b815260206004820152602660248201527f416464726573733a20696e73756666696369656e742062616c616e636520666f6044820152651c8818d85b1b60d21b6064820152608401610504565b6001600160a01b0385163b6127995760405162461bcd60e51b815260206004820152601d60248201527f416464726573733a2063616c6c20746f206e6f6e2d636f6e74726163740000006044820152606401610504565b600080866001600160a01b031685876040516127b59190612a1a565b60006040518083038185875af1925050503d80600081146127f2576040519150601f19603f3d011682016040523d82523d6000602084013e6127f7565b606091505b5091509150612807828286612812565b979650505050505050565b60608315612821575081611dae565b8251156128315782518084602001fd5b8160405162461bcd60e51b81526004016105049190612af2565b6040805160e081018252600080825260208201819052918101829052606081018290526080810182905260a081018290529060c082015290565b80356001600160a01b03811681146109b257600080fd5b6000602082840312156128ad578081fd5b611dae82612885565b600080604083850312156128c8578081fd5b6128d183612885565b91506128df60208401612885565b90509250929050565b600080604083850312156128fa578182fd5b61290383612885565b946020939093013593505050565b600060208284031215612922578081fd5b81518015158114611dae578182fd5b60008060008060008060c08789031215612949578182fd5b8635955061295960208801612885565b945061296760408801612885565b9350606087013592506080870135915060a087013590509295509295509295565b600060208284031215612999578081fd5b813560038110611dae578182fd5b6000602082840312156129b8578081fd5b5035919050565b6000602082840312156129d0578081fd5b5051919050565b6000815180845260208085019450808401835b83811015612a0f5781516001600160a01b0316875295820195908201906001016129ea565b509495945050505050565b60008251612a2c818460208701612c93565b9190910192915050565b602081526000611dae60208301846129d7565b6020808252825182820181905260009190848201906040850190845b81811015612a8157835183529284019291840191600101612a65565b50909695505050505050565b60208101612a9a83612d06565b91905290565b612aa986612d06565b858152612ab585612d06565b84602082015283604082015260018060a01b038316606082015260a06080820152600061280760a08301846129d7565b60208101612a9a83612d16565b6020815260008251806020840152612b11816040850160208701612c93565b601f01601f19169190910160400192915050565b60208082526017908201527f436f6e7472616374206973206e6f742072756e6e696e67000000000000000000604082015260600190565b6020808252600c908201526b139bdd081a5b9a5d081e595d60a21b604082015260600190565b60208082526016908201527527b7363c9027bbb732b91037b91027b832b930ba37b960511b604082015260600190565b6020808252600a908201526927b7363c9027bbb732b960b11b604082015260600190565b600060e08201905082518252602083015160018060a01b0380821660208501528060408601511660408501525050606083015160608301526080830151608083015260a083015160a083015260c0830151612c3081612d16565b8060c08401525092915050565b600082612c5857634e487b7160e01b81526012600452602481fd5b500490565b6000816000190483118215151615612c7757612c77612cda565b500290565b600082821015612c8e57612c8e612cda565b500390565b60005b83811015612cae578181015183820152602001612c96565b83811115610b0e5750506000910152565b6000600019821415612cd357612cd3612cda565b5060010190565b634e487b7160e01b600052601160045260246000fd5b634e487b7160e01b600052602160045260246000fd5b60038110610ed557610ed5612cf0565b60048110610ed557610ed5612cf056fea2646970667358221220a8e5baa1dc4de72615b79512012acbeded6ae8971ff316b6123442dab8e4f50864736f6c63430008040033",
	"linkReferences": {},
	"deployedLinkReferences": {}
}