{
  "_format": "hh-sol-artifact-1",
  "contractName": "SPCExchange",
  "sourceName": "contracts/SPCExchange.sol",
  "abi": [
    {
      "inputs": [],
      "stateMutability": "nonpayable",
      "type": "constructor"
    },
    {
      "anonymous": false,
      "inputs": [
        {
          "indexed": true,
          "internalType": "address",
          "name": "operator",
          "type": "address"
        }
      ],
      "name": "AddOperatorEvent",
      "type": "event"
    },
    {
      "anonymous": false,
      "inputs": [
        {
          "indexed": true,
          "internalType": "address",
          "name": "oldOwner",
          "type": "address"
        },
        {
          "indexed": true,
          "internalType": "address",
          "name": "newOwner",
          "type": "address"
        }
      ],
      "name": "ChangeOwnerEvent",
      "type": "event"
    },
    {
      "anonymous": false,
      "inputs": [
        {
          "indexed": true,
          "internalType": "bytes32",
          "name": "txnId",
          "type": "bytes32"
        },
        {
          "indexed": true,
          "internalType": "address",
          "name": "sender",
          "type": "address"
        }
      ],
      "name": "DepositTokenEvent",
      "type": "event"
    },
    {
      "anonymous": false,
      "inputs": [
        {
          "indexed": false,
          "internalType": "address",
          "name": "operator",
          "type": "address"
        }
      ],
      "name": "RemoveOperatorEvent",
      "type": "event"
    },
    {
      "anonymous": false,
      "inputs": [
        {
          "indexed": true,
          "internalType": "bytes32",
          "name": "txnId",
          "type": "bytes32"
        },
        {
          "indexed": true,
          "internalType": "address",
          "name": "sender",
          "type": "address"
        }
      ],
      "name": "RevertTransactionEvent",
      "type": "event"
    },
    {
      "anonymous": false,
      "inputs": [
        {
          "indexed": true,
          "internalType": "bytes32",
          "name": "txnId",
          "type": "bytes32"
        },
        {
          "indexed": true,
          "internalType": "address",
          "name": "sender",
          "type": "address"
        }
      ],
      "name": "SPC2ETHEvent",
      "type": "event"
    },
    {
      "anonymous": false,
      "inputs": [
        {
          "indexed": true,
          "internalType": "bytes32",
          "name": "txnId",
          "type": "bytes32"
        },
        {
          "indexed": true,
          "internalType": "address",
          "name": "sender",
          "type": "address"
        }
      ],
      "name": "SPC2ETHTokenEvent",
      "type": "event"
    },
    {
      "anonymous": false,
      "inputs": [
        {
          "indexed": true,
          "internalType": "bytes32",
          "name": "txnId",
          "type": "bytes32"
        },
        {
          "indexed": true,
          "internalType": "address",
          "name": "sender",
          "type": "address"
        }
      ],
      "name": "WithdrawETHTokenEvent",
      "type": "event"
    },
    {
      "anonymous": false,
      "inputs": [
        {
          "indexed": true,
          "internalType": "bytes32",
          "name": "txnId",
          "type": "bytes32"
        },
        {
          "indexed": true,
          "internalType": "address",
          "name": "sender",
          "type": "address"
        }
      ],
      "name": "WithdrawEvent",
      "type": "event"
    },
    {
      "inputs": [
        {
          "internalType": "address",
          "name": "",
          "type": "address"
        }
      ],
      "name": "OneSpcToToken",
      "outputs": [
        {
          "internalType": "uint256",
          "name": "",
          "type": "uint256"
        }
      ],
      "stateMutability": "view",
      "type": "function"
    },
    {
      "inputs": [],
      "name": "SPCToETH",
      "outputs": [],
      "stateMutability": "payable",
      "type": "function"
    },
    {
      "inputs": [
        {
          "internalType": "address",
          "name": "ethTokenAddress",
          "type": "address"
        }
      ],
      "name": "SPCToToken",
      "outputs": [],
      "stateMutability": "payable",
      "type": "function"
    },
    {
      "inputs": [
        {
          "internalType": "address",
          "name": "op",
          "type": "address"
        }
      ],
      "name": "addOperator",
      "outputs": [],
      "stateMutability": "nonpayable",
      "type": "function"
    },
    {
      "inputs": [
        {
          "internalType": "address",
          "name": "token",
          "type": "address"
        }
      ],
      "name": "addWhitelistToken",
      "outputs": [],
      "stateMutability": "nonpayable",
      "type": "function"
    },
    {
      "inputs": [],
      "name": "chainId",
      "outputs": [
        {
          "internalType": "enum ExchangeBase.ChainId",
          "name": "",
          "type": "uint8"
        }
      ],
      "stateMutability": "view",
      "type": "function"
    },
    {
      "inputs": [
        {
          "internalType": "address",
          "name": "newOwner",
          "type": "address"
        }
      ],
      "name": "changeOwner",
      "outputs": [],
      "stateMutability": "nonpayable",
      "type": "function"
    },
    {
      "inputs": [
        {
          "internalType": "uint256",
          "name": "amount",
          "type": "uint256"
        }
      ],
      "name": "getETHReturns",
      "outputs": [
        {
          "internalType": "uint256",
          "name": "",
          "type": "uint256"
        }
      ],
      "stateMutability": "view",
      "type": "function"
    },
    {
      "inputs": [
        {
          "internalType": "address",
          "name": "user",
          "type": "address"
        }
      ],
      "name": "getRoleByUser",
      "outputs": [
        {
          "internalType": "enum ExchangeBase.Role",
          "name": "",
          "type": "uint8"
        }
      ],
      "stateMutability": "view",
      "type": "function"
    },
    {
      "inputs": [
        {
          "internalType": "address",
          "name": "ethTokenAddress",
          "type": "address"
        },
        {
          "internalType": "uint256",
          "name": "amount",
          "type": "uint256"
        }
      ],
      "name": "getTokenReturnsBySPC",
      "outputs": [
        {
          "internalType": "uint256",
          "name": "",
          "type": "uint256"
        }
      ],
      "stateMutability": "view",
      "type": "function"
    },
    {
      "inputs": [
        {
          "internalType": "address",
          "name": "user",
          "type": "address"
        }
      ],
      "name": "getTransactionByUser",
      "outputs": [
        {
          "internalType": "bytes32[]",
          "name": "",
          "type": "bytes32[]"
        }
      ],
      "stateMutability": "view",
      "type": "function"
    },
    {
      "inputs": [
        {
          "internalType": "address",
          "name": "user",
          "type": "address"
        },
        {
          "internalType": "bytes32",
          "name": "transactionId",
          "type": "bytes32"
        }
      ],
      "name": "getTransactionInfo",
      "outputs": [
        {
          "components": [
            {
              "internalType": "bytes32",
              "name": "txnId",
              "type": "bytes32"
            },
            {
              "internalType": "address",
              "name": "sender",
              "type": "address"
            },
            {
              "internalType": "address",
              "name": "tokenAddress",
              "type": "address"
            },
            {
              "internalType": "uint256",
              "name": "tokenAmount",
              "type": "uint256"
            },
            {
              "internalType": "uint256",
              "name": "outputAmount",
              "type": "uint256"
            },
            {
              "internalType": "uint256",
              "name": "actionTime",
              "type": "uint256"
            },
            {
              "internalType": "enum ExchangeBase.TxnStatus",
              "name": "status",
              "type": "uint8"
            }
          ],
          "internalType": "struct ExchangeBase.Transaction",
          "name": "",
          "type": "tuple"
        }
      ],
      "stateMutability": "view",
      "type": "function"
    },
    {
      "inputs": [
        {
          "internalType": "address",
          "name": "secret",
          "type": "address"
        }
      ],
      "name": "initialize",
      "outputs": [],
      "stateMutability": "nonpayable",
      "type": "function"
    },
    {
      "inputs": [
        {
          "internalType": "address",
          "name": "",
          "type": "address"
        }
      ],
      "name": "internalUserRole",
      "outputs": [
        {
          "internalType": "enum ExchangeBase.Role",
          "name": "",
          "type": "uint8"
        }
      ],
      "stateMutability": "view",
      "type": "function"
    },
    {
      "inputs": [
        {
          "internalType": "address",
          "name": "sender",
          "type": "address"
        },
        {
          "internalType": "bytes32",
          "name": "transId",
          "type": "bytes32"
        }
      ],
      "name": "markCompleteTransaction",
      "outputs": [],
      "stateMutability": "nonpayable",
      "type": "function"
    },
    {
      "inputs": [
        {
          "internalType": "address",
          "name": "op",
          "type": "address"
        }
      ],
      "name": "removeOperator",
      "outputs": [],
      "stateMutability": "nonpayable",
      "type": "function"
    },
    {
      "inputs": [
        {
          "internalType": "uint256",
          "name": "price",
          "type": "uint256"
        }
      ],
      "name": "setETHPrice",
      "outputs": [],
      "stateMutability": "nonpayable",
      "type": "function"
    },
    {
      "inputs": [
        {
          "internalType": "address",
          "name": "ethTokenAddress",
          "type": "address"
        },
        {
          "internalType": "uint256",
          "name": "price",
          "type": "uint256"
        }
      ],
      "name": "setTokenPrice",
      "outputs": [],
      "stateMutability": "nonpayable",
      "type": "function"
    },
    {
      "inputs": [],
      "name": "status",
      "outputs": [
        {
          "internalType": "enum ExchangeBase.ContractStatus",
          "name": "",
          "type": "uint8"
        }
      ],
      "stateMutability": "view",
      "type": "function"
    },
    {
      "inputs": [
        {
          "internalType": "address",
          "name": "",
          "type": "address"
        },
        {
          "internalType": "bytes32",
          "name": "",
          "type": "bytes32"
        }
      ],
      "name": "transactions",
      "outputs": [
        {
          "internalType": "bytes32",
          "name": "txnId",
          "type": "bytes32"
        },
        {
          "internalType": "address",
          "name": "sender",
          "type": "address"
        },
        {
          "internalType": "address",
          "name": "tokenAddress",
          "type": "address"
        },
        {
          "internalType": "uint256",
          "name": "tokenAmount",
          "type": "uint256"
        },
        {
          "internalType": "uint256",
          "name": "outputAmount",
          "type": "uint256"
        },
        {
          "internalType": "uint256",
          "name": "actionTime",
          "type": "uint256"
        },
        {
          "internalType": "enum ExchangeBase.TxnStatus",
          "name": "status",
          "type": "uint8"
        }
      ],
      "stateMutability": "view",
      "type": "function"
    },
    {
      "inputs": [
        {
          "internalType": "enum ExchangeBase.ContractStatus",
          "name": "newStatus",
          "type": "uint8"
        }
      ],
      "name": "updateContractStatus",
      "outputs": [],
      "stateMutability": "nonpayable",
      "type": "function"
    },
    {
      "inputs": [
        {
          "internalType": "address",
          "name": "",
          "type": "address"
        },
        {
          "internalType": "uint256",
          "name": "",
          "type": "uint256"
        }
      ],
      "name": "userTransactionIds",
      "outputs": [
        {
          "internalType": "bytes32",
          "name": "",
          "type": "bytes32"
        }
      ],
      "stateMutability": "view",
      "type": "function"
    },
    {
      "inputs": [
        {
          "internalType": "uint256",
          "name": "",
          "type": "uint256"
        }
      ],
      "name": "whitelistToken",
      "outputs": [
        {
          "internalType": "address",
          "name": "",
          "type": "address"
        }
      ],
      "stateMutability": "view",
      "type": "function"
    },
    {
      "inputs": [
        {
          "internalType": "bytes32",
          "name": "txnId",
          "type": "bytes32"
        },
        {
          "internalType": "address",
          "name": "sender",
          "type": "address"
        },
        {
          "internalType": "address",
          "name": "tokenAddress",
          "type": "address"
        },
        {
          "internalType": "uint256",
          "name": "amount",
          "type": "uint256"
        },
        {
          "internalType": "uint256",
          "name": "outputAmount",
          "type": "uint256"
        },
        {
          "internalType": "uint256",
          "name": "actionTime",
          "type": "uint256"
        }
      ],
      "name": "withdrawSPC",
      "outputs": [
        {
          "internalType": "bool",
          "name": "",
          "type": "bool"
        }
      ],
      "stateMutability": "payable",
      "type": "function"
    },
    {
      "inputs": [
        {
          "internalType": "address",
          "name": "tokenAddress",
          "type": "address"
        },
        {
          "internalType": "uint256",
          "name": "amount",
          "type": "uint256"
        }
      ],
      "name": "withdrawTokenFromContract",
      "outputs": [],
      "stateMutability": "nonpayable",
      "type": "function"
    },
    {
      "stateMutability": "payable",
      "type": "receive"
    }
  ],
  "bytecode": "0x60806040526000805460ff19169055620f4240600655633b9aca0060085534801561002957600080fd5b506002805460ff19166001179055612016806100466000396000f3fe60806040526004361061016a5760003560e01c80639571eae8116100d1578063aefa8b8c1161008a578063ca6f225f11610064578063ca6f225f146104af578063d88c520a146104dc578063ecdf5c5e146104fc578063f110781b1461052c57600080fd5b8063aefa8b8c1461045c578063bc7dce061461046f578063c4d66de81461048f57600080fd5b80639571eae8146103885780639870d7fe146103a85780639a8a0592146103c85780639c832bf5146103ef578063a6f9dae11461041c578063ac8a584a1461043c57600080fd5b806352ecfc3d1161012357806352ecfc3d146102b857806358ed4ba3146102f05780636206ae16146103105780637c87f2e31461033d5780638aecab7c146103605780639168083c1461036857600080fd5b80630af83b28146101765780630ec32ce814610201578063200d2ed21461022357806326b448dc1461024a578063431f63c914610278578063462270371461029857600080fd5b3661017157005b600080fd5b34801561018257600080fd5b506101e5610191366004611c7c565b60036020818152600093845260408085209091529183529120805460018201546002830154938301546004840154600585015460069095015493956001600160a01b03938416959316939192909160ff1687565b6040516101f89796959493929190611da9565b60405180910390f35b34801561020d57600080fd5b5061022161021c366004611c7c565b610559565b005b34801561022f57600080fd5b5060005461023d9060ff1681565b6040516101f89190611e11565b34801561025657600080fd5b5061026a610265366004611d4d565b610723565b6040519081526020016101f8565b34801561028457600080fd5b50610221610293366004611ca5565b610792565b3480156102a457600080fd5b5061026a6102b3366004611ca5565b61087f565b3480156102c457600080fd5b506102d86102d3366004611d4d565b6108b0565b6040516001600160a01b0390911681526020016101f8565b3480156102fc57600080fd5b5061022161030b366004611ca5565b6108da565b34801561031c57600080fd5b5061026a61032b366004611c62565b60076020526000908152604090205481565b61035061034b366004611cd7565b6109f4565b60405190151581526020016101f8565b610221610e24565b34801561037457600080fd5b50610221610383366004611c62565b61103d565b34801561039457600080fd5b5061026a6103a3366004611ca5565b611128565b3480156103b457600080fd5b506102216103c3366004611c62565b6111a0565b3480156103d457600080fd5b506002546103e29060ff1681565b6040516101f89190611df7565b3480156103fb57600080fd5b5061040f61040a366004611c62565b61123d565b6040516101f89190611e25565b34801561042857600080fd5b50610221610437366004611c62565b6112a2565b34801561044857600080fd5b50610221610457366004611c62565b611354565b61022161046a366004611c62565b61147d565b34801561047b57600080fd5b5061022161048a366004611d4d565b6116bb565b34801561049b57600080fd5b506102216104aa366004611c62565b611791565b3480156104bb57600080fd5b506104cf6104ca366004611c7c565b611848565b6040516101f89190611ee3565b3480156104e857600080fd5b506102216104f7366004611d2e565b611958565b34801561050857600080fd5b5061040f610517366004611c62565b60016020526000908152604090205460ff1681565b34801561053857600080fd5b5061054c610547366004611c62565b611a22565b6040516101f89190611d65565b6000805460ff16600281111561057f57634e487b7160e01b600052602160045260246000fd5b14156105a65760405162461bcd60e51b815260040161059d90611e69565b60405180910390fd5b600160005460ff1660028111156105cd57634e487b7160e01b600052602160045260246000fd5b146105ea5760405162461bcd60e51b815260040161059d90611e32565b60033360009081526001602052604090205460ff16600381111561061e57634e487b7160e01b600052602160045260246000fd5b148061065b575060023360009081526001602052604090205460ff16600381111561065957634e487b7160e01b600052602160045260246000fd5b145b6106775760405162461bcd60e51b815260040161059d90611e8f565b6001600160a01b038216600090815260036020818152604080842085855290915290912090600682015460ff1660038111156106c357634e487b7160e01b600052602160045260246000fd5b14156107115760405162461bcd60e51b815260206004820152601b60248201527f5472616e73616374696f6e20416c72656164792048616e646c65640000000000604482015260640161059d565b600601805460ff191660021790555050565b60008060005460ff16600281111561074b57634e487b7160e01b600052602160045260246000fd5b14156107695760405162461bcd60e51b815260040161059d90611e69565b61078a60085461078460065485611ad290919063ffffffff16565b90611ae5565b90505b919050565b6000805460ff1660028111156107b857634e487b7160e01b600052602160045260246000fd5b14156107d65760405162461bcd60e51b815260040161059d90611e69565b60033360009081526001602052604090205460ff16600381111561080a57634e487b7160e01b600052602160045260246000fd5b1480610847575060023360009081526001602052604090205460ff16600381111561084557634e487b7160e01b600052602160045260246000fd5b145b6108635760405162461bcd60e51b815260040161059d90611e8f565b6001600160a01b03909116600090815260076020526040902055565b6004602052816000526040600020818154811061089b57600080fd5b90600052602060002001600091509150505481565b600581815481106108c057600080fd5b6000918252602090912001546001600160a01b0316905081565b60033360009081526001602052604090205460ff16600381111561090e57634e487b7160e01b600052602160045260246000fd5b1461092b5760405162461bcd60e51b815260040161059d90611ebf565b6001600160a01b03821661096e576040513390819083156108fc029084906000818181858888f19350505050158015610968573d6000803e3d6000fd5b50505050565b60405163a9059cbb60e01b8152336004820152602481018290526001600160a01b0383169063a9059cbb90604401602060405180830381600087803b1580156109b657600080fd5b505af11580156109ca573d6000803e3d6000fd5b505050506040513d601f19601f820116820180604052508101906109ee9190611cb7565b505b5050565b600060033360009081526001602052604090205460ff166003811115610a2a57634e487b7160e01b600052602160045260246000fd5b1480610a67575060023360009081526001602052604090205460ff166003811115610a6557634e487b7160e01b600052602160045260246000fd5b145b610a835760405162461bcd60e51b815260040161059d90611e8f565b6000805460ff166002811115610aa957634e487b7160e01b600052602160045260246000fd5b1415610ac75760405162461bcd60e51b815260040161059d90611e69565b600160005460ff166002811115610aee57634e487b7160e01b600052602160045260246000fd5b14610b0b5760405162461bcd60e51b815260040161059d90611e32565b6000610b308787878787600260019054906101000a90046001600160a01b0316611af1565b9050808814610b795760405162461bcd60e51b8152602060048201526015602482015274151c985b9cd858dd1a5bdb881b9bdd08199bdd5b99605a1b604482015260640161059d565b60026001600160a01b03881660009081526003602081815260408084208d85529091529091206006015460ff1690811115610bc457634e487b7160e01b600052602160045260246000fd5b1415610c125760405162461bcd60e51b815260206004820152601b60248201527f5472616e73616374696f6e20416c72656164792048616e646c65640000000000604482015260640161059d565b610c1a611c11565b4260a08201526001600160a01b0388166020820152600260c08201818152505085816060018181525050848160800181815250508681604001906001600160a01b031690816001600160a01b0316815250508881600001818152505080600360008a6001600160a01b03166001600160a01b0316815260200190815260200160002060008b81526020019081526020016000206000820151816000015560208201518160010160006101000a8154816001600160a01b0302191690836001600160a01b0316021790555060408201518160020160006101000a8154816001600160a01b0302191690836001600160a01b03160217905550606082015181600301556080820151816004015560a0820151816005015560c08201518160060160006101000a81548160ff02191690836003811115610d6757634e487b7160e01b600052602160045260246000fd5b021790555050506001600160a01b038816600090815260046020908152604082208054600181018255908352912001899055878515610dd8576040516001600160a01b0382169087156108fc029088906000818181858888f19350505050158015610dd6573d6000803e3d6000fd5b505b602082015182516040516001600160a01b03909216917feb35d55a48adc298a65fef4103bd3ea7c0072c08a6e4b80fbfb4f3209e98d38d90600090a35060019998505050505050505050565b6000805460ff166002811115610e4a57634e487b7160e01b600052602160045260246000fd5b1415610e685760405162461bcd60e51b815260040161059d90611e69565b600160005460ff166002811115610e8f57634e487b7160e01b600052602160045260246000fd5b14610eac5760405162461bcd60e51b815260040161059d90611e32565b6000610eb6611c11565b4260a0820152336020820152600160c08201523460608201819052600854600654610ee49261078491611ad2565b608082018190526001600160a01b0380841660408401819052606084015160a0850151600254610f1e953395909291610100900416611af1565b8152336000908152600360208181526040808420855185528252928390208451815590840151600180830180546001600160a01b039384166001600160a01b031991821617909155948601516002840180549190931695169490941790556060840151818301556080840151600482015560a0840151600582015560c0840151600682018054869593949293919260ff1990911691908490811115610fd357634e487b7160e01b600052602160045260246000fd5b021790555050336000908152600460209081526040808320855181546001810183559185528385209091015590840151845191516001600160a01b03909116935090917f3e740aa8624c6f5d84e0909d04b3e55a8ba500e1930f697cf8eb8e2c0e7142a591a35050565b60033360009081526001602052604090205460ff16600381111561107157634e487b7160e01b600052602160045260246000fd5b14806110ae575060023360009081526001602052604090205460ff1660038111156110ac57634e487b7160e01b600052602160045260246000fd5b145b6110ca5760405162461bcd60e51b815260040161059d90611e8f565b6001600160a01b0381161561112557600580546001810182556000919091527f036b6384b5eca791c62761152d0c79bb0604c104a5fb6f4eb0703f3154bb3db00180546001600160a01b0319166001600160a01b0383161790555b50565b60008060005460ff16600281111561115057634e487b7160e01b600052602160045260246000fd5b141561116e5760405162461bcd60e51b815260040161059d90611e69565b6001600160a01b038316600090815260076020526040902054600854611198906107848584611ad2565b949350505050565b60033360009081526001602052604090205460ff1660038111156111d457634e487b7160e01b600052602160045260246000fd5b146111f15760405162461bcd60e51b815260040161059d90611ebf565b6001600160a01b038116600081815260016020526040808220805460ff19166002179055517fa9a7c7349a30f65af7f87f8a23d0da181d3893dbefd512dec8ffc6e7790c46419190a250565b60008060005460ff16600281111561126557634e487b7160e01b600052602160045260246000fd5b14156112835760405162461bcd60e51b815260040161059d90611e69565b506001600160a01b031660009081526001602052604090205460ff1690565b60033360009081526001602052604090205460ff1660038111156112d657634e487b7160e01b600052602160045260246000fd5b146112f35760405162461bcd60e51b815260040161059d90611ebf565b33600081815260016020526040808220805460ff199081169091556001600160a01b038516808452828420805490921660031790915590519092917f1c3c3d32752a939db9ac720da757226033136f4b2c9878c337e09f5c85b108da91a350565b60033360009081526001602052604090205460ff16600381111561138857634e487b7160e01b600052602160045260246000fd5b146113a55760405162461bcd60e51b815260040161059d90611ebf565b60036001600160a01b03821660009081526001602052604090205460ff1660038111156113e257634e487b7160e01b600052602160045260246000fd5b14156114265760405162461bcd60e51b815260206004820152601360248201527221b0b73737ba103932b6b7bb329027bbb732b960691b604482015260640161059d565b6001600160a01b038116600081815260016020908152604091829020805460ff1916905590519182527fcd3f95f831cb2c97a6ed5610a14d1e4ee42e401df748e978264bc6e040c3a8d7910160405180910390a150565b6000805460ff1660028111156114a357634e487b7160e01b600052602160045260246000fd5b14156114c15760405162461bcd60e51b815260040161059d90611e69565b600160005460ff1660028111156114e857634e487b7160e01b600052602160045260246000fd5b146115055760405162461bcd60e51b815260040161059d90611e32565b61150e81611b5e565b611516611c11565b4260a0820152336020820152600160c082018190525034606082018190526001600160a01b038316600090815260076020526040902054600854909161156191906107849084611ad2565b608083018190526001600160a01b0380851660408501819052606085015160a086015160025461159b953395909291610100900416611af1565b8252336000908152600360208181526040808420865185528252928390208551815590850151600180830180546001600160a01b039384166001600160a01b031991821617909155948701516002840180549190931695169490941790556060850151818301556080850151600482015560a0850151600582015560c0850151600682018054879593949293919260ff199091169190849081111561165057634e487b7160e01b600052602160045260246000fd5b021790555050336000908152600460209081526040808320865181546001810183559185528385209091015590850151855191516001600160a01b03909116935090917f3e740aa8624c6f5d84e0909d04b3e55a8ba500e1930f697cf8eb8e2c0e7142a591a3505050565b6000805460ff1660028111156116e157634e487b7160e01b600052602160045260246000fd5b14156116ff5760405162461bcd60e51b815260040161059d90611e69565b60033360009081526001602052604090205460ff16600381111561173357634e487b7160e01b600052602160045260246000fd5b1480611770575060023360009081526001602052604090205460ff16600381111561176e57634e487b7160e01b600052602160045260246000fd5b145b61178c5760405162461bcd60e51b815260040161059d90611e8f565b600655565b6000805460ff1660028111156117b757634e487b7160e01b600052602160045260246000fd5b146117fa5760405162461bcd60e51b8152602060048201526013602482015272105b1c9958591e481a5b9a5d1a585b1a5e9959606a1b604482015260640161059d565b33600090815260016020819052604082208054600360ff1991821617909155825416179055600280546001600160a01b039290921661010002610100600160a81b0319909216919091179055565b611850611c11565b6000805460ff16600281111561187657634e487b7160e01b600052602160045260246000fd5b14156118945760405162461bcd60e51b815260040161059d90611e69565b6001600160a01b038084166000908152600360208181526040808420878552825292839020835160e08101855281548152600182015486169281019290925260028101549094169281019290925282810154606083015260048301546080830152600583015460a0830152600683015491929160c084019160ff9091169081111561192f57634e487b7160e01b600052602160045260246000fd5b600381111561194e57634e487b7160e01b600052602160045260246000fd5b9052509392505050565b6000805460ff16600281111561197e57634e487b7160e01b600052602160045260246000fd5b141561199c5760405162461bcd60e51b815260040161059d90611e69565b60033360009081526001602052604090205460ff1660038111156119d057634e487b7160e01b600052602160045260246000fd5b146119ed5760405162461bcd60e51b815260040161059d90611ebf565b6000805482919060ff19166001836002811115611a1a57634e487b7160e01b600052602160045260246000fd5b021790555050565b60606000805460ff166002811115611a4a57634e487b7160e01b600052602160045260246000fd5b1415611a685760405162461bcd60e51b815260040161059d90611e69565b6001600160a01b03821660009081526004602090815260409182902080548351818402810184019094528084529091830182828015611ac657602002820191906000526020600020905b815481526020019060010190808311611ab2575b50505050509050919050565b6000611ade8284611f6a565b9392505050565b6000611ade8284611f4a565b6040516bffffffffffffffffffffffff19606088811b8216602084015287811b8216603484015260488301879052606883018690526088830185905283901b1660a882015260009060bc016040516020818303038152906040528051906020012090509695505050505050565b6000805b600554811015611bc35760058181548110611b8d57634e487b7160e01b600052603260045260246000fd5b6000918252602090912001546001600160a01b0384811691161415611bb157505050565b80611bbb81611f89565b915050611b62565b50806109f05760405162461bcd60e51b815260206004820152601960248201527f546f6b656e206973206e6f7420696e2077686974656c69737400000000000000604482015260640161059d565b6040805160e081018252600080825260208201819052918101829052606081018290526080810182905260a081018290529060c082015290565b80356001600160a01b038116811461078d57600080fd5b600060208284031215611c73578081fd5b611ade82611c4b565b60008060408385031215611c8e578081fd5b611c9783611c4b565b946020939093013593505050565b60008060408385031215611c8e578182fd5b600060208284031215611cc8578081fd5b81518015158114611ade578182fd5b60008060008060008060c08789031215611cef578182fd5b86359550611cff60208801611c4b565b9450611d0d60408801611c4b565b9350606087013592506080870135915060a087013590509295509295509295565b600060208284031215611d3f578081fd5b813560038110611ade578182fd5b600060208284031215611d5e578081fd5b5035919050565b6020808252825182820181905260009190848201906040850190845b81811015611d9d57835183529284019291840191600101611d81565b50909695505050505050565b8781526001600160a01b03878116602083015286166040820152606081018590526080810184905260a0810183905260e08101611de583611fd0565b8260c083015298975050505050505050565b6020810160028310611e0b57611e0b611fba565b91905290565b6020810160038310611e0b57611e0b611fba565b60208101611e0b83611fd0565b60208082526017908201527f436f6e7472616374206973206e6f742072756e6e696e67000000000000000000604082015260600190565b6020808252600c908201526b139bdd081a5b9a5d081e595d60a21b604082015260600190565b60208082526016908201527527b7363c9027bbb732b91037b91027b832b930ba37b960511b604082015260600190565b6020808252600a908201526927b7363c9027bbb732b960b11b604082015260600190565b600060e08201905082518252602083015160018060a01b0380821660208501528060408601511660408501525050606083015160608301526080830151608083015260a083015160a083015260c0830151611f3d81611fd0565b8060c08401525092915050565b600082611f6557634e487b7160e01b81526012600452602481fd5b500490565b6000816000190483118215151615611f8457611f84611fa4565b500290565b6000600019821415611f9d57611f9d611fa4565b5060010190565b634e487b7160e01b600052601160045260246000fd5b634e487b7160e01b600052602160045260246000fd5b6004811061112557611125611fba56fea264697066735822122085df26c70b51256f6a6b17de49c65b78b3b3890918500689e936cc41af16b2b064736f6c63430008040033",
  "linkReferences": {},
  "deployedLinkReferences": {}
}