{
	"_format": "hh-sol-artifact-1",
	"contractName": "Tokenize",
	"sourceName": "contracts/Tokenize.sol",
	"abi": [
		{
			"type": "constructor",
			"stateMutability": "nonpayable",
			"inputs": []
		},
		{
			"type": "event",
			"name": "OwnershipTransferred",
			"inputs": [
				{
					"type": "address",
					"name": "previousOwner",
					"internalType": "address",
					"indexed": true
				},
				{
					"type": "address",
					"name": "newOwner",
					"internalType": "address",
					"indexed": true
				}
			],
			"anonymous": false
		},
		{
			"type": "function",
			"stateMutability": "nonpayable",
			"outputs": [],
			"name": "addOperator",
			"inputs": [
				{
					"type": "address",
					"name": "operator",
					"internalType": "address"
				}
			]
		},
		{
			"type": "function",
			"stateMutability": "nonpayable",
			"outputs": [],
			"name": "addWhitelistSpcToToken",
			"inputs": [
				{
					"type": "address",
					"name": "_address",
					"internalType": "address"
				}
			]
		},
		{
			"type": "function",
			"stateMutability": "nonpayable",
			"outputs": [],
			"name": "addWhitelistSwap",
			"inputs": [
				{
					"type": "address",
					"name": "_address",
					"internalType": "address"
				}
			]
		},
		{
			"type": "function",
			"stateMutability": "nonpayable",
			"outputs": [],
			"name": "addWhitelistTokenToSpcOwner",
			"inputs": [
				{
					"type": "address",
					"name": "_address",
					"internalType": "address"
				}
			]
		},
		{
			"type": "function",
			"stateMutability": "nonpayable",
			"outputs": [],
			"name": "claimPRZ",
			"inputs": [
				{
					"type": "uint256",
					"name": "amountIn",
					"internalType": "uint256"
				},
				{
					"type": "address",
					"name": "tokenIn",
					"internalType": "address"
				},
				{
					"type": "uint256",
					"name": "amountOutMin",
					"internalType": "uint256"
				},
				{
					"type": "address",
					"name": "tokenOut",
					"internalType": "address"
				}
			]
		},
		{
			"type": "function",
			"stateMutability": "view",
			"outputs": [
				{
					"type": "uint256",
					"name": "",
					"internalType": "uint256"
				}
			],
			"name": "getFee",
			"inputs": []
		},
		{
			"type": "function",
			"stateMutability": "view",
			"outputs": [
				{
					"type": "uint256",
					"name": "",
					"internalType": "uint256"
				}
			],
			"name": "getInput",
			"inputs": [
				{
					"type": "uint256",
					"name": "output",
					"internalType": "uint256"
				},
				{
					"type": "address",
					"name": "tokenIn",
					"internalType": "address"
				},
				{
					"type": "address",
					"name": "tokenOut",
					"internalType": "address"
				}
			]
		},
		{
			"type": "function",
			"stateMutability": "view",
			"outputs": [
				{
					"type": "uint256",
					"name": "",
					"internalType": "uint256"
				}
			],
			"name": "getSPCPrice",
			"inputs": []
		},
		{
			"type": "function",
			"stateMutability": "view",
			"outputs": [
				{
					"type": "uint256",
					"name": "",
					"internalType": "uint256"
				},
				{
					"type": "uint256",
					"name": "",
					"internalType": "uint256"
				}
			],
			"name": "getTokenInfo",
			"inputs": [
				{
					"type": "address",
					"name": "token",
					"internalType": "address"
				}
			]
		},
		{
			"type": "function",
			"stateMutability": "view",
			"outputs": [
				{
					"type": "uint256",
					"name": "",
					"internalType": "uint256"
				}
			],
			"name": "getTokenPrice",
			"inputs": [
				{
					"type": "address",
					"name": "token",
					"internalType": "address"
				}
			]
		},
		{
			"type": "function",
			"stateMutability": "view",
			"outputs": [
				{
					"type": "bool",
					"name": "",
					"internalType": "bool"
				}
			],
			"name": "operators",
			"inputs": [
				{
					"type": "address",
					"name": "",
					"internalType": "address"
				}
			]
		},
		{
			"type": "function",
			"stateMutability": "view",
			"outputs": [
				{
					"type": "address",
					"name": "",
					"internalType": "address"
				}
			],
			"name": "owner",
			"inputs": []
		},
		{
			"type": "function",
			"stateMutability": "nonpayable",
			"outputs": [],
			"name": "ownerSwapTokenToSPC",
			"inputs": [
				{
					"type": "uint256",
					"name": "amountIn",
					"internalType": "uint256"
				},
				{
					"type": "uint256",
					"name": "amountOutMin",
					"internalType": "uint256"
				},
				{
					"type": "address",
					"name": "tokenIn",
					"internalType": "address"
				}
			]
		},
		{
			"type": "function",
			"stateMutability": "nonpayable",
			"outputs": [],
			"name": "removeOperator",
			"inputs": [
				{
					"type": "address",
					"name": "operator",
					"internalType": "address"
				}
			]
		},
		{
			"type": "function",
			"stateMutability": "nonpayable",
			"outputs": [],
			"name": "removeWhitelistSpcToToken",
			"inputs": [
				{
					"type": "address",
					"name": "_address",
					"internalType": "address"
				}
			]
		},
		{
			"type": "function",
			"stateMutability": "nonpayable",
			"outputs": [],
			"name": "removeWhitelistSwap",
			"inputs": [
				{
					"type": "address",
					"name": "_address",
					"internalType": "address"
				}
			]
		},
		{
			"type": "function",
			"stateMutability": "nonpayable",
			"outputs": [],
			"name": "removeWhitelistTokenToSpcOwner",
			"inputs": [
				{
					"type": "address",
					"name": "_address",
					"internalType": "address"
				}
			]
		},
		{
			"type": "function",
			"stateMutability": "nonpayable",
			"outputs": [],
			"name": "renounceOwnership",
			"inputs": []
		},
		{
			"type": "function",
			"stateMutability": "nonpayable",
			"outputs": [],
			"name": "setAdminFeeAddress",
			"inputs": [
				{
					"type": "address",
					"name": "_address",
					"internalType": "address"
				}
			]
		},
		{
			"type": "function",
			"stateMutability": "nonpayable",
			"outputs": [],
			"name": "setCCTAddress",
			"inputs": [
				{
					"type": "address",
					"name": "_address",
					"internalType": "address"
				}
			]
		},
		{
			"type": "function",
			"stateMutability": "nonpayable",
			"outputs": [],
			"name": "setFee",
			"inputs": [
				{
					"type": "uint256",
					"name": "fee",
					"internalType": "uint256"
				}
			]
		},
		{
			"type": "function",
			"stateMutability": "nonpayable",
			"outputs": [],
			"name": "setHTCAddress",
			"inputs": [
				{
					"type": "address",
					"name": "_address",
					"internalType": "address"
				}
			]
		},
		{
			"type": "function",
			"stateMutability": "nonpayable",
			"outputs": [],
			"name": "setPRZAddress",
			"inputs": [
				{
					"type": "address",
					"name": "_address",
					"internalType": "address"
				}
			]
		},
		{
			"type": "function",
			"stateMutability": "nonpayable",
			"outputs": [],
			"name": "setSPCPrice",
			"inputs": [
				{
					"type": "uint256",
					"name": "price",
					"internalType": "uint256"
				}
			]
		},
		{
			"type": "function",
			"stateMutability": "nonpayable",
			"outputs": [],
			"name": "setTokenPrice",
			"inputs": [
				{
					"type": "address",
					"name": "_address",
					"internalType": "address"
				},
				{
					"type": "uint256",
					"name": "price",
					"internalType": "uint256"
				}
			]
		},
		{
			"type": "function",
			"stateMutability": "nonpayable",
			"outputs": [],
			"name": "swap",
			"inputs": [
				{
					"type": "uint256",
					"name": "amountIn",
					"internalType": "uint256"
				},
				{
					"type": "uint256",
					"name": "amountOutMin",
					"internalType": "uint256"
				},
				{
					"type": "address",
					"name": "tokenIn",
					"internalType": "address"
				}
			]
		},
		{
			"type": "function",
			"stateMutability": "nonpayable",
			"outputs": [],
			"name": "swapPRZToCCT",
			"inputs": [
				{
					"type": "uint256",
					"name": "amountIn",
					"internalType": "uint256"
				},
				{
					"type": "address",
					"name": "tokenIn",
					"internalType": "address"
				},
				{
					"type": "uint256",
					"name": "amountOutMin",
					"internalType": "uint256"
				},
				{
					"type": "address",
					"name": "tokenOut",
					"internalType": "address"
				}
			]
		},
		{
			"type": "function",
			"stateMutability": "payable",
			"outputs": [],
			"name": "swapSPCToToken",
			"inputs": [
				{
					"type": "address",
					"name": "tokenOut",
					"internalType": "address"
				},
				{
					"type": "uint256",
					"name": "amountOutMin",
					"internalType": "uint256"
				}
			]
		},
		{
			"type": "function",
			"stateMutability": "view",
			"outputs": [
				{
					"type": "uint256",
					"name": "mint",
					"internalType": "uint256"
				},
				{
					"type": "uint256",
					"name": "burn",
					"internalType": "uint256"
				}
			],
			"name": "token_info",
			"inputs": [
				{
					"type": "address",
					"name": "",
					"internalType": "address"
				}
			]
		},
		{
			"type": "function",
			"stateMutability": "view",
			"outputs": [
				{
					"type": "uint256",
					"name": "",
					"internalType": "uint256"
				}
			],
			"name": "token_price",
			"inputs": [
				{
					"type": "address",
					"name": "",
					"internalType": "address"
				}
			]
		},
		{
			"type": "function",
			"stateMutability": "nonpayable",
			"outputs": [],
			"name": "transferOwnership",
			"inputs": [
				{
					"type": "address",
					"name": "newOwner",
					"internalType": "address"
				}
			]
		},
		{
			"type": "function",
			"stateMutability": "view",
			"outputs": [
				{
					"type": "bool",
					"name": "",
					"internalType": "bool"
				}
			],
			"name": "whitelist_spc_to_token",
			"inputs": [
				{
					"type": "address",
					"name": "",
					"internalType": "address"
				}
			]
		},
		{
			"type": "function",
			"stateMutability": "view",
			"outputs": [
				{
					"type": "bool",
					"name": "",
					"internalType": "bool"
				}
			],
			"name": "whitelist_token_to_spc",
			"inputs": [
				{
					"type": "address",
					"name": "",
					"internalType": "address"
				}
			]
		},
		{
			"type": "function",
			"stateMutability": "view",
			"outputs": [
				{
					"type": "bool",
					"name": "",
					"internalType": "bool"
				}
			],
			"name": "whitelist_token_to_spc_owner",
			"inputs": [
				{
					"type": "address",
					"name": "",
					"internalType": "address"
				}
			]
		},
		{
			"type": "function",
			"stateMutability": "nonpayable",
			"outputs": [],
			"name": "withdrawSPC",
			"inputs": [
				{
					"type": "uint256",
					"name": "amount",
					"internalType": "uint256"
				}
			]
		},
		{
			"type": "function",
			"stateMutability": "nonpayable",
			"outputs": [],
			"name": "withdrawToken",
			"inputs": [
				{
					"type": "address",
					"name": "_token",
					"internalType": "address"
				},
				{
					"type": "uint256",
					"name": "amount",
					"internalType": "uint256"
				}
			]
		},
		{
			"type": "receive",
			"stateMutability": "payable"
		}
	],
	"bytecode": "0x6080604052620f42406002553480156200001857600080fd5b50620000396200002d6200003f60201b60201c565b6200004760201b60201c565b6200010b565b600033905090565b60008060009054906101000a900473ffffffffffffffffffffffffffffffffffffffff169050816000806101000a81548173ffffffffffffffffffffffffffffffffffffffff021916908373ffffffffffffffffffffffffffffffffffffffff1602179055508173ffffffffffffffffffffffffffffffffffffffff168173ffffffffffffffffffffffffffffffffffffffff167f8be0079c531659141344cd1fd0a4f28419497f9722a3daafe3b4186f6b6457e060405160405180910390a35050565b613de6806200011b6000396000f3fe6080604052600436106102135760003560e01c80638047dc3111610118578063ba5c85b6116100a0578063e6f6126b1161006f578063e6f6126b1461079f578063eedaeeae146107c8578063f2fde38b146107f1578063f51e3d011461081a578063ff6597ee146108435761021a565b8063ba5c85b6146106d1578063ced72f87146106fa578063d02641a014610725578063d4d30b2d146107625761021a565b80639870d7fe116100e75780639870d7fe146105ef5780639e281a9814610618578063ac8a584a14610641578063afef04261461066a578063b86a74b2146106935761021a565b80638047dc31146105495780638da5cb5b14610572578063943388b41461059d57806396dc8a99146105c65761021a565b80635062c2191161019b57806369fe0e2d1161016a57806369fe0e2d1461048e5780636d9a640a146104b7578063715018a6146104e0578063744ef49e146104f75780637aae0ee8146105205761021a565b80635062c219146103c257806357de3704146103eb578063643c0485146104145780636469bd97146104515761021a565b80632c35d37a116101e25780632c35d37a146103005780632d60d9de146103295780633ef9f80e14610354578063431f63c9146103705780634a21f060146103995761021a565b8063098066751461021f57806313e7c9d81461025c5780631f69565f1461029957806328e6077b146102d75761021a565b3661021a57005b600080fd5b34801561022b57600080fd5b5061024660048036038101906102419190613230565b610880565b60405161025391906136b5565b60405180910390f35b34801561026857600080fd5b50610283600480360381019061027e9190613230565b6108a0565b60405161029091906136b5565b60405180910390f35b3480156102a557600080fd5b506102c060048036038101906102bb9190613230565b6108c0565b6040516102ce92919061388d565b60405180910390f35b3480156102e357600080fd5b506102fe60048036038101906102f991906132be565b610952565b005b34801561030c57600080fd5b5061032760048036038101906103229190613336565b6109e8565b005b34801561033557600080fd5b5061033e610e82565b60405161034b9190613872565b60405180910390f35b61036e60048036038101906103699190613259565b610e8c565b005b34801561037c57600080fd5b5061039760048036038101906103929190613259565b611137565b005b3480156103a557600080fd5b506103c060048036038101906103bb9190613230565b61120b565b005b3480156103ce57600080fd5b506103e960048036038101906103e49190613399565b6112db565b005b3480156103f757600080fd5b50610412600480360381019061040d9190613230565b611405565b005b34801561042057600080fd5b5061043b600480360381019061043691906132e7565b6114ec565b6040516104489190613872565b60405180910390f35b34801561045d57600080fd5b5061047860048036038101906104739190613230565b611666565b6040516104859190613872565b60405180910390f35b34801561049a57600080fd5b506104b560048036038101906104b091906132be565b61167e565b005b3480156104c357600080fd5b506104de60048036038101906104d99190613399565b611714565b005b3480156104ec57600080fd5b506104f56117b3565b005b34801561050357600080fd5b5061051e60048036038101906105199190613336565b61183b565b005b34801561052c57600080fd5b5061054760048036038101906105429190613230565b611c3e565b005b34801561055557600080fd5b50610570600480360381019061056b9190613230565b611d25565b005b34801561057e57600080fd5b50610587611e0c565b604051610594919061363a565b60405180910390f35b3480156105a957600080fd5b506105c460048036038101906105bf9190613230565b611e35565b005b3480156105d257600080fd5b506105ed60048036038101906105e891906132be565b611f05565b005b3480156105fb57600080fd5b5061061660048036038101906106119190613230565b611fdb565b005b34801561062457600080fd5b5061063f600480360381019061063a9190613259565b612121565b005b34801561064d57600080fd5b5061066860048036038101906106639190613230565b61223f565b005b34801561067657600080fd5b50610691600480360381019061068c9190613230565b612386565b005b34801561069f57600080fd5b506106ba60048036038101906106b59190613230565b612456565b6040516106c892919061388d565b60405180910390f35b3480156106dd57600080fd5b506106f860048036038101906106f39190613230565b61247a565b005b34801561070657600080fd5b5061070f612561565b60405161071c9190613872565b60405180910390f35b34801561073157600080fd5b5061074c60048036038101906107479190613230565b61256b565b6040516107599190613872565b60405180910390f35b34801561076e57600080fd5b5061078960048036038101906107849190613230565b6125b4565b60405161079691906136b5565b60405180910390f35b3480156107ab57600080fd5b506107c660048036038101906107c19190613230565b6125d4565b005b3480156107d457600080fd5b506107ef60048036038101906107ea9190613230565b6126bb565b005b3480156107fd57600080fd5b5061081860048036038101906108139190613230565b6127a2565b005b34801561082657600080fd5b50610841600480360381019061083c9190613230565b61289a565b005b34801561084f57600080fd5b5061086a60048036038101906108659190613230565b61296a565b60405161087791906136b5565b60405180910390f35b60066020528060005260406000206000915054906101000a900460ff1681565b60016020528060005260406000206000915054906101000a900460ff1681565b600080600760008473ffffffffffffffffffffffffffffffffffffffff1673ffffffffffffffffffffffffffffffffffffffff16815260200190815260200160002060000154600760008573ffffffffffffffffffffffffffffffffffffffff1673ffffffffffffffffffffffffffffffffffffffff1681526020019081526020016000206001015491509150915091565b600160003373ffffffffffffffffffffffffffffffffffffffff1673ffffffffffffffffffffffffffffffffffffffff16815260200190815260200160002060009054906101000a900460ff166109de576040517f08c379a00000000000000000000000000000000000000000000000000000000081526004016109d5906136f2565b60405180910390fd5b8060088190555050565b600a60009054906101000a900473ffffffffffffffffffffffffffffffffffffffff1673ffffffffffffffffffffffffffffffffffffffff168373ffffffffffffffffffffffffffffffffffffffff16148015610a925750600b60009054906101000a900473ffffffffffffffffffffffffffffffffffffffff1673ffffffffffffffffffffffffffffffffffffffff168173ffffffffffffffffffffffffffffffffffffffff16145b610ad1576040517f08c379a0000000000000000000000000000000000000000000000000000000008152600401610ac890613712565b60405180910390fd5b60008411610b14576040517f08c379a0000000000000000000000000000000000000000000000000000000008152600401610b0b90613792565b60405180910390fd5b6000600360008573ffffffffffffffffffffffffffffffffffffffff1673ffffffffffffffffffffffffffffffffffffffff16815260200190815260200160002054118015610ba257506000600360008373ffffffffffffffffffffffffffffffffffffffff1673ffffffffffffffffffffffffffffffffffffffff16815260200190815260200160002054115b610be1576040517f08c379a0000000000000000000000000000000000000000000000000000000008152600401610bd8906137f2565b60405180910390fd5b6000610c0e633b9aca00610c006002548861298a90919063ffffffff16565b6129a090919063ffffffff16565b90506000610c2582876129b690919063ffffffff16565b90506000610ccc600360008673ffffffffffffffffffffffffffffffffffffffff1673ffffffffffffffffffffffffffffffffffffffff16815260200190815260200160002054610cbe600360008a73ffffffffffffffffffffffffffffffffffffffff1673ffffffffffffffffffffffffffffffffffffffff168152602001908152602001600020548561298a90919063ffffffff16565b6129a090919063ffffffff16565b905084811015610d11576040517f08c379a0000000000000000000000000000000000000000000000000000000008152600401610d08906137d2565b60405180910390fd5b610d3e3330848973ffffffffffffffffffffffffffffffffffffffff166129cc909392919063ffffffff16565b610d8d33600c60009054906101000a900473ffffffffffffffffffffffffffffffffffffffff16858973ffffffffffffffffffffffffffffffffffffffff166129cc909392919063ffffffff16565b8573ffffffffffffffffffffffffffffffffffffffff166342966c68836040518263ffffffff1660e01b8152600401610dc69190613872565b600060405180830381600087803b158015610de057600080fd5b505af1158015610df4573d6000803e3d6000fd5b505050508373ffffffffffffffffffffffffffffffffffffffff166340c10f1933836040518363ffffffff1660e01b8152600401610e3392919061368c565b600060405180830381600087803b158015610e4d57600080fd5b505af1158015610e61573d6000803e3d6000fd5b50505050610e6f8683612a55565b610e798482612af4565b50505050505050565b6000600854905090565b600560008373ffffffffffffffffffffffffffffffffffffffff1673ffffffffffffffffffffffffffffffffffffffff16815260200190815260200160002060009054906101000a900460ff16610f18576040517f08c379a0000000000000000000000000000000000000000000000000000000008152600401610f0f90613852565b60405180910390fd5b60003411610f5b576040517f08c379a0000000000000000000000000000000000000000000000000000000008152600401610f5290613792565b60405180910390fd5b6000610f88633b9aca00610f7a6002543461298a90919063ffffffff16565b6129a090919063ffffffff16565b90506000611006600360008673ffffffffffffffffffffffffffffffffffffffff1673ffffffffffffffffffffffffffffffffffffffff16815260200190815260200160002054610ff8633b9aca00610fea86346129b690919063ffffffff16565b61298a90919063ffffffff16565b6129a090919063ffffffff16565b90508281101561104b576040517f08c379a0000000000000000000000000000000000000000000000000000000008152600401611042906137d2565b60405180910390fd5b8373ffffffffffffffffffffffffffffffffffffffff166340c10f1933836040518363ffffffff1660e01b815260040161108692919061368c565b600060405180830381600087803b1580156110a057600080fd5b505af11580156110b4573d6000803e3d6000fd5b505050506110c28482612af4565b6000600c60009054906101000a900473ffffffffffffffffffffffffffffffffffffffff1690508073ffffffffffffffffffffffffffffffffffffffff166108fc849081150290604051600060405180830381858888f1935050505015801561112f573d6000803e3d6000fd5b505050505050565b600160003373ffffffffffffffffffffffffffffffffffffffff1673ffffffffffffffffffffffffffffffffffffffff16815260200190815260200160002060009054906101000a900460ff166111c3576040517f08c379a00000000000000000000000000000000000000000000000000000000081526004016111ba906136f2565b60405180910390fd5b80600360008473ffffffffffffffffffffffffffffffffffffffff1673ffffffffffffffffffffffffffffffffffffffff168152602001908152602001600020819055505050565b600160003373ffffffffffffffffffffffffffffffffffffffff1673ffffffffffffffffffffffffffffffffffffffff16815260200190815260200160002060009054906101000a900460ff16611297576040517f08c379a000000000000000000000000000000000000000000000000000000000815260040161128e906136f2565b60405180910390fd5b80600a60006101000a81548173ffffffffffffffffffffffffffffffffffffffff021916908373ffffffffffffffffffffffffffffffffffffffff16021790555050565b600160003373ffffffffffffffffffffffffffffffffffffffff1673ffffffffffffffffffffffffffffffffffffffff16815260200190815260200160002060009054906101000a900460ff16611367576040517f08c379a000000000000000000000000000000000000000000000000000000000815260040161135e906136f2565b60405180910390fd5b600660008273ffffffffffffffffffffffffffffffffffffffff1673ffffffffffffffffffffffffffffffffffffffff16815260200190815260200160002060009054906101000a900460ff166113f3576040517f08c379a00000000000000000000000000000000000000000000000000000000081526004016113ea90613852565b60405180910390fd5b6114008383836000612b93565b505050565b600160003373ffffffffffffffffffffffffffffffffffffffff1673ffffffffffffffffffffffffffffffffffffffff16815260200190815260200160002060009054906101000a900460ff16611491576040517f08c379a0000000000000000000000000000000000000000000000000000000008152600401611488906136f2565b60405180910390fd5b6000600460008373ffffffffffffffffffffffffffffffffffffffff1673ffffffffffffffffffffffffffffffffffffffff16815260200190815260200160002060006101000a81548160ff02191690831515021790555050565b600080600360008573ffffffffffffffffffffffffffffffffffffffff1673ffffffffffffffffffffffffffffffffffffffff1681526020019081526020016000205411801561157b57506000600360008473ffffffffffffffffffffffffffffffffffffffff1673ffffffffffffffffffffffffffffffffffffffff16815260200190815260200160002054115b6115ba576040517f08c379a00000000000000000000000000000000000000000000000000000000081526004016115b1906137f2565b60405180910390fd5b61165d600360008473ffffffffffffffffffffffffffffffffffffffff1673ffffffffffffffffffffffffffffffffffffffff1681526020019081526020016000205461164f600360008773ffffffffffffffffffffffffffffffffffffffff1673ffffffffffffffffffffffffffffffffffffffff16815260200190815260200160002054876129a090919063ffffffff16565b61298a90919063ffffffff16565b90509392505050565b60036020528060005260406000206000915090505481565b600160003373ffffffffffffffffffffffffffffffffffffffff1673ffffffffffffffffffffffffffffffffffffffff16815260200190815260200160002060009054906101000a900460ff1661170a576040517f08c379a0000000000000000000000000000000000000000000000000000000008152600401611701906136f2565b60405180910390fd5b8060028190555050565b600460008273ffffffffffffffffffffffffffffffffffffffff1673ffffffffffffffffffffffffffffffffffffffff16815260200190815260200160002060009054906101000a900460ff166117a0576040517f08c379a000000000000000000000000000000000000000000000000000000000815260040161179790613852565b60405180910390fd5b6117ae838383600254612b93565b505050565b6117bb612e92565b73ffffffffffffffffffffffffffffffffffffffff166117d9611e0c565b73ffffffffffffffffffffffffffffffffffffffff161461182f576040517f08c379a0000000000000000000000000000000000000000000000000000000008152600401611826906137b2565b60405180910390fd5b6118396000612e9a565b565b600960009054906101000a900473ffffffffffffffffffffffffffffffffffffffff1673ffffffffffffffffffffffffffffffffffffffff168373ffffffffffffffffffffffffffffffffffffffff161480156118e55750600a60009054906101000a900473ffffffffffffffffffffffffffffffffffffffff1673ffffffffffffffffffffffffffffffffffffffff168173ffffffffffffffffffffffffffffffffffffffff16145b611924576040517f08c379a000000000000000000000000000000000000000000000000000000000815260040161191b90613712565b60405180910390fd5b60008411611967576040517f08c379a000000000000000000000000000000000000000000000000000000000815260040161195e90613792565b60405180910390fd5b6000600360008573ffffffffffffffffffffffffffffffffffffffff1673ffffffffffffffffffffffffffffffffffffffff168152602001908152602001600020541180156119f557506000600360008373ffffffffffffffffffffffffffffffffffffffff1673ffffffffffffffffffffffffffffffffffffffff16815260200190815260200160002054115b611a34576040517f08c379a0000000000000000000000000000000000000000000000000000000008152600401611a2b906137f2565b60405180910390fd5b6000611ad9600360008473ffffffffffffffffffffffffffffffffffffffff1673ffffffffffffffffffffffffffffffffffffffff16815260200190815260200160002054611acb600360008873ffffffffffffffffffffffffffffffffffffffff1673ffffffffffffffffffffffffffffffffffffffff168152602001908152602001600020548861298a90919063ffffffff16565b6129a090919063ffffffff16565b905082811015611b1e576040517f08c379a0000000000000000000000000000000000000000000000000000000008152600401611b15906137d2565b60405180910390fd5b611b4b3330878773ffffffffffffffffffffffffffffffffffffffff166129cc909392919063ffffffff16565b8373ffffffffffffffffffffffffffffffffffffffff166342966c68866040518263ffffffff1660e01b8152600401611b849190613872565b600060405180830381600087803b158015611b9e57600080fd5b505af1158015611bb2573d6000803e3d6000fd5b505050508173ffffffffffffffffffffffffffffffffffffffff166340c10f1933836040518363ffffffff1660e01b8152600401611bf192919061368c565b600060405180830381600087803b158015611c0b57600080fd5b505af1158015611c1f573d6000803e3d6000fd5b50505050611c2d8486612a55565b611c378282612af4565b5050505050565b600160003373ffffffffffffffffffffffffffffffffffffffff1673ffffffffffffffffffffffffffffffffffffffff16815260200190815260200160002060009054906101000a900460ff16611cca576040517f08c379a0000000000000000000000000000000000000000000000000000000008152600401611cc1906136f2565b60405180910390fd5b6000600660008373ffffffffffffffffffffffffffffffffffffffff1673ffffffffffffffffffffffffffffffffffffffff16815260200190815260200160002060006101000a81548160ff02191690831515021790555050565b600160003373ffffffffffffffffffffffffffffffffffffffff1673ffffffffffffffffffffffffffffffffffffffff16815260200190815260200160002060009054906101000a900460ff16611db1576040517f08c379a0000000000000000000000000000000000000000000000000000000008152600401611da8906136f2565b60405180910390fd5b6001600560008373ffffffffffffffffffffffffffffffffffffffff1673ffffffffffffffffffffffffffffffffffffffff16815260200190815260200160002060006101000a81548160ff02191690831515021790555050565b60008060009054906101000a900473ffffffffffffffffffffffffffffffffffffffff16905090565b600160003373ffffffffffffffffffffffffffffffffffffffff1673ffffffffffffffffffffffffffffffffffffffff16815260200190815260200160002060009054906101000a900460ff16611ec1576040517f08c379a0000000000000000000000000000000000000000000000000000000008152600401611eb8906136f2565b60405180910390fd5b80600960006101000a81548173ffffffffffffffffffffffffffffffffffffffff021916908373ffffffffffffffffffffffffffffffffffffffff16021790555050565b600160003373ffffffffffffffffffffffffffffffffffffffff1673ffffffffffffffffffffffffffffffffffffffff16815260200190815260200160002060009054906101000a900460ff16611f91576040517f08c379a0000000000000000000000000000000000000000000000000000000008152600401611f88906136f2565b60405180910390fd5b3373ffffffffffffffffffffffffffffffffffffffff166108fc829081150290604051600060405180830381858888f19350505050158015611fd7573d6000803e3d6000fd5b5050565b611fe3612e92565b73ffffffffffffffffffffffffffffffffffffffff16612001611e0c565b73ffffffffffffffffffffffffffffffffffffffff1614612057576040517f08c379a000000000000000000000000000000000000000000000000000000000815260040161204e906137b2565b60405180910390fd5b600073ffffffffffffffffffffffffffffffffffffffff168173ffffffffffffffffffffffffffffffffffffffff1614156120c7576040517f08c379a00000000000000000000000000000000000000000000000000000000081526004016120be90613732565b60405180910390fd5b60018060008373ffffffffffffffffffffffffffffffffffffffff1673ffffffffffffffffffffffffffffffffffffffff16815260200190815260200160002060006101000a81548160ff02191690831515021790555050565b600160003373ffffffffffffffffffffffffffffffffffffffff1673ffffffffffffffffffffffffffffffffffffffff16815260200190815260200160002060009054906101000a900460ff166121ad576040517f08c379a00000000000000000000000000000000000000000000000000000000081526004016121a4906136f2565b60405180910390fd5b8173ffffffffffffffffffffffffffffffffffffffff1663a9059cbb33836040518363ffffffff1660e01b81526004016121e892919061368c565b602060405180830381600087803b15801561220257600080fd5b505af1158015612216573d6000803e3d6000fd5b505050506040513d601f19601f8201168201806040525081019061223a9190613295565b505050565b612247612e92565b73ffffffffffffffffffffffffffffffffffffffff16612265611e0c565b73ffffffffffffffffffffffffffffffffffffffff16146122bb576040517f08c379a00000000000000000000000000000000000000000000000000000000081526004016122b2906137b2565b60405180910390fd5b600073ffffffffffffffffffffffffffffffffffffffff168173ffffffffffffffffffffffffffffffffffffffff16141561232b576040517f08c379a000000000000000000000000000000000000000000000000000000000815260040161232290613732565b60405180910390fd5b6000600160008373ffffffffffffffffffffffffffffffffffffffff1673ffffffffffffffffffffffffffffffffffffffff16815260200190815260200160002060006101000a81548160ff02191690831515021790555050565b600160003373ffffffffffffffffffffffffffffffffffffffff1673ffffffffffffffffffffffffffffffffffffffff16815260200190815260200160002060009054906101000a900460ff16612412576040517f08c379a0000000000000000000000000000000000000000000000000000000008152600401612409906136f2565b60405180910390fd5b80600c60006101000a81548173ffffffffffffffffffffffffffffffffffffffff021916908373ffffffffffffffffffffffffffffffffffffffff16021790555050565b60076020528060005260406000206000915090508060000154908060010154905082565b600160003373ffffffffffffffffffffffffffffffffffffffff1673ffffffffffffffffffffffffffffffffffffffff16815260200190815260200160002060009054906101000a900460ff16612506576040517f08c379a00000000000000000000000000000000000000000000000000000000081526004016124fd906136f2565b60405180910390fd5b6000600560008373ffffffffffffffffffffffffffffffffffffffff1673ffffffffffffffffffffffffffffffffffffffff16815260200190815260200160002060006101000a81548160ff02191690831515021790555050565b6000600254905090565b6000600360008373ffffffffffffffffffffffffffffffffffffffff1673ffffffffffffffffffffffffffffffffffffffff168152602001908152602001600020549050919050565b60056020528060005260406000206000915054906101000a900460ff1681565b600160003373ffffffffffffffffffffffffffffffffffffffff1673ffffffffffffffffffffffffffffffffffffffff16815260200190815260200160002060009054906101000a900460ff16612660576040517f08c379a0000000000000000000000000000000000000000000000000000000008152600401612657906136f2565b60405180910390fd5b6001600460008373ffffffffffffffffffffffffffffffffffffffff1673ffffffffffffffffffffffffffffffffffffffff16815260200190815260200160002060006101000a81548160ff02191690831515021790555050565b600160003373ffffffffffffffffffffffffffffffffffffffff1673ffffffffffffffffffffffffffffffffffffffff16815260200190815260200160002060009054906101000a900460ff16612747576040517f08c379a000000000000000000000000000000000000000000000000000000000815260040161273e906136f2565b60405180910390fd5b6001600660008373ffffffffffffffffffffffffffffffffffffffff1673ffffffffffffffffffffffffffffffffffffffff16815260200190815260200160002060006101000a81548160ff02191690831515021790555050565b6127aa612e92565b73ffffffffffffffffffffffffffffffffffffffff166127c8611e0c565b73ffffffffffffffffffffffffffffffffffffffff161461281e576040517f08c379a0000000000000000000000000000000000000000000000000000000008152600401612815906137b2565b60405180910390fd5b600073ffffffffffffffffffffffffffffffffffffffff168173ffffffffffffffffffffffffffffffffffffffff16141561288e576040517f08c379a000000000000000000000000000000000000000000000000000000000815260040161288590613752565b60405180910390fd5b61289781612e9a565b50565b600160003373ffffffffffffffffffffffffffffffffffffffff1673ffffffffffffffffffffffffffffffffffffffff16815260200190815260200160002060009054906101000a900460ff16612926576040517f08c379a000000000000000000000000000000000000000000000000000000000815260040161291d906136f2565b60405180910390fd5b80600b60006101000a81548173ffffffffffffffffffffffffffffffffffffffff021916908373ffffffffffffffffffffffffffffffffffffffff16021790555050565b60046020528060005260406000206000915054906101000a900460ff1681565b60008183612998919061396f565b905092915050565b600081836129ae919061393e565b905092915050565b600081836129c491906139c9565b905092915050565b612a4f846323b872dd60e01b8585856040516024016129ed93929190613655565b604051602081830303815290604052907bffffffffffffffffffffffffffffffffffffffffffffffffffffffff19166020820180517bffffffffffffffffffffffffffffffffffffffffffffffffffffffff8381831617835250505050612f5e565b50505050565b612aaa81600760008573ffffffffffffffffffffffffffffffffffffffff1673ffffffffffffffffffffffffffffffffffffffff1681526020019081526020016000206001015461302590919063ffffffff16565b600760008473ffffffffffffffffffffffffffffffffffffffff1673ffffffffffffffffffffffffffffffffffffffff168152602001908152602001600020600101819055505050565b612b4981600760008573ffffffffffffffffffffffffffffffffffffffff1673ffffffffffffffffffffffffffffffffffffffff1681526020019081526020016000206000015461302590919063ffffffff16565b600760008473ffffffffffffffffffffffffffffffffffffffff1673ffffffffffffffffffffffffffffffffffffffff168152602001908152602001600020600001819055505050565b60008411612bd6576040517f08c379a0000000000000000000000000000000000000000000000000000000008152600401612bcd90613792565b60405180910390fd5b6000600360008473ffffffffffffffffffffffffffffffffffffffff1673ffffffffffffffffffffffffffffffffffffffff1681526020019081526020016000205411612c58576040517f08c379a0000000000000000000000000000000000000000000000000000000008152600401612c4f906137f2565b60405180910390fd5b6000612c83633b9aca00612c75848861298a90919063ffffffff16565b6129a090919063ffffffff16565b90506000612c9a82876129b690919063ffffffff16565b90506000612d06600360008773ffffffffffffffffffffffffffffffffffffffff1673ffffffffffffffffffffffffffffffffffffffff16815260200190815260200160002054612cf8633b9aca00856129a090919063ffffffff16565b61298a90919063ffffffff16565b905085811015612d4b576040517f08c379a0000000000000000000000000000000000000000000000000000000008152600401612d42906137d2565b60405180910390fd5b612d783330848873ffffffffffffffffffffffffffffffffffffffff166129cc909392919063ffffffff16565b612dc733600c60009054906101000a900473ffffffffffffffffffffffffffffffffffffffff16858873ffffffffffffffffffffffffffffffffffffffff166129cc909392919063ffffffff16565b8473ffffffffffffffffffffffffffffffffffffffff166342966c68836040518263ffffffff1660e01b8152600401612e009190613872565b600060405180830381600087803b158015612e1a57600080fd5b505af1158015612e2e573d6000803e3d6000fd5b50505050612e3c8583612a55565b60003390508073ffffffffffffffffffffffffffffffffffffffff166108fc839081150290604051600060405180830381858888f19350505050158015612e87573d6000803e3d6000fd5b505050505050505050565b600033905090565b60008060009054906101000a900473ffffffffffffffffffffffffffffffffffffffff169050816000806101000a81548173ffffffffffffffffffffffffffffffffffffffff021916908373ffffffffffffffffffffffffffffffffffffffff1602179055508173ffffffffffffffffffffffffffffffffffffffff168173ffffffffffffffffffffffffffffffffffffffff167f8be0079c531659141344cd1fd0a4f28419497f9722a3daafe3b4186f6b6457e060405160405180910390a35050565b6000612fc0826040518060400160405280602081526020017f5361666545524332303a206c6f772d6c6576656c2063616c6c206661696c65648152508573ffffffffffffffffffffffffffffffffffffffff1661303b9092919063ffffffff16565b90506000815111156130205780806020019051810190612fe09190613295565b61301f576040517f08c379a000000000000000000000000000000000000000000000000000000000815260040161301690613832565b60405180910390fd5b5b505050565b6000818361303391906138e8565b905092915050565b606061304a8484600085613053565b90509392505050565b606082471015613098576040517f08c379a000000000000000000000000000000000000000000000000000000000815260040161308f90613772565b60405180910390fd5b6130a185613167565b6130e0576040517f08c379a00000000000000000000000000000000000000000000000000000000081526004016130d790613812565b60405180910390fd5b6000808673ffffffffffffffffffffffffffffffffffffffff1685876040516131099190613623565b60006040518083038185875af1925050503d8060008114613146576040519150601f19603f3d011682016040523d82523d6000602084013e61314b565b606091505b509150915061315b82828661318a565b92505050949350505050565b6000808273ffffffffffffffffffffffffffffffffffffffff163b119050919050565b6060831561319a578290506131ea565b6000835111156131ad5782518084602001fd5b816040517f08c379a00000000000000000000000000000000000000000000000000000000081526004016131e191906136d0565b60405180910390fd5b9392505050565b60008135905061320081613d6b565b92915050565b60008151905061321581613d82565b92915050565b60008135905061322a81613d99565b92915050565b60006020828403121561324257600080fd5b6000613250848285016131f1565b91505092915050565b6000806040838503121561326c57600080fd5b600061327a858286016131f1565b925050602061328b8582860161321b565b9150509250929050565b6000602082840312156132a757600080fd5b60006132b584828501613206565b91505092915050565b6000602082840312156132d057600080fd5b60006132de8482850161321b565b91505092915050565b6000806000606084860312156132fc57600080fd5b600061330a8682870161321b565b935050602061331b868287016131f1565b925050604061332c868287016131f1565b9150509250925092565b6000806000806080858703121561334c57600080fd5b600061335a8782880161321b565b945050602061336b878288016131f1565b935050604061337c8782880161321b565b925050606061338d878288016131f1565b91505092959194509250565b6000806000606084860312156133ae57600080fd5b60006133bc8682870161321b565b93505060206133cd8682870161321b565b92505060406133de868287016131f1565b9150509250925092565b6133f1816139fd565b82525050565b61340081613a0f565b82525050565b6000613411826138b6565b61341b81856138cc565b935061342b818560208601613a45565b80840191505092915050565b6000613442826138c1565b61344c81856138d7565b935061345c818560208601613a45565b61346581613ad6565b840191505092915050565b600061347d6018836138d7565b915061348882613ae7565b602082019050919050565b60006134a06017836138d7565b91506134ab82613b10565b602082019050919050565b60006134c3602b836138d7565b91506134ce82613b39565b604082019050919050565b60006134e66026836138d7565b91506134f182613b88565b604082019050919050565b60006135096026836138d7565b915061351482613bd7565b604082019050919050565b600061352c6013836138d7565b915061353782613c26565b602082019050919050565b600061354f6020836138d7565b915061355a82613c4f565b602082019050919050565b60006135726011836138d7565b915061357d82613c78565b602082019050919050565b6000613595600d836138d7565b91506135a082613ca1565b602082019050919050565b60006135b8601d836138d7565b91506135c382613cca565b602082019050919050565b60006135db602a836138d7565b91506135e682613cf3565b604082019050919050565b60006135fe6011836138d7565b915061360982613d42565b602082019050919050565b61361d81613a3b565b82525050565b600061362f8284613406565b915081905092915050565b600060208201905061364f60008301846133e8565b92915050565b600060608201905061366a60008301866133e8565b61367760208301856133e8565b6136846040830184613614565b949350505050565b60006040820190506136a160008301856133e8565b6136ae6020830184613614565b9392505050565b60006020820190506136ca60008301846133f7565b92915050565b600060208201905081810360008301526136ea8184613437565b905092915050565b6000602082019050818103600083015261370b81613470565b9050919050565b6000602082019050818103600083015261372b81613493565b9050919050565b6000602082019050818103600083015261374b816134b6565b9050919050565b6000602082019050818103600083015261376b816134d9565b9050919050565b6000602082019050818103600083015261378b816134fc565b9050919050565b600060208201905081810360008301526137ab8161351f565b9050919050565b600060208201905081810360008301526137cb81613542565b9050919050565b600060208201905081810360008301526137eb81613565565b9050919050565b6000602082019050818103600083015261380b81613588565b9050919050565b6000602082019050818103600083015261382b816135ab565b9050919050565b6000602082019050818103600083015261384b816135ce565b9050919050565b6000602082019050818103600083015261386b816135f1565b9050919050565b60006020820190506138876000830184613614565b92915050565b60006040820190506138a26000830185613614565b6138af6020830184613614565b9392505050565b600081519050919050565b600081519050919050565b600081905092915050565b600082825260208201905092915050565b60006138f382613a3b565b91506138fe83613a3b565b9250827fffffffffffffffffffffffffffffffffffffffffffffffffffffffffffffffff0382111561393357613932613a78565b5b828201905092915050565b600061394982613a3b565b915061395483613a3b565b92508261396457613963613aa7565b5b828204905092915050565b600061397a82613a3b565b915061398583613a3b565b9250817fffffffffffffffffffffffffffffffffffffffffffffffffffffffffffffffff04831182151516156139be576139bd613a78565b5b828202905092915050565b60006139d482613a3b565b91506139df83613a3b565b9250828210156139f2576139f1613a78565b5b828203905092915050565b6000613a0882613a1b565b9050919050565b60008115159050919050565b600073ffffffffffffffffffffffffffffffffffffffff82169050919050565b6000819050919050565b60005b83811015613a63578082015181840152602081019050613a48565b83811115613a72576000848401525b50505050565b7f4e487b7100000000000000000000000000000000000000000000000000000000600052601160045260246000fd5b7f4e487b7100000000000000000000000000000000000000000000000000000000600052601260045260246000fd5b6000601f19601f8301169050919050565b7f4f776e65724f70657261746f723a20216f70657261746f720000000000000000600082015250565b7f546f6b656e2061646472657373206e6f74206d61746368000000000000000000600082015250565b7f4f776e65724f70657261746f723a206f70657261746f7220697320746865207a60008201527f65726f2061646472657373000000000000000000000000000000000000000000602082015250565b7f4f776e61626c653a206e6577206f776e657220697320746865207a65726f206160008201527f6464726573730000000000000000000000000000000000000000000000000000602082015250565b7f416464726573733a20696e73756666696369656e742062616c616e636520666f60008201527f722063616c6c0000000000000000000000000000000000000000000000000000602082015250565b7f4e6f7420706f736974697665206e756d62657200000000000000000000000000600082015250565b7f4f776e61626c653a2063616c6c6572206973206e6f7420746865206f776e6572600082015250565b7f736c697070616765206578636565646564000000000000000000000000000000600082015250565b7f5072696365206e6f742073657400000000000000000000000000000000000000600082015250565b7f416464726573733a2063616c6c20746f206e6f6e2d636f6e7472616374000000600082015250565b7f5361666545524332303a204552433230206f7065726174696f6e20646964206e60008201527f6f74207375636365656400000000000000000000000000000000000000000000602082015250565b7f546f6b656e206e6f7420737570706f7274000000000000000000000000000000600082015250565b613d74816139fd565b8114613d7f57600080fd5b50565b613d8b81613a0f565b8114613d9657600080fd5b50565b613da281613a3b565b8114613dad57600080fd5b5056fea26469706673582212209721087ca3a8800caaf136c823a563b4bb9d3b78e3483f4c25b3f434b57bb8fe64736f6c63430008040033",
	"linkReferences": {},
	"deployedLinkReferences": {}
}