{
  "_format": "hh-sol-artifact-1",
  "contractName": "TokenPRZ",
  "sourceName": "contracts/TokenPRZ.sol",
  "abi": [
    {
      "type": "constructor",
      "stateMutability": "nonpayable",
      "inputs": []
    },
    {
      "type": "event",
      "name": "Approval",
      "inputs": [
        {
          "type": "address",
          "name": "owner",
          "internalType": "address",
          "indexed": true
        },
        {
          "type": "address",
          "name": "spender",
          "internalType": "address",
          "indexed": true
        },
        {
          "type": "uint256",
          "name": "value",
          "internalType": "uint256",
          "indexed": false
        }
      ],
      "anonymous": false
    },
    {
      "type": "event",
      "name": "OwnershipTransferred",
      "inputs": [
        {
          "type": "address",
          "name": "previousOwner",
          "internalType": "address",
          "indexed": true
        },
        {
          "type": "address",
          "name": "newOwner",
          "internalType": "address",
          "indexed": true
        }
      ],
      "anonymous": false
    },
    {
      "type": "event",
      "name": "Paused",
      "inputs": [
        {
          "type": "address",
          "name": "account",
          "internalType": "address",
          "indexed": false
        }
      ],
      "anonymous": false
    },
    {
      "type": "event",
      "name": "Transfer",
      "inputs": [
        {
          "type": "address",
          "name": "from",
          "internalType": "address",
          "indexed": true
        },
        {
          "type": "address",
          "name": "to",
          "internalType": "address",
          "indexed": true
        },
        {
          "type": "uint256",
          "name": "value",
          "internalType": "uint256",
          "indexed": false
        }
      ],
      "anonymous": false
    },
    {
      "type": "event",
      "name": "Unpaused",
      "inputs": [
        {
          "type": "address",
          "name": "account",
          "internalType": "address",
          "indexed": false
        }
      ],
      "anonymous": false
    },
    {
      "type": "function",
      "stateMutability": "nonpayable",
      "outputs": [],
      "name": "addOperator",
      "inputs": [
        {
          "type": "address",
          "name": "operator",
          "internalType": "address"
        }
      ]
    },
    {
      "type": "function",
      "stateMutability": "view",
      "outputs": [
        {
          "type": "uint256",
          "name": "",
          "internalType": "uint256"
        }
      ],
      "name": "allowance",
      "inputs": [
        {
          "type": "address",
          "name": "owner",
          "internalType": "address"
        },
        {
          "type": "address",
          "name": "spender",
          "internalType": "address"
        }
      ]
    },
    {
      "type": "function",
      "stateMutability": "nonpayable",
      "outputs": [
        {
          "type": "bool",
          "name": "",
          "internalType": "bool"
        }
      ],
      "name": "approve",
      "inputs": [
        {
          "type": "address",
          "name": "spender",
          "internalType": "address"
        },
        {
          "type": "uint256",
          "name": "amount",
          "internalType": "uint256"
        }
      ]
    },
    {
      "type": "function",
      "stateMutability": "view",
      "outputs": [
        {
          "type": "uint256",
          "name": "",
          "internalType": "uint256"
        }
      ],
      "name": "balanceOf",
      "inputs": [
        {
          "type": "address",
          "name": "account",
          "internalType": "address"
        }
      ]
    },
    {
      "type": "function",
      "stateMutability": "nonpayable",
      "outputs": [],
      "name": "burn",
      "inputs": [
        {
          "type": "uint256",
          "name": "amount",
          "internalType": "uint256"
        }
      ]
    },
    {
      "type": "function",
      "stateMutability": "view",
      "outputs": [
        {
          "type": "uint256",
          "name": "",
          "internalType": "uint256"
        }
      ],
      "name": "cap",
      "inputs": []
    },
    {
      "type": "function",
      "stateMutability": "view",
      "outputs": [
        {
          "type": "uint8",
          "name": "",
          "internalType": "uint8"
        }
      ],
      "name": "decimals",
      "inputs": []
    },
    {
      "type": "function",
      "stateMutability": "nonpayable",
      "outputs": [
        {
          "type": "bool",
          "name": "",
          "internalType": "bool"
        }
      ],
      "name": "decreaseAllowance",
      "inputs": [
        {
          "type": "address",
          "name": "spender",
          "internalType": "address"
        },
        {
          "type": "uint256",
          "name": "subtractedValue",
          "internalType": "uint256"
        }
      ]
    },
    {
      "type": "function",
      "stateMutability": "nonpayable",
      "outputs": [
        {
          "type": "bool",
          "name": "",
          "internalType": "bool"
        }
      ],
      "name": "increaseAllowance",
      "inputs": [
        {
          "type": "address",
          "name": "spender",
          "internalType": "address"
        },
        {
          "type": "uint256",
          "name": "addedValue",
          "internalType": "uint256"
        }
      ]
    },
    {
      "type": "function",
      "stateMutability": "nonpayable",
      "outputs": [],
      "name": "mint",
      "inputs": [
        {
          "type": "address",
          "name": "to",
          "internalType": "address"
        },
        {
          "type": "uint256",
          "name": "amount",
          "internalType": "uint256"
        }
      ]
    },
    {
      "type": "function",
      "stateMutability": "view",
      "outputs": [
        {
          "type": "string",
          "name": "",
          "internalType": "string"
        }
      ],
      "name": "name",
      "inputs": []
    },
    {
      "type": "function",
      "stateMutability": "view",
      "outputs": [
        {
          "type": "bool",
          "name": "",
          "internalType": "bool"
        }
      ],
      "name": "operators",
      "inputs": [
        {
          "type": "address",
          "name": "",
          "internalType": "address"
        }
      ]
    },
    {
      "type": "function",
      "stateMutability": "view",
      "outputs": [
        {
          "type": "address",
          "name": "",
          "internalType": "address"
        }
      ],
      "name": "owner",
      "inputs": []
    },
    {
      "type": "function",
      "stateMutability": "nonpayable",
      "outputs": [],
      "name": "pause",
      "inputs": []
    },
    {
      "type": "function",
      "stateMutability": "view",
      "outputs": [
        {
          "type": "bool",
          "name": "",
          "internalType": "bool"
        }
      ],
      "name": "paused",
      "inputs": []
    },
    {
      "type": "function",
      "stateMutability": "nonpayable",
      "outputs": [],
      "name": "removeOperator",
      "inputs": [
        {
          "type": "address",
          "name": "operator",
          "internalType": "address"
        }
      ]
    },
    {
      "type": "function",
      "stateMutability": "nonpayable",
      "outputs": [],
      "name": "renounceOwnership",
      "inputs": []
    },
    {
      "type": "function",
      "stateMutability": "view",
      "outputs": [
        {
          "type": "string",
          "name": "",
          "internalType": "string"
        }
      ],
      "name": "symbol",
      "inputs": []
    },
    {
      "type": "function",
      "stateMutability": "view",
      "outputs": [
        {
          "type": "uint256",
          "name": "",
          "internalType": "uint256"
        }
      ],
      "name": "totalSupply",
      "inputs": []
    },
    {
      "type": "function",
      "stateMutability": "nonpayable",
      "outputs": [
        {
          "type": "bool",
          "name": "",
          "internalType": "bool"
        }
      ],
      "name": "transfer",
      "inputs": [
        {
          "type": "address",
          "name": "to",
          "internalType": "address"
        },
        {
          "type": "uint256",
          "name": "amount",
          "internalType": "uint256"
        }
      ]
    },
    {
      "type": "function",
      "stateMutability": "nonpayable",
      "outputs": [
        {
          "type": "bool",
          "name": "",
          "internalType": "bool"
        }
      ],
      "name": "transferFrom",
      "inputs": [
        {
          "type": "address",
          "name": "from",
          "internalType": "address"
        },
        {
          "type": "address",
          "name": "to",
          "internalType": "address"
        },
        {
          "type": "uint256",
          "name": "amount",
          "internalType": "uint256"
        }
      ]
    },
    {
      "type": "function",
      "stateMutability": "nonpayable",
      "outputs": [],
      "name": "transferOwnership",
      "inputs": [
        {
          "type": "address",
          "name": "newOwner",
          "internalType": "address"
        }
      ]
    },
    {
      "type": "function",
      "stateMutability": "nonpayable",
      "outputs": [],
      "name": "unpause",
      "inputs": []
    }
  ],
  "bytecode": "0x60806040523480156200001157600080fd5b506040518060400160405280600381526020017f50525a00000000000000000000000000000000000000000000000000000000008152506040518060400160405280600381526020017f50525a00000000000000000000000000000000000000000000000000000000008152506200009e62000092620000f360201b60201c565b620000fb60201b60201c565b8160059080519060200190620000b6929190620001bf565b508060069080519060200190620000cf929190620001bf565b5050506000600760006101000a81548160ff021916908315150217905550620002d4565b600033905090565b60008060009054906101000a900473ffffffffffffffffffffffffffffffffffffffff169050816000806101000a81548173ffffffffffffffffffffffffffffffffffffffff021916908373ffffffffffffffffffffffffffffffffffffffff1602179055508173ffffffffffffffffffffffffffffffffffffffff168173ffffffffffffffffffffffffffffffffffffffff167f8be0079c531659141344cd1fd0a4f28419497f9722a3daafe3b4186f6b6457e060405160405180910390a35050565b828054620001cd906200026f565b90600052602060002090601f016020900481019282620001f157600085556200023d565b82601f106200020c57805160ff19168380011785556200023d565b828001600101855582156200023d579182015b828111156200023c5782518255916020019190600101906200021f565b5b5090506200024c919062000250565b5090565b5b808211156200026b57600081600090555060010162000251565b5090565b600060028204905060018216806200028857607f821691505b602082108114156200029f576200029e620002a5565b5b50919050565b7f4e487b7100000000000000000000000000000000000000000000000000000000600052602260045260246000fd5b6126d480620002e46000396000f3fe608060405234801561001057600080fd5b506004361061014d5760003560e01c80635c975abb116100c35780639870d7fe1161007c5780639870d7fe1461036a578063a457c2d714610386578063a9059cbb146103b6578063ac8a584a146103e6578063dd62ed3e14610402578063f2fde38b146104325761014d565b80635c975abb146102cc57806370a08231146102ea578063715018a61461031a5780638456cb59146103245780638da5cb5b1461032e57806395d89b411461034c5761014d565b8063313ce56711610115578063313ce5671461021e578063355274ea1461023c578063395093511461025a5780633f4ba83a1461028a57806340c10f191461029457806342966c68146102b05761014d565b806306fdde0314610152578063095ea7b31461017057806313e7c9d8146101a057806318160ddd146101d057806323b872dd146101ee575b600080fd5b61015a61044e565b6040516101679190611d85565b60405180910390f35b61018a600480360381019061018591906119ff565b6104e0565b6040516101979190611d6a565b60405180910390f35b6101ba60048036038101906101b5919061194b565b610503565b6040516101c79190611d6a565b60405180910390f35b6101d8610523565b6040516101e59190611fe7565b60405180910390f35b610208600480360381019061020391906119b0565b61052d565b6040516102159190611d6a565b60405180910390f35b61022661055c565b6040516102339190612002565b60405180910390f35b610244610565565b6040516102519190611fe7565b60405180910390f35b610274600480360381019061026f91906119ff565b610575565b6040516102819190611d6a565b60405180910390f35b6102926105ac565b005b6102ae60048036038101906102a991906119ff565b610632565b005b6102ca60048036038101906102c59190611a3b565b610709565b005b6102d4610716565b6040516102e19190611d6a565b60405180910390f35b61030460048036038101906102ff919061194b565b61072d565b6040516103119190611fe7565b60405180910390f35b610322610776565b005b61032c6107fe565b005b610336610884565b6040516103439190611d4f565b60405180910390f35b6103546108ad565b6040516103619190611d85565b60405180910390f35b610384600480360381019061037f919061194b565b61093f565b005b6103a0600480360381019061039b91906119ff565b610a85565b6040516103ad9190611d6a565b60405180910390f35b6103d060048036038101906103cb91906119ff565b610afc565b6040516103dd9190611d6a565b60405180910390f35b61040060048036038101906103fb919061194b565b610b1f565b005b61041c60048036038101906104179190611974565b610c66565b6040516104299190611fe7565b60405180910390f35b61044c6004803603810190610447919061194b565b610ced565b005b60606005805461045d9061214b565b80601f01602080910402602001604051908101604052809291908181526020018280546104899061214b565b80156104d65780601f106104ab576101008083540402835291602001916104d6565b820191906000526020600020905b8154815290600101906020018083116104b957829003601f168201915b5050505050905090565b6000806104eb610de5565b90506104f8818585610ded565b600191505092915050565b60016020528060005260406000206000915054906101000a900460ff1681565b6000600454905090565b600080610538610de5565b9050610545858285610fb8565b610550858585611044565b60019150509392505050565b60006012905090565b6b033b2e3c9fd0803ce800000081565b600080610580610de5565b90506105a18185856105928589610c66565b61059c9190612039565b610ded565b600191505092915050565b6105b4610de5565b73ffffffffffffffffffffffffffffffffffffffff166105d2610884565b73ffffffffffffffffffffffffffffffffffffffff1614610628576040517f08c379a000000000000000000000000000000000000000000000000000000000815260040161061f90611ee7565b60405180910390fd5b6106306112c8565b565b600160003373ffffffffffffffffffffffffffffffffffffffff1673ffffffffffffffffffffffffffffffffffffffff16815260200190815260200160002060009054906101000a900460ff16806106bc57503373ffffffffffffffffffffffffffffffffffffffff166106a4610884565b73ffffffffffffffffffffffffffffffffffffffff16145b6106fb576040517f08c379a00000000000000000000000000000000000000000000000000000000081526004016106f290611f67565b60405180910390fd5b610705828261136a565b5050565b61071333826114cb565b50565b6000600760009054906101000a900460ff16905090565b6000600260008373ffffffffffffffffffffffffffffffffffffffff1673ffffffffffffffffffffffffffffffffffffffff168152602001908152602001600020549050919050565b61077e610de5565b73ffffffffffffffffffffffffffffffffffffffff1661079c610884565b73ffffffffffffffffffffffffffffffffffffffff16146107f2576040517f08c379a00000000000000000000000000000000000000000000000000000000081526004016107e990611ee7565b60405180910390fd5b6107fc60006116a4565b565b610806610de5565b73ffffffffffffffffffffffffffffffffffffffff16610824610884565b73ffffffffffffffffffffffffffffffffffffffff161461087a576040517f08c379a000000000000000000000000000000000000000000000000000000000815260040161087190611ee7565b60405180910390fd5b610882611768565b565b60008060009054906101000a900473ffffffffffffffffffffffffffffffffffffffff16905090565b6060600680546108bc9061214b565b80601f01602080910402602001604051908101604052809291908181526020018280546108e89061214b565b80156109355780601f1061090a57610100808354040283529160200191610935565b820191906000526020600020905b81548152906001019060200180831161091857829003601f168201915b5050505050905090565b610947610de5565b73ffffffffffffffffffffffffffffffffffffffff16610965610884565b73ffffffffffffffffffffffffffffffffffffffff16146109bb576040517f08c379a00000000000000000000000000000000000000000000000000000000081526004016109b290611ee7565b60405180910390fd5b600073ffffffffffffffffffffffffffffffffffffffff168173ffffffffffffffffffffffffffffffffffffffff161415610a2b576040517f08c379a0000000000000000000000000000000000000000000000000000000008152600401610a2290611e27565b60405180910390fd5b60018060008373ffffffffffffffffffffffffffffffffffffffff1673ffffffffffffffffffffffffffffffffffffffff16815260200190815260200160002060006101000a81548160ff02191690831515021790555050565b600080610a90610de5565b90506000610a9e8286610c66565b905083811015610ae3576040517f08c379a0000000000000000000000000000000000000000000000000000000008152600401610ada90611fa7565b60405180910390fd5b610af08286868403610ded565b60019250505092915050565b600080610b07610de5565b9050610b14818585611044565b600191505092915050565b610b27610de5565b73ffffffffffffffffffffffffffffffffffffffff16610b45610884565b73ffffffffffffffffffffffffffffffffffffffff1614610b9b576040517f08c379a0000000000000000000000000000000000000000000000000000000008152600401610b9290611ee7565b60405180910390fd5b600073ffffffffffffffffffffffffffffffffffffffff168173ffffffffffffffffffffffffffffffffffffffff161415610c0b576040517f08c379a0000000000000000000000000000000000000000000000000000000008152600401610c0290611e27565b60405180910390fd5b6000600160008373ffffffffffffffffffffffffffffffffffffffff1673ffffffffffffffffffffffffffffffffffffffff16815260200190815260200160002060006101000a81548160ff02191690831515021790555050565b6000600360008473ffffffffffffffffffffffffffffffffffffffff1673ffffffffffffffffffffffffffffffffffffffff16815260200190815260200160002060008373ffffffffffffffffffffffffffffffffffffffff1673ffffffffffffffffffffffffffffffffffffffff16815260200190815260200160002054905092915050565b610cf5610de5565b73ffffffffffffffffffffffffffffffffffffffff16610d13610884565b73ffffffffffffffffffffffffffffffffffffffff1614610d69576040517f08c379a0000000000000000000000000000000000000000000000000000000008152600401610d6090611ee7565b60405180910390fd5b600073ffffffffffffffffffffffffffffffffffffffff168173ffffffffffffffffffffffffffffffffffffffff161415610dd9576040517f08c379a0000000000000000000000000000000000000000000000000000000008152600401610dd090611e47565b60405180910390fd5b610de2816116a4565b50565b600033905090565b600073ffffffffffffffffffffffffffffffffffffffff168373ffffffffffffffffffffffffffffffffffffffff161415610e5d576040517f08c379a0000000000000000000000000000000000000000000000000000000008152600401610e5490611f47565b60405180910390fd5b600073ffffffffffffffffffffffffffffffffffffffff168273ffffffffffffffffffffffffffffffffffffffff161415610ecd576040517f08c379a0000000000000000000000000000000000000000000000000000000008152600401610ec490611e67565b60405180910390fd5b80600360008573ffffffffffffffffffffffffffffffffffffffff1673ffffffffffffffffffffffffffffffffffffffff16815260200190815260200160002060008473ffffffffffffffffffffffffffffffffffffffff1673ffffffffffffffffffffffffffffffffffffffff168152602001908152602001600020819055508173ffffffffffffffffffffffffffffffffffffffff168373ffffffffffffffffffffffffffffffffffffffff167f8c5be1e5ebec7d5bd14f71427d1e84f3dd0314c0f7b2291e5b200ac8c7c3b92583604051610fab9190611fe7565b60405180910390a3505050565b6000610fc48484610c66565b90507fffffffffffffffffffffffffffffffffffffffffffffffffffffffffffffffff811461103e5781811015611030576040517f08c379a000000000000000000000000000000000000000000000000000000000815260040161102790611e87565b60405180910390fd5b61103d8484848403610ded565b5b50505050565b600073ffffffffffffffffffffffffffffffffffffffff168373ffffffffffffffffffffffffffffffffffffffff1614156110b4576040517f08c379a00000000000000000000000000000000000000000000000000000000081526004016110ab90611f27565b60405180910390fd5b600073ffffffffffffffffffffffffffffffffffffffff168273ffffffffffffffffffffffffffffffffffffffff161415611124576040517f08c379a000000000000000000000000000000000000000000000000000000000815260040161111b90611dc7565b60405180910390fd5b61112f83838361180b565b6000600260008573ffffffffffffffffffffffffffffffffffffffff1673ffffffffffffffffffffffffffffffffffffffff168152602001908152602001600020549050818110156111b6576040517f08c379a00000000000000000000000000000000000000000000000000000000081526004016111ad90611ea7565b60405180910390fd5b818103600260008673ffffffffffffffffffffffffffffffffffffffff1673ffffffffffffffffffffffffffffffffffffffff1681526020019081526020016000208190555081600260008573ffffffffffffffffffffffffffffffffffffffff1673ffffffffffffffffffffffffffffffffffffffff168152602001908152602001600020600082825461124b9190612039565b925050819055508273ffffffffffffffffffffffffffffffffffffffff168473ffffffffffffffffffffffffffffffffffffffff167fddf252ad1be2c89b69c2b068fc378daa952ba7f163c4a11628f55a4df523b3ef846040516112af9190611fe7565b60405180910390a36112c2848484611901565b50505050565b6112d0610716565b61130f576040517f08c379a000000000000000000000000000000000000000000000000000000000815260040161130690611de7565b60405180910390fd5b6000600760006101000a81548160ff0219169083151502179055507f5db9ee0a495bf2e6ff9c91a7834c1ba4fdd244a5e8aa4e537bd38aeae4b073aa611353610de5565b6040516113609190611d4f565b60405180910390a1565b600073ffffffffffffffffffffffffffffffffffffffff168273ffffffffffffffffffffffffffffffffffffffff1614156113da576040517f08c379a00000000000000000000000000000000000000000000000000000000081526004016113d190611fc7565b60405180910390fd5b6113e66000838361180b565b80600460008282546113f89190612039565b9250508190555080600260008473ffffffffffffffffffffffffffffffffffffffff1673ffffffffffffffffffffffffffffffffffffffff168152602001908152602001600020600082825461144e9190612039565b925050819055508173ffffffffffffffffffffffffffffffffffffffff16600073ffffffffffffffffffffffffffffffffffffffff167fddf252ad1be2c89b69c2b068fc378daa952ba7f163c4a11628f55a4df523b3ef836040516114b39190611fe7565b60405180910390a36114c760008383611901565b5050565b600073ffffffffffffffffffffffffffffffffffffffff168273ffffffffffffffffffffffffffffffffffffffff16141561153b576040517f08c379a000000000000000000000000000000000000000000000000000000000815260040161153290611f07565b60405180910390fd5b6115478260008361180b565b6000600260008473ffffffffffffffffffffffffffffffffffffffff1673ffffffffffffffffffffffffffffffffffffffff168152602001908152602001600020549050818110156115ce576040517f08c379a00000000000000000000000000000000000000000000000000000000081526004016115c590611e07565b60405180910390fd5b818103600260008573ffffffffffffffffffffffffffffffffffffffff1673ffffffffffffffffffffffffffffffffffffffff168152602001908152602001600020819055508160046000828254611626919061208f565b92505081905550600073ffffffffffffffffffffffffffffffffffffffff168373ffffffffffffffffffffffffffffffffffffffff167fddf252ad1be2c89b69c2b068fc378daa952ba7f163c4a11628f55a4df523b3ef8460405161168b9190611fe7565b60405180910390a361169f83600084611901565b505050565b60008060009054906101000a900473ffffffffffffffffffffffffffffffffffffffff169050816000806101000a81548173ffffffffffffffffffffffffffffffffffffffff021916908373ffffffffffffffffffffffffffffffffffffffff1602179055508173ffffffffffffffffffffffffffffffffffffffff168173ffffffffffffffffffffffffffffffffffffffff167f8be0079c531659141344cd1fd0a4f28419497f9722a3daafe3b4186f6b6457e060405160405180910390a35050565b611770610716565b156117b0576040517f08c379a00000000000000000000000000000000000000000000000000000000081526004016117a790611ec7565b60405180910390fd5b6001600760006101000a81548160ff0219169083151502179055507f62e78cea01bee320cd4e420270b5ea74000d11b0c9f74754ebdbfc544b05a2586117f4610de5565b6040516118019190611d4f565b60405180910390a1565b611816838383611906565b61181e610716565b1561185e576040517f08c379a000000000000000000000000000000000000000000000000000000000815260040161185590611f87565b60405180910390fd5b600073ffffffffffffffffffffffffffffffffffffffff168373ffffffffffffffffffffffffffffffffffffffff1614156118fc576b033b2e3c9fd0803ce80000006118ba826118ac610523565b61190b90919063ffffffff16565b11156118fb576040517f08c379a00000000000000000000000000000000000000000000000000000000081526004016118f290611da7565b60405180910390fd5b5b505050565b505050565b505050565b600081836119199190612039565b905092915050565b60008135905061193081612670565b92915050565b60008135905061194581612687565b92915050565b60006020828403121561195d57600080fd5b600061196b84828501611921565b91505092915050565b6000806040838503121561198757600080fd5b600061199585828601611921565b92505060206119a685828601611921565b9150509250929050565b6000806000606084860312156119c557600080fd5b60006119d386828701611921565b93505060206119e486828701611921565b92505060406119f586828701611936565b9150509250925092565b60008060408385031215611a1257600080fd5b6000611a2085828601611921565b9250506020611a3185828601611936565b9150509250929050565b600060208284031215611a4d57600080fd5b6000611a5b84828501611936565b91505092915050565b611a6d816120c3565b82525050565b611a7c816120d5565b82525050565b6000611a8d8261201d565b611a978185612028565b9350611aa7818560208601612118565b611ab0816121db565b840191505092915050565b6000611ac8601683612028565b9150611ad3826121ec565b602082019050919050565b6000611aeb602383612028565b9150611af682612215565b604082019050919050565b6000611b0e601483612028565b9150611b1982612264565b602082019050919050565b6000611b31602283612028565b9150611b3c8261228d565b604082019050919050565b6000611b54602b83612028565b9150611b5f826122dc565b604082019050919050565b6000611b77602683612028565b9150611b828261232b565b604082019050919050565b6000611b9a602283612028565b9150611ba58261237a565b604082019050919050565b6000611bbd601d83612028565b9150611bc8826123c9565b602082019050919050565b6000611be0602683612028565b9150611beb826123f2565b604082019050919050565b6000611c03601083612028565b9150611c0e82612441565b602082019050919050565b6000611c26602083612028565b9150611c318261246a565b602082019050919050565b6000611c49602183612028565b9150611c5482612493565b604082019050919050565b6000611c6c602583612028565b9150611c77826124e2565b604082019050919050565b6000611c8f602483612028565b9150611c9a82612531565b604082019050919050565b6000611cb2602083612028565b9150611cbd82612580565b602082019050919050565b6000611cd5602583612028565b9150611ce0826125a9565b604082019050919050565b6000611cf8602583612028565b9150611d03826125f8565b604082019050919050565b6000611d1b601f83612028565b9150611d2682612647565b602082019050919050565b611d3a81612101565b82525050565b611d498161210b565b82525050565b6000602082019050611d646000830184611a64565b92915050565b6000602082019050611d7f6000830184611a73565b92915050565b60006020820190508181036000830152611d9f8184611a82565b905092915050565b60006020820190508181036000830152611dc081611abb565b9050919050565b60006020820190508181036000830152611de081611ade565b9050919050565b60006020820190508181036000830152611e0081611b01565b9050919050565b60006020820190508181036000830152611e2081611b24565b9050919050565b60006020820190508181036000830152611e4081611b47565b9050919050565b60006020820190508181036000830152611e6081611b6a565b9050919050565b60006020820190508181036000830152611e8081611b8d565b9050919050565b60006020820190508181036000830152611ea081611bb0565b9050919050565b60006020820190508181036000830152611ec081611bd3565b9050919050565b60006020820190508181036000830152611ee081611bf6565b9050919050565b60006020820190508181036000830152611f0081611c19565b9050919050565b60006020820190508181036000830152611f2081611c3c565b9050919050565b60006020820190508181036000830152611f4081611c5f565b9050919050565b60006020820190508181036000830152611f6081611c82565b9050919050565b60006020820190508181036000830152611f8081611ca5565b9050919050565b60006020820190508181036000830152611fa081611cc8565b9050919050565b60006020820190508181036000830152611fc081611ceb565b9050919050565b60006020820190508181036000830152611fe081611d0e565b9050919050565b6000602082019050611ffc6000830184611d31565b92915050565b60006020820190506120176000830184611d40565b92915050565b600081519050919050565b600082825260208201905092915050565b600061204482612101565b915061204f83612101565b9250827fffffffffffffffffffffffffffffffffffffffffffffffffffffffffffffffff038211156120845761208361217d565b5b828201905092915050565b600061209a82612101565b91506120a583612101565b9250828210156120b8576120b761217d565b5b828203905092915050565b60006120ce826120e1565b9050919050565b60008115159050919050565b600073ffffffffffffffffffffffffffffffffffffffff82169050919050565b6000819050919050565b600060ff82169050919050565b60005b8381101561213657808201518184015260208101905061211b565b83811115612145576000848401525b50505050565b6000600282049050600182168061216357607f821691505b60208210811415612177576121766121ac565b5b50919050565b7f4e487b7100000000000000000000000000000000000000000000000000000000600052601160045260246000fd5b7f4e487b7100000000000000000000000000000000000000000000000000000000600052602260045260246000fd5b6000601f19601f8301169050919050565b7f546f6b656e50525a3a2063617020657863656564656400000000000000000000600082015250565b7f45524332303a207472616e7366657220746f20746865207a65726f206164647260008201527f6573730000000000000000000000000000000000000000000000000000000000602082015250565b7f5061757361626c653a206e6f7420706175736564000000000000000000000000600082015250565b7f45524332303a206275726e20616d6f756e7420657863656564732062616c616e60008201527f6365000000000000000000000000000000000000000000000000000000000000602082015250565b7f4f776e65724f70657261746f723a206f70657261746f7220697320746865207a60008201527f65726f2061646472657373000000000000000000000000000000000000000000602082015250565b7f4f776e61626c653a206e6577206f776e657220697320746865207a65726f206160008201527f6464726573730000000000000000000000000000000000000000000000000000602082015250565b7f45524332303a20617070726f766520746f20746865207a65726f20616464726560008201527f7373000000000000000000000000000000000000000000000000000000000000602082015250565b7f45524332303a20696e73756666696369656e7420616c6c6f77616e6365000000600082015250565b7f45524332303a207472616e7366657220616d6f756e742065786365656473206260008201527f616c616e63650000000000000000000000000000000000000000000000000000602082015250565b7f5061757361626c653a2070617573656400000000000000000000000000000000600082015250565b7f4f776e61626c653a2063616c6c6572206973206e6f7420746865206f776e6572600082015250565b7f45524332303a206275726e2066726f6d20746865207a65726f2061646472657360008201527f7300000000000000000000000000000000000000000000000000000000000000602082015250565b7f45524332303a207472616e736665722066726f6d20746865207a65726f20616460008201527f6472657373000000000000000000000000000000000000000000000000000000602082015250565b7f45524332303a20617070726f76652066726f6d20746865207a65726f2061646460008201527f7265737300000000000000000000000000000000000000000000000000000000602082015250565b7f4f776e65724f70657261746f723a20216f70657261746f722c20216f776e6572600082015250565b7f546f6b656e50525a3a20746f6b656e207472616e73666572207768696c65207060008201527f6175736564000000000000000000000000000000000000000000000000000000602082015250565b7f45524332303a2064656372656173656420616c6c6f77616e63652062656c6f7760008201527f207a65726f000000000000000000000000000000000000000000000000000000602082015250565b7f45524332303a206d696e7420746f20746865207a65726f206164647265737300600082015250565b612679816120c3565b811461268457600080fd5b50565b61269081612101565b811461269b57600080fd5b5056fea2646970667358221220171a9edf4660a78c6bf9033b6dd514cd50d3286237c6d907d5c4a32c8b0c213e64736f6c63430008040033",
  "linkReferences": {},
  "deployedLinkReferences": {}
}